:020000040800F2
:1000000000100020790C0008550C0008570C00085F
:1000100000000000000000000000000000000000E0
:10002000000000000000000000000000590C000863
:1000300000000000000000005B0C00085D0C0008E0
:10004000C90C000800000000C90C0008C90C000819
:10005000C90C0008C90C0008C90C0008C90C00082C
:1000600000000000C90C0008C90C0008C90C0008F9
:10007000C90C0008C90C0008C90C000800000000E9
:10008000C90C00080000000000000000C90C0008B6
:1000900000000000C90C0008C90C0008C90C0008C9
:1000A00000000000C90C000800000000650C0008FA
:1000B0000000000000000000000000000000000040
:1000C00010B5064C2378002B07D1054B002B02D02E
:1000D000044800E000BF0123237010BD140000207D
:1000E0000000000034290008044B10B5002B03D099
:1000F0000349044800E000BF10BDC04600000000F6
:100100001800002034290008002243088B4274D3D1
:1001100003098B425FD3030A8B4244D3030B8B4208
:1001200028D3030C8B420DD3FF22090212BA030C11
:100130008B4202D31212090265D0030B8B4219D3F2
:1001400000E0090AC30B8B4201D3CB03C01A524112
:10015000830B8B4201D38B03C01A5241430B8B425A
:1001600001D34B03C01A5241030B8B4201D30B0343
:10017000C01A5241C30A8B4201D3CB02C01A52416A
:10018000830A8B4201D38B02C01A5241430A8B422D
:1001900001D34B02C01A5241030A8B4201D30B0216
:1001A000C01A5241CDD2C3098B4201D3CB01C01A30
:1001B000524183098B4201D38B01C01A524143093A
:1001C0008B4201D34B01C01A524103098B4201D328
:1001D0000B01C01A5241C3088B4201D3CB00C01A95
:1001E000524183088B4201D38B00C01A524143080D
:1001F0008B4201D34B00C01A5241411A00D2014632
:10020000524110467047FFE701B5002000F006F8A4
:1002100002BDC0460029F7D076E770477047C04658
:10022000002A06D00B780370013A01300131002A10
:10023000F8D170470170013A0130002AFAD17047B5
:10024000F0B589B01422002103A802F06BFB234B08
:1002500059698020C003014359615A6902400092E4
:10026000009A596980208002014359615A6902400D
:100270000192019A5A698021C9020A435A615B6955
:100280000B400293029B9027FF0500221F2138009C
:1002900000F0E8FE124D00220221280000F0E2FEEC
:1002A0000323039304930024059403A90D4800F04D
:1002B00013FE1F230393012604960594069403A9B5
:1002C000380000F009FE0223039304960594069477
:1002D00003A9280000F000FE09B0F0BD00100240A4
:1002E000000400480014004810B50648064B03609F
:1002F00000230371C36003610133836100F09CFD3F
:1003000010BDC0464C0000200030024070B5124CB9
:10031000124B2360002565607F23A3608033E36078
:1003200025616561A561200001F096FA0C490D7008
:100330004D708D70CD600D610122200001F0FAFA40
:10034000084901230B704B708B70CD700122200087
:1003500001F06EFB70BDC046E800002000280040A0
:10036000380000203400002010B50E480E4B03600A
:1003700082235B00436000238360E022D200C260DE
:1003800003614361802292008261C3610362436220
:100390008362FA3AFF3AC2620363436301F08AFC64
:1003A00010BDC046080100200030014010B50B48C8
:1003B0000B4B0360E1235B02436000238360C36057
:1003C00003610C2242618361C361036208334362AB
:1003D00080231B02436302F04BFA10BD680000202B
:1003E0000038014010B594B02C22002109A802F079
:1003F00099FA1022002104A802F094FA1022002198
:10040000684602F08FFA0A230893093B0B931022E7
:100410000C920F9302241094C0235B03129308A83C
:1004200000F026FE07230493059400240694079405
:10043000012104A801F0A0F8054B00930294802349
:100440009B000193684601F045F914B010BDC04609
:100450000100010010B500F061FCFFF7C3FFFFF7DA
:10046000EFFEFFF741FFFFF751FFFFF77DFFFFF7BB
:100470009DFF00F033FA00F06FFAFCE770470000D0
:1004800010B5036801221A62036801321A62036818
:100490000421196203680C311962036808241C6284
:1004A00001688B6923438B610023C367014B1A707A
:1004B00010BDC0463000002070B582B005000E00AF
:1004C0009024E40500221021200000F0CBFD6D00F7
:1004D0007E20284001A908704E700A230222054898
:1004E00001F04EFC01221021200000F0BBFD02B003
:1004F00070BDC04608010020F0B585B0070003AD0F
:1005000000232B706B7002AC237063709026F6058D
:1005100000221021300000F0A5FD7F007E233B402B
:1005200080204042184328700A230093083B220091
:100530002900054801F014FD01221021300000F0CF
:1005400091FD607805B0F0BD0801002070B5040091
:100550000D00FFF7D1FF2843C1B22000FFF7ACFF29
:1005600070BD10B51420FFF7C7FF830700D010BD82
:1005700003211420FFF7EAFFF9E770B504000D002E
:10058000FFF7BAFF41B2A943C9B22000FFF794FFB9
:1005900070BD0000F0B5CE46474680B583B08046BA
:1005A0000D00160001930C2821D00E2823D000271F
:1005B00000239946802149424B461943C9B2022083
:1005C000FFF77AFF80210420FFF7D7FF80210A2060
:1005D000FFF7BCFF00210120FFF76EFF0024A642B9
:1005E0000DD9295D0920FFF767FF0134F7E73027B0
:1005F00077239946DEE7102712239946DAE741462A
:100600000120FFF759FF43460C2B18D0C8240420C3
:10061000FFF772FF0600013C002C03D0C30701D492
:100620000742F4D080210D20FFF7A7FF002C0BD14B
:100630000124200003B00CBC90469946F0BD8021F7
:100640000D20FFF783FFE1E70620FFF755FF1B238F
:10065000034236D14B4633401E00F3071DD400241D
:1006600043460C2BE5D10A20FFF746FF06008046E3
:100670000C20FFF741FF0723184010D0124B9C4677
:100680006644F60030180A9B18804346002B0AD0B7
:10069000102B0AD91023984607E00224E0E7F60061
:1006A0000A9B1E80F1E701239846002606E0019B85
:1006B0009F190920FFF720FF38700136B045F6D8A2
:1006C000B7E70124B5E7C046FFFFFF1F30B585B08F
:1006D00005000C0007210D20FFF7EEFE25700E230C
:1006E0006B4400932300012221000C20FFF752FFEE
:1006F000002806D10E236B441B88102B02D001204A
:1007000000E0012005B030BD10B584B00400002128
:100710000D20FFF7D1FE93232370733B6370123BD0
:100720006B4400932300022221000C20FFF732FFCC
:1007300000280BD10022002302E0E15C4A40013393
:10074000032BFAD9E35C934200D0012004B010BD22
:10075000F8B506000D00170004210520FFF70DFF76
:1007600080210A20FFF7F2FE002404E0315D092019
:10077000FFF7A2FE0134A542F8D803210120FFF7BC
:100780009BFEFF240520FFF7B7FE013C002C01D0A3
:100790004307F7D52220FFF7AFFE38702120FFF77F
:1007A000ABFE7870F8BD10B586B003AB93221A701B
:1007B000233A5A70002304E09A1CC45C03A98C54A9
:1007C0000133042BF8D913226A44072103A8FFF749
:1007D000BFFF16236B44009303AB092219000C20C2
:1007E000FFF7D8FE002809D116236B441B88182B6D
:1007F00001D0002003E003AB187800E0002006B031
:1008000010BD30B587B00D0003AC3023237060708D
:100810000E226A4402212000FFF79AFF16236B4440
:1008200000932B00042221000C20FFF7B3FE0028C8
:1008300006D116236B441B88902B02D0012000E0C8
:10084000012007B030BD10B584B002AC5023237036
:10085000002363700A226A4402212000FFF778FF18
:100860000E236B4400932300042221000C20FFF789
:1008700091FE08210820FFF780FE04B010BD30B5BE
:1008800087B002AC20706170002104E0881C555CC8
:1008900002AC255401310529F8D9002205E01100E8
:1008A00008319C5C02A844540132032AF7D916236C
:1008B0006B44009302AB0C2219000E20FFF76AFE76
:1008C000041E03D00124200007B030BD0820FFF72C
:1008D00013FE0307F7D40124F5E7000010B59020BC
:1008E00001221021C00500F0BDFB1A4C002202219C
:1008F000200000F0B7FB0A2000F032FA01220221AA
:10090000200000F0AFFB642000F02AFA0F21012044
:10091000FFF7D2FD8D212A20FFF7CEFD3E212B20AF
:10092000FFF7CAFD1E212D20FFF7C6FD00212C2058
:10093000FFF7C2FD70212620FFF7BEFD40211520E4
:10094000FFF7BAFD3D211120FFF7B6FDFFF709FEC5
:1009500010BDC0460004004810B594B012A926206E
:10096000FFF7B4FE00280BD000280DD00124002C86
:100970004AD0002C00D181E0FFF765FF14B010BD14
:1009800012A8FFF7C1FEEFE712A8FFF70CFF00283F
:1009900001D10124EDE74422002101A8FFF74AFC20
:1009A0000422534901A8FFF73BFC12AB514A002136
:1009B0006020FFF764FF00280FD0002811D0002826
:1009C00014D0002817D000281AD16423442201A98A
:1009D000494801F0A1FE0400C9E702A9FFF711FF91
:1009E000EBE706A90130FFF70CFFE8E70AA90230A0
:1009F000FFF707FFE5E70EA90330FFF702FFE2E785
:100A0000FFF721FF0124B4E74422002101A8FFF7EA
:100A100011FC37490422083101A8FFF701FC12AB91
:100A2000344A04216020FFF72AFF00280FD0002855
:100A300012D0002815D0002818D000281BD164231C
:100A4000442201A92C4801F067FE040091E702A9A5
:100A50000430FFF7D6FEEAE706A90530FFF7D1FE1E
:100A6000E7E70AA90630FFF7CCFEE4E70EA9073056
:100A7000FFF7C7FEE1E7FFF7E6FE7AE74422002131
:100A800001A8FFF7D7FB1A490422103101A8FFF78C
:100A9000C7FB12AB174A08216020FFF7F0FE0028C1
:100AA0000AD000280DD0002810D0002813D000282C
:100AB00016D0FFF7C8FE5FE702A90830FFF7A1FED6
:100AC000EFE706A90930FFF79CFEECE70AA90A3018
:100AD000FFF797FEE9E70EA90B30FFF792FEE6E776
:100AE0006423442201A9044801F016FE44E7C046ED
:100AF0004C290008000000206800002082B00A4B4A
:100B0000996901221143996199690A400092009AFA
:100B1000DA69802149050A43DA61DB690B400193F8
:100B2000019B02B07047C0460010024082B00268CC
:100B3000074B9A4201D002B07047064A51694023E0
:100B400019435161526913400193019BF3E7C04679
:100B500000300240001002400268054B9A4200D06B
:100B60007047044A116A80231B020B431362F7E7A4
:100B7000002800400010024010B588B00400142284
:100B8000002103A801F0CEFE2268124B9A4201D048
:100B900008B010BD104B9969802040010143996154
:100BA0009A6902400192019A5A69802189020A4396
:100BB0005A615B690B400293029BE0230393DE3B87
:100BC000049301330693902003A9C00500F084F933
:100BD000DEE7C046003001400010024010B588B08A
:100BE00004001422002103A801F09CFE2268174B88
:100BF0009A4201D008B010BD154B99698020C00100
:100C0000014399619A6902400192019A5A698021CF
:100C100089020A435A615B690B400293029BC0231D
:100C2000DB0003930223049301330693023B0793F3
:100C3000902003A9C00500F04FF9002200211B20DD
:100C400000F0A0F81B2000F0CFF8D3E700380140F7
:100C5000001002407047FEE77047704710B500F083
:100C60006DF810BD10B5024801F002FB10BDC04682
:100C700068000020704700000D4885460D480E4969
:100C80000E4A002302E0D458C4500433C4188C42E6
:100C9000F9D30B4A0B4C002301E013600432A2424B
:100CA000FBD3FFF7E7FF01F019FEFFF7D3FBFEE7E9
:100CB000001000200000002014000020A4290008DB
:100CC0001400002070010020FEE7000010B50400B1
:100CD0000F4B1978FA208000FFF716FA01000D4B30
:100CE0001868FFF711FA00F08BF800280DD1032CDB
:100CF00001D901200AE0013000222100404200F029
:100D000041F8054B1C60002000E0012010BDC046EA
:100D10000C000020080000201000002010B5064A3A
:100D2000136810210B4313600020FFF7CFFFFFF77C
:100D3000E5FE002010BDC04600200240034A1168B5
:100D4000034B1B785B1813607047C0466C01002092
:100D50000C000020014B18687047C0466C01002051
:100D600070B50400FFF7F6FF0500631C02D0044BCA
:100D70001B78E418FFF7EEFF401BA042FAD370BDCA
:100D80000C00002070B5002811DB8308144DC0331F
:100D90009B005C5903221040C000FC3216008640C4
:100DA000B44389010A40824022435A5170BDC0B207
:100DB0000F230340083B9B0806339B00094A9446D7
:100DC00063445D6803242040C000FF221400844077
:100DD000A54389011140814029435960E6E7C04697
:100DE00000E100E000ED00E0002805DB1F231840D3
:100DF0001E3B8340014A13607047C04600E100E09B
:100E000001380A4B98420FD8094A50600948036AD2
:100E10001B021B0AC02109060B43036200239360D7
:100E200007331360002070470120FCE7FFFFFF003D
:100E300010E000E000ED00E010B5041E25D0437D79
:100E4000002B1AD0022363752379002B19D1236854
:100E5000012252421A612268936860218B43E16843
:100E60000B4393602268936880218B4321690B4375
:100E7000936001236375002010BD0375FFF756FED4
:100E8000E0E72368A2681A61E5E70120F4E710B5FE
:100E90002123C35C022B03D004238363012010BDF4
:100EA000026813680E218B43136001680A680123EE
:100EB0009A430A60C26B1900046CA1405160212260
:100EC00083541F330022C254436B002B02D0984737
:100ED0000020E4E70020E2E7F0B5C64600B582B0A6
:100EE000002338E0032600E00026AE4035003D43F5
:100EF0000234A400554EA551554C25684246D443B2
:100F00002E0026404A68D20302D5424615432E00E1
:100F10004F4D2E606D682E0026404A68920302D520
:100F2000424615432E004A4D6E60AD682E002640A5
:100F30004A68D20202D5424615432E00444DAE60A7
:100F4000ED682C404A68920202D542462A431400BA
:100F50003F4AD46001330A681400DC4071D0012597
:100F60009D402A409046F5D04C68022C01D0122CAE
:100F70000ED1DC080834A400275807261E40B6000E
:100F80000F22B24097430A69B24016003E432650F2
:100F900002685F0003242600BE40F64332409446B8
:100FA0004A681440BC406246144304604C68621EA8
:100FB000012A03D9112C01D0122C10D1846834409D
:100FC000A446CC68BC406246144384604468AC4389
:100FD0004A681209012515409D4025434560C468B3
:100FE00026408C68BC403443C4604A68D200B1D506
:100FF000184DAE6901242643AE61AD692C400194C1
:10100000019C9C08A51CAD00104EAF5903251D4046
:10101000AD000F26AE40B7439026F605B04200D192
:1010200062E70D4EB04208D00C4EB04207D00C4ED5
:10103000B04200D156E7052657E7012655E70226BC
:1010400053E702B004BC9046F0BDC046000001402A
:10105000000401400010024000040048000800485D
:10106000000C0048002A01D1816270478161FCE7D1
:1010700070B582B0041E00D132E20368DB0726D5CA
:10108000AE4B5A680C231340042B18D0AB4B5A6854
:101090000C231340082B0ED06368012B3CD0002B8F
:1010A00051D1A64B1A68A6490A401A601A68A54988
:1010B0000A401A6036E0A14B5B68DB03ECD59F4B1E
:1010C0001B689B0303D56368002B00D10BE22368E8
:1010D0009B0773D5994B5B680C221A425DD0974BE6
:1010E0005A680C231340082B53D0E368002B00D11F
:1010F00086E0924A136801210B431360FFF72AFE32
:1011000005008E4B1B689B0771D4FFF723FE401B25
:101110000228F6D90320E4E1884A116880235B02A3
:101120000B4313606368002B25D0FFF713FE050007
:10113000824B1B689B03CAD4FFF70CFE401B64283C
:10114000F6D90320CDE1052B09D07C4B1A687C49E8
:101150000A401A601A687B490A401A60E2E7774B36
:1011600019688022D2020A431A601968802252024A
:101170000A431A60D6E7FFF7EDFD05006F4B1B68C9
:101180009B03A4D5FFF7E6FD401B6428F6D9032096
:10119000A7E16A4B5B68DB03A7D4684B1B689B071E
:1011A00004D5E368012B01D001209AE163490B6863
:1011B000F82293432269D20013430B6023681B0774
:1011C00044D5E369002B2ED05C4A536A01210B43BE
:1011D0005362FFF7BFFD0500584B5B6A9B0735D490
:1011E000FFF7B8FD401B0228F6D9032079E15349E7
:1011F0000B68F82293432269D20013430B60DDE7AA
:101200004E4A136801218B431360FFF7A3FD0500CD
:101210004A4B1B689B07D1D5FFF79CFD401B02285A
:10122000F6D903205DE1454A536A01218B4353629D
:10123000FFF790FD0500414B5B6A9B0706D5FFF762
:1012400089FD401B0228F6D903204AE123685B0789
:1012500000D47FE0394BDB69DB001DD4374AD1690C
:10126000802040050143D161D36903400193019B74
:101270000125354B1B68DB0510D5A368012B21D058
:10128000002B36D12D4B1A6A01218A431A621A6A41
:1012900003318A431A621AE00025EAE72A4A1168F4
:1012A00080235B000B431360FFF754FD0600264BC1
:1012B0001B68DB05E1D4FFF74DFD801B6428F6D9E0
:1012C00003200EE11D4A136A01210B431362A36838
:1012D000002B24D0FFF73EFD0600184B1B6A9B072E
:1012E00036D4FFF737FD801B184B9842F5D9032001
:1012F000F7E0052B09D0114B1A6A01218A431A62C3
:101300001A6A03318A431A62E1E70C4B1A6A042114
:101310000A431A621A6A03390A431A62D7E7FFF7C7
:1013200019FD0600054B1B6A9B0711D5FFF712FD3F
:10133000801B064B9842F5D90320D2E000100240F2
:10134000FFFFFEFFFFFFFBFF00700040881300005F
:10135000012D33D02368DB0610D56369012B33D010
:10136000053351D1644A536B04218B435363536B50
:10137000F4318B43A169C9000B435363236A002BEB
:1013800000D1B2E05C4A51680C220A40082A00D120
:101390008AE0022B4FD0584A136858490B4013601B
:1013A000FFF7D8FC0400544B1B689B017AD5FFF76C
:1013B000D1FC001B0228F6D9032092E04E4AD369E3
:1013C0004F490B40D361C5E74B4B5A6B04210A438D
:1013D0005A635A6B03390A435A63FFF7BBFC050093
:1013E000454B5B6B9B0706D4FFF7B4FC401B022800
:1013F000F6D9032075E040494B6BF8229343A2696C
:10140000D20013434B63B9E73B4B5A6B04210A43A9
:101410005A635A6B03398A435A63FFF79BFC0500F2
:10142000354B5B6B9B07A9D5FFF794FC401B02284B
:10143000F6D9032055E0304A136830490B40136059
:10144000FFF788FC05002C4B1B689B0106D5FFF7B6
:1014500081FC401B0228F6D9032042E0264BDA6AC1
:101460000F218A43E16A0A43DA625A6825490A4031
:10147000A16A606A01430A435A60196880225204D3
:101480000A431A60FFF766FC04001B4B1B689B01B4
:1014900006D4FFF75FFC001B0228F6D9032020E0EA
:1014A00000201EE000201CE0012B20D0124B5A68C7
:1014B000D96A80235B021340606A834201D0012015
:1014C0000FE00F230B40E16A8B4201D0012008E0BE
:1014D000F0239B031A40A36A9A420AD0012000E03D
:1014E000012002B070BD0120FBE70020F9E70120D8
:1014F000F7E70020F5E7C04600100240FFFFFFFEBF
:10150000FFFFFFEFFFFFC2FF30B589B004AA174B02
:10151000180032C832C2110002680A606A461033ED
:1015200013CB13C21B681360114B5A680C23134072
:10153000082B19D1910C0733194004A8445C0C49BD
:10154000C96A0B406946C95CD30308D463011B1BFD
:101550009801C01AC0000419200209B030BD054826
:10156000FEF7D2FD6043F8E70248F6E76429000879
:101570000010024000127A0070B504000D0000282F
:1015800000D181E0424B1A68012313408B420BD2F9
:101590003F490B68012293432B430B600B681A40B1
:1015A000AA4201D0012070E023689A070ED55B079C
:1015B00005D5384A5168E023DB000B435360354AB8
:1015C0005368F0218B43A1680B4353602368DB070A
:1015D0002DD56368012B1ED0022B22D02D4A126814
:1015E000920753D52B494A680320824313434B602B
:1015F000FFF7B0FB0600274B5B680C221A406368BC
:101600009B009A4213D0FFF7A5FB801B224B984208
:10161000F1D9032039E01F4A12689203E2D4012075
:1016200033E01C4A12689201DCD401202DE0184BF3
:101630001A6801231340AB420BD915490B680122EC
:1016400093432B430B600B681A40AA4201D0012040
:101650001BE023685B0706D50E4A53680F490B4011
:10166000E1680B435360FFF74FFF0A4B5A681209BA
:101670000F2313400A4AD35CD8400A4B186000205D
:10168000FFF724FB002000E0012070BD0120FCE7F3
:10169000002002400010024088130000FFF8FFFF06
:1016A0008429000808000020014B18687047C046D4
:1016B0000800002010B5FFF7F7FF044B5A68120A24
:1016C00007231340024AD35CD84010BD00100240EB
:1016D0009429000870B582B004000368DB0335D597
:1016E0003C4BDB69DB0048D43A4AD1698020400595
:1016F0000143D161D36903400193019B0125364B1E
:101700001B68DB053BD5334B1B6AC022920013409C
:1017100013D061680A409A420FD02E4B186A2F4AA4
:1017200002401E6A8021490231431962196A2C4E17
:10173000314019621A62C30735D4264A136A274911
:101740000B4061680B431362012D3BD02368DB071C
:1017500006D5204A136B03218B43A1680B43136307
:1017600023689B0633D51B4A136B10218B43E1681A
:101770000B431363002002B070BD0025BFE7164A7B
:10178000116880235B000B431360FFF7E3FA060048
:10179000114B1B68DB05B6D4FFF7DCFA801B64280D
:1017A000F6D90320E7E7FFF7D5FA0600094B1B6AD5
:1017B0009B07C2D4FFF7CEFA801B0A4B9842F5D99B
:1017C0000320D8E7D36908490B40D361BEE7002066
:1017D000D1E7C0460010024000700040FFFCFFFF50
:1017E000FFFFFEFF88130000FFFFFFEF70B504004E
:1017F0000268D368A0218B43D360FFF7ABFA0500E2
:101800002368DB689B0608D4FFF7A4FA401BFA2381
:101810009B009842F4D9032000E0002070BD70B511
:1018200004000368DA68520601D5002070BD012269
:101830005242DA60FFF78EFA05002368DB685B0628
:1018400008D4FFF787FA401BFA239B009842F4D98B
:101850000320EBE70020E9E770B5041E57D0437F73
:10186000002B3CD0022363772368CA225A62236884
:10187000773A5A622000FFF7D2FF051E33D1226863
:10188000936824490B40936021688A6863682069E3
:1018900003436069034313438B602368E2681A6162
:1018A00021680B69A268120413430B612268D36894
:1018B00080218B43D36023689B689B061BD52268DD
:1018C000136C15490B4013642268136CA1690B4318
:1018D00013642368FF225A620123637709E00377C8
:1018E000FFF73AF9BEE72368FF225A6204236377C1
:1018F0000125280070BD2000FFF778FF0028DED00A
:101900002368FF225A62042363770125F1E701254A
:10191000EFE7C046BFFF8FFFFFFFFBFF002302E0A2
:1019200001330A38C0B20928FAD81B01DBB21843C8
:1019300070470000F8B504000E00037F012B00D1B2
:1019400070E00123037701334377002A41D1036814
:101950009B685B0601D40023CB703078FFF7DEFF75
:1019600005047078FFF7DAFF00020543B078FFF74F
:10197000D5FF0543F078000405432368CA225A6264
:101980002368773A5A622000FFF749FF071E31D1DA
:101990002368254805401D602268936823490B4051
:1019A000936021688B68F2683069024313438B604F
:1019B0002268D36880218B43D36023689B689B0691
:1019C00022D52368FF225A620123637700232377FD
:1019D00018E003689B685B0601D40023CB70357860
:1019E0002D04707800020543B0780543F0780004B8
:1019F0000543C2E72368FF225A620423637700236A
:101A0000237701273800F8BD2000FFF7EFFE0028FC
:101A1000D7D02368FF225A620423637700232377F9
:101A20000127EFE70227EDE77F7F7F00FFFFFBFF46
:101A300070B504000E00037F012B61D001230377F2
:101A400001334377002A06D14B78D90603D51021FC
:101A50008B430A337370002A2FD1F078FFF75EFFB3
:101A600005047078FFF75AFF00020543B078FFF7CE
:101A700055FF05433078400305432368CA225A6264
:101A80002368773A5A622000FFF7C9FE061E1FD16D
:101A900023681C4805405D602268D36880218B4321
:101AA000D36023689B689B061CD52368FF225A627B
:101AB000012363770023237712E0F5782D047078F3
:101AC00000020543B0780543307840030543D4E76E
:101AD0002368FF225A6204236377002323770126B9
:101AE000300070BD2000FFF781FE0028DDD02368A4
:101AF000FF225A6204236377002323770126EFE74E
:101B00000226EDE73FFFFF00F8B506000C001700C6
:101B10001D0033689B6823401B1B5A425341BB4244
:101B20003BD06B1CF5D0FFF715F9069BC01AA842F5
:101B300001D2002DEDD132685368E0218B43536010
:101B400082235B0072689A420CD080239B01B26AA8
:101B50009A4216D05D230122F254013B0022F25436
:101B600003201BE0B36880221202934203D080223C
:101B7000D2009342E9D13268136840218B4313604D
:101B8000E3E73268136806490B4013603268116856
:101B900080239B010B431360DCE70020F8BDC046A7
:101BA000FFDFFFFFF8B507000C0015001E0001E085
:101BB000731C0CD13A6893682340AB4241D0C023D8
:101BC000DB009C42F4D1002DF2D1137BF0E7FFF74C
:101BD000C1F8069BC01AB04201D2002EEAD13A6881
:101BE0005368E0218B43536082235B007A689A42FA
:101BF0000CD080239B01BA6A9A4216D05D23012241
:101C0000FA54013B0022FA5403201BE0BB688022F7
:101C10001202934203D08022D2009342E9D13A6863
:101C2000136840218B431360E3E73A681368064961
:101C30000B4013603A68116880239B010B431360CB
:101C4000DCE70020F8BDC046FFDFFFFF70B582B0C3
:101C500004000D001600C02100922B000022490153
:101C6000FFF7A0FF002818D100962B00002280214A
:101C70002000FFF749FF002816D1C02100962B0055
:101C80000022C9002000FFF78DFF00280AD0236E34
:101C9000202213432366032004E0236E20221343F3
:101CA0002366032002B070BD236E202213432366F7
:101CB0000320F7E710B5041E5ED0002383625D3376
:101CC000C35C002B4CD05D230222E25422681368CF
:101CD00040218B431360E368E022D200934245D950
:101CE0000022F02109018B4205D0E021C9008B427E
:101CF00001D00021A162216B002905D1E021C9009A
:101D00008B4236D9022323636368A1680B432169A0
:101D10000B4361690B4380218900A06901400B439B
:101D2000E1690B43216A0B432168A06A03430B60FE
:101D3000618B04230B40616A0B43616B0B43E168C9
:101D40000B43216813434B602268D3690B490B4056
:101D5000D361002323665D330122E254002010BDCD
:101D60005C330022C254FEF707FFACE78022520129
:101D7000B7E701232363C7E70120F0E7FFF7FFFF81
:101D8000F0B585B00400019116001F005C23C35C10
:101D9000012B00D1E2E05C230122C254FEF7DAFFFE
:101DA00005005D23E35C012B08D002205D230122A6
:101DB000E254013B0022E25405B0F0BD0199002934
:101DC00000D1BDE0002E00D1BCE05C330322E25420
:101DD00000232366A163A687E68723644132A352CA
:101DE0000232A3522365E36480231B02A2689A4255
:101DF0001DD023681A68520603D41A6840210A438A
:101E00001A60E023DB00E2689A4235D96368002B50
:101E100001D0012E1DD12368A26B1288DA60A36B5A
:101E20000233A363E38F013B9BB2E38711E0226897
:101E300011688023DB010B431360DAE7FEF78AFFAA
:101E4000401BB84202D37B1C00D07DE0002F00D1A4
:101E50007CE0E38F9BB2002B5AD023689A689207EC
:101E6000ECD5A26B1288DA60A36B0233A363E38F15
:101E7000013B9BB2E387ECE76368002B01D0012EA6
:101E80002FD1E38F9BB2012B0BD92368A26B128851
:101E9000DA60A36B0233A363E38F023B9BB2E38759
:101EA0001FE0A36B1B7822681373A36B0133A3633A
:101EB000E38F013B9BB2E38713E0A36B1B781373A3
:101EC000A36B0133A363E38F013B9BB2E38708E07D
:101ED000FEF740FF401BB84201D37B1C38D1002FD6
:101EE00038D0E38F9BB2002B12D0226893689B07F7
:101EF000EED5E38F9BB2012BDFD9A36B1B88D36098
:101F0000A36B0233A363E38F023B9BB2E387E8E753
:101F10002A0039002000FFF799FE002801D0202375
:101F20002366A368002B06D103932368DA68039223
:101F30009B680393039B236E002B0DD1002035E794
:101F4000012033E7012031E703202FE703202DE7AD
:101F500003202BE7032029E7012027E702202BE7B6
:101F6000F0B583B004000E0001921D005C23C35C39
:101F7000012B00D157E15C230122C254FEF7EAFE97
:101F800007005D23E35CDBB26268012B14D0822181
:101F900049008A4208D002205D230122E254013B1D
:101FA0000022E25403B0F0BDA268002A00D02CE168
:101FB000042B01D00220EFE7002E00D127E1019B86
:101FC000002B00D125E1002D00D124E15D23E35C4D
:101FD000042B02D05D230522E25400232366019ADC
:101FE00022644622A552023AA552A663E587A58738
:101FF000E3642365E023DB00E2689A4201D8012D07
:1020000023D92268536889490B40536023681A68B2
:10201000520603D41A6840210A431A60E023DB0009
:10202000E2689A4256D96368002B01D0012D0AD18B
:102030002368A26B1288DA60A36B0233A363E38F79
:10204000013B9BB2E387012524E02268516880238D
:102050005B010B435360D9E723689A68D20710D518
:102060004622A25A92B2002A0BD0DB68226C13805F
:10207000236C023323644622A35A013B9BB2A35232
:102080000125FEF767FEC01B089B984202D301336F
:1020900000D0C2E0E38F9BB2002B05D14633E35A58
:1020A0009BB2002B00D1A4E023689A689207D3D595
:1020B000E28F92B2002ACFD0012DCDD1A26B12882F
:1020C000DA60A36B0233A363E38F013B9BB2E38728
:1020D0000025C1E76368002B01D0012D0ED1E38FED
:1020E0009BB2012B0CD92368A26B1288DA60A36B18
:1020F0000233A363E38F023B9BB2E387012546E0F3
:10210000A36B1B7822681373A36B0133A363E38F64
:10211000013B9BB2E387F1E7E28F92B2012A0BD930
:10212000A26B1288DA60A36B0233A363E38F023BD6
:102130009BB2E38700253DE0A26B12781A73A36B74
:102140000133A363E38F013B9BB2E387002531E0BA
:102150002268516880235B010B43536001250BE02B
:102160001B7B226C1370236C013323644622A35A19
:10217000013B9BB2A3520125FEF7ECFDC01B089B5F
:10218000984201D301334AD1089B002B49D0E38FF9
:102190009BB2002B04D14633E35A9BB2002B28D0CC
:1021A00023689A68920705D5E28F92B2002A01D07F
:1021B000012DB1D023689A68D207DDD54622A25AF4
:1021C00092B2002AD8D04622A25A92B2012AC7D986
:1021D000DB68226C1380236C023323644622A35AEB
:1021E000023B9BB2A352A35A9BB2012BB0D901254B
:1021F000C2E73A0008992000FFF728FD002800D127
:10220000CAE6202323660120C6E60220C4E6012098
:10221000C2E60120C0E60120BEE60320BCE60320A2
:10222000BAE60320B8E60220BCE6C046FFEFFFFF97
:102230000268136806490B401360026893682331F3
:10224000FF318B439360202383670023036670472D
:10225000DFFEFFFF10B50268136840218B43136057
:102260002023436700234366FEF708F910BD0000F2
:1022700070B504000168CB6908688D684D4A1A4042
:102280000AD19E0608D5860606D5236E002B00D1FE
:102290008BE02000984788E0002A78D001222A406D
:1022A00003D190256D00284271D0DD0706D5C50504
:1022B00004D501250D62E16F2943E167990708D52F
:1022C000002A06D0216802250D62E16F02352943FC
:1022D000E167590708D5002A06D0216804250D6258
:1022E000E16F023D2943E167190709D5810601D451
:1022F000002A05D0226808211162E26F0A43E267D2
:102300001A0509D5420107D5226880210901116209
:10231000E26F20210A43E267E26F002A45D09B0664
:1023200006D5830604D5236E002B01D020009847E4
:10233000E26F23689B685B0602D42823134220D0F7
:102340002000FFF775FF23689A68520615D59A6832
:1023500040218A439A60E36E002B0AD0164A5A63E2
:10236000E06EFEF794FD00281FD0E06E436B9847A7
:102370001BE02000FEF784F817E02000FEF780F84D
:1023800013E02000FEF77CF80023E3670DE01A0657
:1023900007D5020605D5636E002B06D020009847AE
:1023A00003E05B0601D5430600D470BD2000FFF7B3
:1023B00051FFFAE70F080000BD23000810B5406A7E
:1023C00000235A228352083A8352FEF759F810BD6F
:1023D00010B5040083680269134342691343C2695C
:1023E000134301680A686448024013430B60226883
:1023F000536862490B40E1680B435360226AA3694A
:102400001A4321688B685E48034013438B605D4B21
:102410001A6B03231340012B24D0002B05D0022B71
:1024200022D0032B22D0102300E0002380221202AE
:10243000E16991421CD0022B00D17EE065D9042BCA
:1024400000D186E0082B00D08FE063685808802315
:102450001B029C4660446168FDF756FE03041B0C9A
:1024600000205FE00423E1E70823DFE70223DDE744
:10247000022B2ED010D9042B37D0082B42D1636801
:10248000580880235B029C4660446168FDF73CFE6F
:1024900003041B0C00200DE0002B33D1FFF70AF9D9
:1024A000400063685B08C0186168FDF72DFE0304F7
:1024B0001B0C002034491A00103A8A4258D80F22C7
:1024C000190091435B08083A13400B432268D3601C
:1024D0002FE0636858082D4B9C4660446168FDF707
:1024E00013FE03041B0C0020E4E7FFF70DF8400087
:1024F00063685B08C0186168FDF706FE03041B0CE7
:102500000020D7E701200023D4E7002B2DD1FFF7CF
:10251000D1F863685B0818186168FDF7F5FD0304DE
:102520001B0C002018491A00103A8A4222D822684F
:10253000D36000232366636610BD63685808144B9C
:102540009C4660446168FDF7DFFD03041B0C00201E
:10255000E8E7FEF7D9FF63685B0818186168FDF7C4
:10256000D3FD03041B0C0020DCE701200023D9E786
:102570000120DEE70120DCE7F369FFFFFFCFFFFF6B
:10258000FFF4FFFF00100240EFFF00000024F40002
:1025900000127A00436ADB0706D5026853682C49AB
:1025A0000B40816A0B435360436A9B0706D5026860
:1025B000536828490B40C16A0B435360436A5B0769
:1025C00006D50268536824490B40016B0B435360E6
:1025D000436A1B0706D50268536820490B40416BCC
:1025E0000B435360436ADB0606D5026893681C49B7
:1025F0000B40816B0B439360436A9B0606D50268D0
:10260000936818490B40C16B0B439360436A5B06A8
:102610000BD50268536814490B40016C0B4353609F
:1026200080235B03026C9A420AD0436A1B0606D5DC
:10263000026853680D490B40816C0B43536070472F
:10264000026853680A490B40416C0B435360ECE746
:10265000FFFFFDFFFFFFFEFFFFFFFBFFFF7FFFFF11
:10266000FFEFFFFFFFDFFFFFFFFFEFFFFFFFF7FFC2
:10267000FFFF9FFFF0B5C64600B505000C00170030
:102680009846069E2B68DB6923401B1B5A42534128
:10269000BB423AD1731CF5D0FEF75CFB4346C01A2F
:1026A000B0421FD8002E1DD02B681A685207E9D5FA
:1026B000DA691205E6D5802212011A622A681368C7
:1026C00014490B4013602A689368A331FF318B4390
:1026D000936020236B67AB67EB6750330022EA54AB
:1026E000032013E02A6813680A490B4013602A6824
:1026F0009368A331FF318B43936020236B67AB67F3
:1027000050330022EA54032000E0002004BC90462D
:10271000F0BDC0465FFEFFFFF0B585B004000E00BF
:1027200017001D00436F202B5FD1002960D0002AC5
:1027300060D080235B0182689A4218D07023E35CEA
:10274000012B59D070230122E2540023E367213387
:102750006367FEF7FFFA03905023E7520233E75214
:1027600080235B01A2689A4208D0002719E0036920
:10277000002BE3D1CB07E1D5012037E02369002B03
:1027800001D000270DE0370000260AE03B88DB057A
:10279000DB0D2268138502375222A35A013B9BB2FC
:1027A000A3525223E35A9BB2002B0FD00095039BF8
:1027B000002280212000FFF75DFF00281ED1002E9F
:1027C000E4D03378226813850136E5E70095039B52
:1027D000002240212000FFF74DFF002810D12023C8
:1027E000636750330022E25400E0022005B0F0BDE0
:1027F0000120FBE70120F9E70220F7E70320F5E7D6
:102800000320F3E730B583B004000023C367FEF76D
:10281000A1FA050023681B681B070CD423681B68FA
:102820005B0715D420236367A36750330022E2546B
:10283000002003B030BD80210C4B00930300002228
:1028400089032000FFF716FF0028E7D00320F0E7F8
:102850008021064B00932B000022C9032000FFF7C4
:1028600009FF0028DED00320E3E7C046FFFFFF0199
:1028700010B5041E2ED0436F002B21D02423636794
:102880002268136801218B4313602000FFF7A0FD2D
:10289000012814D0636A002B18D1226853680E49AE
:1028A0000B4053602268936808218B439360226831
:1028B000136807390B4313602000FFF7A3FF10BD17
:1028C00070330022C254FEF789F9D7E72000FFF7E2
:1028D00061FEE2E70120F2E7FFF7FFFF70B5002697
:1028E0000C4D0D4C641BA410A64209D1002600F02B
:1028F00021F80A4D0A4C641BA410A64205D170BDF4
:10290000B300EB5898470136EEE7B300EB58984711
:102910000136F2E79C2900089C2900089C29000840
:10292000A029000803001218934200D170471970C3
:102930000133F9E7F8B5C046F8BC08BC9E467047BD
:0C294000F8B5C046F8BC08BC9E467047C5
:10294C005330300000000000533031000000000014
:10295C00533032000000000002030405060708098A
:10296C000A0B0C0D0E0F10100102030405060708CC
:10297C00090A0B0C0D0E0F100000000000000000E7
:10298C000102030406070809000000000102030409
:04299C00E900000846
:0429A000C10000086A
:1029A400FFFFFFFFFFFF000000127A00010000009C
:0429B400040000001B
:0400000508000C796A
:00000001FF
