:020000040801F1
:1000000098D80220C10101089D9C0108758C010847
:10001000619C0108250801087DC20108000000005C
:10002000000000000000000000000000DFBA01082E
:100030008D1F010800000000119D010885BD010809
:10004000DB010108DB010108DB010108DB0101081C
:10005000DB010108DB01010879450108DB0101082A
:10006000DB010108DB010108DB010108DB010108FC
:10007000DB010108DB010108DB010108DB010108EC
:10008000DB010108DB010108DB010108DB010108DC
:10009000DB010108DB010108DB010108A9450108BA
:1000A000DB010108DB010108DB010108DB010108BC
:1000B000DB010108DB010108DB010108DB010108AC
:1000C000DB010108DB010108DB010108DB0101089C
:1000D000DB010108DB01010841C00108DB01010867
:1000E0008F45010861A00108DB010108DB0101085F
:1000F000DB010108DB010108DB010108DB0101086C
:10010000DB01010839A80108DB010108DB01010856
:10011000DB010108DB010108DB010108DB0101084B
:10012000DB010108651E01088D1E0108B51E0108CE
:10013000B91E0108DB010108DB010108DB01010830
:10014000DB010108DB010108DB010108DB0101081B
:10015000DB010108DB010108DB010108DB0101080B
:10016000DB010108DB010108DB010108DB010108FB
:10017000DB010108DB010108E10B0108DB010108DB
:10018000DB010108DB010108DB010108DB010108DB
:10019000DB010108DB010108DB010108DB010108CB
:1001A00079990108DB0101083D1E0108DFF80CD038
:1001B00000F06EFA004800473BFD010898D8022085
:1001C0000648804706480047FEE7FEE7FEE7FEE7F1
:1001D000FEE7FEE7FEE7FEE7FEE7FEE7BDBD01083E
:1001E000AD01010810B5431A934209D2831888184B
:1001F00003E010F8011D03F8011D521EF9D210BDD5
:1002000040EA01039B0703D009E008C9121F08C098
:10021000042AFAD203E011F8013B00F8013B521E18
:10022000F9D210BDD2B201E000F8012B491EFBD279
:1002300070470022F6E710B513460A4604461946F1
:10024000FFF7F0FF204610BD30B505462A460B46A5
:1002500012F8010B13F8014B08B1A042F8D01CB101
:10026000002802D06D1CF1E7284630BD10B50446C9
:1002700004E00B7800F8013B03B1491C521EF8D290
:10028000204610BDCAB2401E10F8011F8A4202D09B
:100290000029F9D100207047421C10F8011B0029E9
:1002A000FBD1801A704710B5002200E0521C835C1D
:1002B0008C5CA34201D1002BF8D1D8B2E1B2401A34
:1002C00010BD30B504460020034600E05B1C93429D
:1002D00003D2E05CCD5C401BF8D030BD034611F882
:1002E000012B00F8012B002AF9D11846704730B5D0
:1002F00005460020034600E05B1C934205D2EC5CFF
:10030000C85C201A01D1002CF6D130BD70B506466C
:100310002AF082F9046805460A220021304600F0DE
:1003200022F92C6070BD2DE9FE4F804681EA030062
:10033000C00F0C46009021F0004123F00045B8EBBF
:100340000200A94105D24046214690461C460B4674
:10035000024623F00040104347D0270DC7F30A00A0
:10036000C3F30A510290401A019040286BDAC3F39C
:10037000130040F4801B0098924620B10023D2EB7A
:10038000030A63EB0B0B01985946C0F1400250463B
:1003900000F0B8F806460D4650465946019A00F05E
:1003A000D0F810EB08006141002487EA115284EA7A
:1003B000E7731A4340D0009A62B3019A012A4FEAC8
:1003C000075215DC001B61EB02014FF0004202EA0C
:1003D0000752CDE90042001C41F5801132462B4600
:1003E00000F008F903B0BDE8F08F40462146F9E778
:1003F000001B61EB0201001C41F5801300185B41FA
:100400002018A2F5001747EB030140EAD570B61992
:100410006D4111E06D084FEA360645EAC0754FEAB6
:100420000752001B61EB0201001C41F580114908D5
:100430004FEA30000019514132462B4603B0BDE867
:10044000F04F00F0C8B80098012240000023D0EB24
:10045000020263EBE073009821464FEAE074B8EBC8
:10046000000061EB0401E9E783F000435BE781F002
:10047000004158E770B5C1F30A5201F0004500246D
:10048000C1F3130140F2FF3341F480119A4201DAC3
:10049000002070BD40F233439A42A2F2334203DCA3
:1004A000524200F03EF800E090402C43F1D0404230
:1004B00070BD00F0004230F000400AD0C10D01F5DF
:1004C0006071C0F3160042EA0151C20840071143AF
:1004D000704700200146704730B50B4601460020AA
:1004E0002022012409E021FA02F59D4205D303FAF6
:1004F00002F5491B04FA02F52844151EA2F1010277
:10050000F1DC30BD202A04DB203A00FA02F10020A1
:1005100070479140C2F1200320FA03F31943904041
:100520007047202A04DB203A21FA02F000217047AC
:1005300021FA02F3D040C2F120029140084319464B
:100540007047202A06DBCB17203A41FA02F043EA33
:10055000E07306E041FA02F3D040C2F1200291407C
:100560000843194670472DE9F04791460F468046EB
:100570000446002614F8015B2DB100F09BF80068DA
:10058000405DC007F6D12B2D02D02D2D18D0641E52
:100590004A463946204600F091F827B13968A14211
:1005A00001D1C7F8008071054FF002040BD540421D
:1005B000002803DD2AF030F80460A007BDE8F087CA
:1005C00046F48066E4E70028F8DA2AF025F80460AB
:1005D0006FF00040F2E710B5141E73F1000408DA62
:1005E000401C41F1000192185B411A4301D120F0F7
:1005F000010010BD2DE9F04D92469B4611B1B1FAB4
:1006000081F202E0B0FA80F220329046FFF77AFFE2
:1006100004460F4640EA0A0041EA0B0153465A4697
:10062000084313D0114653EA010019D0C8F1400223
:100630005046FFF776FF05460E465046594642465D
:10064000FFF760FF084305D0012004E0204639464B
:10065000BDE8F08D0020054346EAE0762C433743A1
:100660000A986305E40AA0EB08000022FD0A44EAA8
:1006700047540A3002D500200146E9E70105101968
:100680006941DDE9084500196941BDE8F04DA2E77F
:10069000064C074D06E0E06840F0010394E80700CF
:1006A00098471034AC42F6D3FFF784FD08300508B4
:1006B0003830050800487047088C04082DE9F05FC1
:1006C00082460078002715468B460AF10104B94698
:1006D000302801D09DB113E014F8010B01277828D0
:1006E00003D0582801D045B10AE00DB1102D07D133
:1006F0000027102514F8010B02E0082500E00A2568
:100700000026B0460EE005FB080005FB06F10127B8
:1007100001EB10461FFA80F8B6F5803F00D3B946CA
:1007200014F8010B294600F018F80028EBDABBF1A9
:10073000000F05D00FB1641E00E05446CBF8004016
:10074000B9F1000F06D029F067FF02210160C81E31
:10075000BDE8F09F48EA0640FAE73A2800D2303870
:1007600020F02002412A01D3A2F13700884201D3B0
:100770004FF0FF30704770B58C1810F8015B15F022
:10078000070301D110F8013B2A1106D110F8012B03
:1007900003E010F8016B01F8016B5B1EF9D12B0728
:1007A00005D40023521E0DD401F8013BFAE710F8DE
:1007B000013BCB1A921C03E013F8015B01F8015BCB
:1007C000521EF9D5A142D8D3002070BDF8B50D4610
:1007D0001946144606460CF0BCFF054F6B463046E2
:1007E000394622460DF05BFA2F600098F8BD00BF35
:1007F000BC0E00201CB508200121082409F0E4FAF1
:1008000006486946CDE90040054C204604F0B8F999
:100810002046082101F0CDFB1CBD00BF01020001F4
:10082000000C0240AE20992103F01EBF044A21B102
:1008300010F8013B01391360F9E71068704700BFF9
:100840000030024001480121016070470830024039
:100850002DE9F04F8BB01422ADF82220ADF82820FE
:10086000A0F11402ADF824204FF01413ADF82620A7
:10087000A1F114020693ADF81C20ADF81E2002224F
:1008800090FBF2F0634EADF82A0091FBF2F0654D5B
:100890000DF10E0A0DF104080FF28C1B4FF0000948
:1008A000ADF82000B9F1050F44D0594816F0DAFA36
:1008B000002016F0D1FA14F015FF6FF07F40B0471A
:1008C00006A830F919700DF1220030F919403946A7
:1008D00020460A2215F06AFB0020B0472046394620
:1008E000052215F063FB6FF07F40B04704F114015F
:1008F00049A03A4615F0FCF8287A28B9642015F08A
:100900001DF816F0F9FEF7E74FF4FA7015F016F837
:10091000D5E900012AF81900002028F819102872DA
:1009200014F0E0FE584621463A4615F0E1F809F188
:100930000109B7E714F0D6FE3E4C3CA0A047BDF934
:100940000E803D4E40460421B0473CA0A047BDF973
:1009500004000421B047DFF8ECB0D8473AA0A04724
:10096000BDF910A004215046B04739A0A047BDF9F9
:10097000069004214846B047D84737A0A047BDF9A4
:1009800012000421B04736A0A047BDF90870042129
:100990003846B047D84734A0A047BDF91400042119
:1009A000B04733A0A047BDF90A000421B047D8479B
:1009B00031A0A047BDF916000421B04730A0A047E0
:1009C000BDF90C000421B047D8472FA0A047287AD2
:1009D00028B9642014F0B2FF16F08EFEF7E74FF44A
:1009E000FA7014F0ABFF002000214FF4F072434680
:1009F000CDF800A016F0EAFD012000214FF4887226
:100A00004B46009716F0E2FD0BB0BDE8F08F00BF3B
:100A100064BA03085D6E02085072657373206865DE
:100A200072650000943E00204F4B000078303A2061
:100A300000000000F1590208A55902082020793071
:100A40003A200000D559020878313A200000000011
:100A5000202079313A20000078323A20000000004E
:100A6000202079323A20000078333A20000000003C
:100A7000202079333A20000078343A20000000002A
:100A8000202079343A200000506C65617365207431
:100A90006F75636820646973706C617920746F206E
:100AA000636F6E74696E75652E2E2E0010B5444905
:100AB0000446086810F0450FFBD041073AD4C00740
:100AC0003DD109F093FEA0423ED140F2FF5009F023
:100AD00055FE0020002409F0A3FE2D49084234D021
:100AE000002834D4410034D4810034D4C10034D43B
:100AF000010134D4410134D4C10134D4010234D4CD
:100B0000410221D4810232D4C10232D4010332D451
:100B1000410332D4810332D4C10332D4010432D42C
:100B2000410432D481044FBF192400071A2101EA7D
:100B3000E0740AE0042009F021FE032405E001200E
:100B4000012409F01BFE00E01024204610BD1C24E7
:100B5000FBE70924F9E70A24F7E70B24F5E70C245F
:100B6000F3E70D24F1E70E24EFE70F24EDE711245E
:100B7000EBE71224E9E71324E7E71424E5E715245B
:100B8000E3E71624E1E71724DFE71824DDE700BFD9
:100B900008E0FFFD10B50A49086810F0450FFBD0CA
:100BA000410707D410F001044FF0010008BF40F2E4
:100BB000FF5001E00324042009F0E0FD204610BDB1
:100BC000342C014001490860704700BF14000550F3
:100BD00002490968084018BF0120704710000550FD
:100BE00080B50820FFF7F4FF10B10820FFF7EAFFF7
:100BF0000120FFF7EDFF20B10120BDE88040FFF7A5
:100C0000E1BF80BDFEB5012016F00EF94FF07F4028
:100C100016F022F914F066FD4FF0C44016F01EF9EC
:100C2000324C7820412140F2DB126923A047052095
:100C300041217322E123A0470520E62140F2DB1287
:100C40004FF48773A0472A482A4900780A682A4C3B
:100C500042F00103C02808BF22F001030B60A06826
:100C6000C0F3001001F0A4F8022540F60100234F64
:100C7000CDE900050A20F02150221E23B847234E5B
:100C80001FA12062B04740F60200CDE90005872091
:100C9000F02150221E23B8471DA1E061B04740F665
:100CA0000300CDE900054FF48270F02150221E238D
:100CB000B84719A1A062B04740F60400CDE900058D
:100CC0004FF4C370F02150221E23B8476062A16820
:100CD00013A2090614A158BF1146B0470020A07006
:100CE000A06840F48070A060FEBD00BFDD5F020818
:100CF0008D0C0020D40C0020040D0020213A0208A5
:100D000053657474696E6773000000003F3D02080C
:100D1000546F6F6C73000000436F6E74726F6C00E1
:100D2000556E6C6F636B00004C6F636B00000000CE
:100D3000FEB5002016F090F8002016F08FF8822003
:100D400000214FF4C372F02315F048F9022540F654
:100D500019004E4ECDE900058C2032213C223C2367
:100D6000B0474B4C4C4F4BA16063B84740F61A005C
:100D7000CDE90005C82032213C223C23B04747A1E1
:100D8000A063B84740F61B00CDE900054FF4827020
:100D900032213C223C23B04741A1E063B84740F6F2
:100DA0001C00CDE900054FF4A07032213C223C2309
:100DB000B0473CA12064B84740F61D00CDE90005CE
:100DC0008C206E213C223C23B04737A16064B84799
:100DD00040F61E00CDE90005C8206E213C223C23D0
:100DE000B04732A1A064B84740F61F00CDE9000526
:100DF0004FF482706E213C223C23B0472CA1E0646A
:100E0000B8474FF40260CDE900054FF4A0706E21A1
:100E10003C223C23B04727A12065B84740F621007B
:100E2000CDE900058C20AA213C223C23B04722A119
:100E30006065B84740F61800CDE90005C820AA2132
:100E40003C223C23B0471DA12063B84740F6220056
:100E5000CDE900054FF48270AA213C223C23B04723
:100E60001749A065B84740F62300CDE900054FF4C7
:100E7000A070AA213C223C23B04712A1E065B847EC
:100E8000A06840F02000A060FEBD00BF213A02082B
:100E9000040D0020310000003F3D02083200000038
:100EA0003300000034000000350000003600000070
:100EB000370000003800000039000000300000005A
:100EC0001A2B05083C42434B000000002DE9F04F6F
:100ED00087B0002015F0C0FF14F004FC02214FF48D
:100EE00025600022CDE90020CDE902120A200A2166
:100EF0004FF4E672912319F0A3FB844C864D84A233
:100F000032210E236060A847606884A2CD210E23A1
:100F1000A847606886A2CD210E23A84760680121FA
:100F200019F019FD6068012119F012FD4FF6DC710E
:100F30004FF420604FF0000B4FF002090A27814D5B
:100F4000CDF800B0CDE90190CDE903710A20B921B7
:100F500050221E23A8477C4EDFF8F0A164213065A3
:100F6000D047306DDFF8E881FA210122C047306DAB
:100F7000784C0221A04740F60120CDF800B0CDF812
:100F80000490CDE902074FF6DC7004908720B92168
:100F900050221E234FF0000B4FF002094FF6DC7772
:100FA000A847FA2101227065C047706D6421D047BF
:100FB000706D0221A04740F60220CDF800B0CDE9C7
:100FC00001900A20CDE903070A20F02150221E23B8
:100FD0004FF0000B4FF6DC79A847FA210122F066AA
:100FE000C047F06E6421D047F06E0221A04740F662
:100FF0000320022102900A20CDF800B00191CDE932
:1010000003098720F02150221E230227A847FA2136
:1010100001223067C047306D6421D047306F022114
:10102000A0470F2004214FF430620023CDE90037A0
:101030000293CDE9032105904FF48270A5215A2235
:1010400000234FF000081AF039F9464C42A1002263
:10105000F065A047F06D44A10122A047F06D45A1C5
:101060000222A047F06D47A10322A047F06D0321A3
:101070001AF046FA40F60500454C009002274FF45E
:10108000C370B92150221E230197A047434D41A1AF
:10109000F064A84740F60600CDE900074FF48270DF
:1010A000F02150221E230227A0473DA1B066A84789
:1010B00040F60700CDE900074FF4C370F02150223D
:1010C0001E23A04739497067A847394815F0CAFE62
:1010D000384C0A20A821A0473B4D37A0A8478720BD
:1010E000A821A04739A0A8470A20DF21A0473AA09D
:1010F000A8478720DF21A0473AA0A8473C48052100
:10110000817080F8008007B0BDE8F08FFC0D0020F2
:101110004164647265737300A3A20208486172643B
:10112000776172652056657273696F6E000000000A
:101130004669726D776172652056657273696F6E6C
:101140000000000061BC0208800D002051BF0208B1
:101150008DBE0208FDBE020846696E6420464952F3
:1011600053540000B9B4020846696E64204E4558D5
:101170005400000046696E6420414C4C204E455797
:101180000000000046696E6420414C4C00000000E5
:10119000213A02085343414E000000003F3D02083F
:1011A000534554204144445245535300B32B050842
:1011B00064BA030821620208535441525420414446
:1011C0004452455353000000F1590208454E442053
:1011D00041444452455353004F4C442041444452EF
:1011E000455353004E455720414444524553530004
:1011F000040D00202DE9FE4F002015F02DFE14F007
:1012000071FA4FF47F4015F029FE022140F60D00DF
:10121000E84CCDE900010A20F02150221E234FF0B6
:10122000020AA047E44EE549E54DF066A847F06E96
:101230001BF080FD40F60A00CDE9000A8520F02170
:1012400050221E23A047DF497066A84740F60C00D5
:10125000CDE9000A4FF48270F02150221E23A047EE
:10126000D949B066A84740F60B00CDE9000A4FF413
:10127000C370F02150221E23A047D4493066A847EE
:101280004FF405600026DFF848B3CDE900600A207E
:101290006E2150221423CDF808A0D847CD4FCE4D53
:1012A0004FF47F41B860A847B868CF4CCBA1A047A6
:1012B000DFF83883B868D8F80010DFF83493C1F34A
:1012C0000031C84740F651000096CDE9010AC82018
:1012D0004121642214230026D8474FF47F41F8604F
:1012E000A847F868C349A047D8F80010F868C1F3C8
:1012F000C021C84740F652000096CDE9010A40F2ED
:1013000063102321602214230026D8474FF47F4125
:101310003861A8473869B849A047D8F8001038693B
:10132000C1F30021C84740F653000096CDE9010AF9
:1013300040F263103C21782214230026D8474FF452
:101340007F417861A8477869AC49A047D8F8001078
:101350007869C1F34021C84740F65400CDE90060E8
:1013600040F263106E2160221423CDF808A0D84704
:101370004FF47F41B861A847B8699F49A047D8F8A2
:101380000010B869C1F38021C8474FF410609C4E2B
:101390004FF010088DE801050A2023216422142350
:1013A000B047854D9749DFF860922867C847286F96
:1013B000964CFA210122A04740F601108DE8010564
:1013C0000A203C2164221423B0479149A867C847EA
:1013D000A86FFA210122A04740F602108DE801050E
:1013E0000A205521642214232546B047DFF82482C1
:1013F0008949C8F80000C847D8F80000FA2101223E
:10140000A047052140F603108DE803040A20AA2115
:1014100032221423B04707F12204804FC8F8040099
:10142000204600215422B8477D48DFF8F8B10188F2
:1014300020460022D847D8F804002146CA46C847AB
:10144000D8F80400FA210122A84740F604100090C1
:10145000052001904FF002090A20C32132221423F3
:10146000CDF80890B047C8F8080020460021542263
:10147000B8476D48002201882046D847D8F80800B0
:101480002146D047D8F80800FA210122A84740F6A3
:101490000610009005200190C820AA2132221423B2
:1014A0002F460525CDF808904FF00209B0475F4957
:1014B000C8F80C000131D047D8F80C00FA210122FD
:1014C000B84740F607108DE8210240F26310AA21C8
:1014D00032221423B047514BC8F810002046002197
:1014E000542298475248002201882046D847D8F80D
:1014F00010002146D047D8F81000FA210122B84741
:10150000152040F60511CDE90010C82023217822CE
:101510001423CDF80890B047FA210122C8F814002E
:10152000B847444815F09EFC434C05200F21A047C6
:101530004248434DA84773202521A04741A0A84712
:1015400073203E21A04743A0A84773205721A047FE
:1015500044A0A847C3200F21A04745A0A8474FF4A7
:10156000AF700F21A04745A0A8474FF4AF705A2194
:10157000A04745A0A84705209621A04745A0A84719
:101580004320AD21A04747A0A8474320C621A0473C
:1015900049A0A847C3209621A0474CA0A8474FF4D4
:1015A000AF709621A0474CA0A8470349012088703E
:1015B000BDE8FE8F213A0208040D0020EE2B05083D
:1015C0003F3D02081A2B0508F32B0508D92B050807
:1015D000393E0208FC0D0020AB400208444843504D
:1015E00020636C69656E7400634002086C560120CC
:1015F0002B400208B82B0508E02B0508C72B05086F
:101600007F430208200C00205D4702084D44020879
:10161000480C0020800D0020340C002031FF010810
:10162000A20C002015920108A00C00203007002019
:101630007456012064BA0308216202086F2B050862
:10164000F15902084950763420416464726573731D
:10165000000000004465662E20476174657761795B
:10166000000000005375626E6574204D61736B005D
:101670004441544520262054494D45004854545077
:10168000205345525645520054465450205345521B
:1016900056455200525334383520494E544552462F
:1016A00041434500496E746572666163652041641B
:1016B000647265737300000042726F6164636173EA
:1016C0007420416464726573730000005041535389
:1016D00053574F524400000053595354454D20492D
:1016E000440000002DE9F04385B000204FF00008D1
:1016F00015F0B2FB13F0F6FF6FF07F4015F0AEFB74
:10170000022640F61500564FCDE90006BE200A21FC
:101710003C223C234FF00A09B847524D564C52A187
:10172000E862A04740F61300CDE900064FF496703A
:101730000A213C223C23B84750A12862A04740F62A
:101740001700CDE900064FF4CD700A213C223C235E
:10175000B8474DA16864A0474FF40160CDE9000689
:10176000BE2055213C223C23B8474BA1A861A0478D
:1017700040F61100CDE900064FF4967055213C2249
:101780003C23B84747A16862A04740F61200CDE964
:1017900000064FF4CD7055213C223C23B84745A1AB
:1017A000A862A04740F61600CDE900064FF49670F7
:1017B000A0213C223C23B84742A12864A04740F620
:1017C0001400CDE900064FF4CD70A0213C223C234B
:1017D000B8473FA1E861A04741A0BE21A02214F074
:1017E00087F94FF6DC7040F60421CDE90086CDE99B
:1017F00002190490BE20B421502228231AF030FA96
:101800006421A8671AF0A4FBA86F02211AF076FBE6
:1018100040F61800CDE900064FF4C370F0215022C5
:101820001E23B8473149A864A0474FF43A60CDE978
:101830000086CDE902800A200A21A0224FF482739B
:101840001AF0B7FD0121A8631AF060FEA86B012110
:101850001AF062FEE4480321817005B0BDE8F08310
:10186000213A0208800D00207553440A46494C4530
:10187000204C4953540000003F3D0208555044415C
:1018800054450A46570000004C4F41440A43545205
:101890004C204C49535400004255530A5343414E87
:1018A00000000000494D4147450A55504C4F414406
:1018B000000000004649524D572E0A55504C4F41EA
:1018C000440000007553440A464F524D41540000F5
:1018D000444953504C41590A43414C4942522E000D
:1018E000434F4E54524F4C4C45520000B32B050809
:1018F000B0B5BD4C444D206AA847E069A847A06A2E
:10190000A847606A2946BDE8B0400847B0B5B64C64
:101910003D4D206BA847606BA847A06BA847E06BC4
:10192000A847206CA847606CA847A06CA847E06C4B
:10193000A847206DA847606DA847A06DA847E06D37
:101940002946BDE8B0400847B0B5A6482E4D4068CE
:10195000A847AB4C206DA847606DA847E06EA8472C
:10196000206FA847E06DA847E06CA847A06EA84785
:10197000606F2946BDE8B040084700BF70B5ED4C28
:10198000214EE06EB047606EB047206EB047A06E4B
:10199000B047944DA868B047E868B0472869B04799
:1019A0006869B047A869B047206FB047A06FB047DB
:1019B000934C2068B0476068B047A068B047606942
:1019C000B047E068B04720693146BDE8704008473D
:1019D000B0B58B4C0C4DA069A847E069A847206AB8
:1019E000A847606AA847A06AA847E06AA847206C91
:1019F000A847606CA847A06CA847A06FA847A06B39
:101A00002946BDE8B04008474DCC020810B5044651
:101A10003348807800B110BD7820412140F2DB12BC
:101A2000692313F06DFE4FF0C44015F017FA7820CB
:101A3000412140F2DB12692314F0D0FA002015F0A6
:101A400065FA022015F06CFA264815F00BFA6FF0D3
:101A50007F4015F003FA7D20502114F0E1FB22486D
:101A600013F0C6FF2148008813F09FFF042C15D007
:101A7000052C15D0132C1ED0142C1ED0152C1ED0C6
:101A8000472C1ED0482C1ED0B12C1ED0D12C1ED0DD
:101A9000B32C1ED0B22C1FD141481BE03D4819E0A9
:101AA0001BA013F0A5FF1C481C490088085C13F01C
:101AB0007CFF1BA00EE038480CE035480AE01BA074
:101AC00008E02CA006E022A004E009A002E02F48D4
:101AD00000E0324813F08CFFBDE8104014F044BA27
:101AE000040D002044C50308082C05089E0C0020A6
:101AF00020555044415445204641494C202D204614
:101B0000494C45205359532E204552524F52000004
:101B100020494D41474520009A0C00209C0E002092
:101B2000205550444154452052554E0020465720E0
:101B3000555044415445204641494C202D20545293
:101B4000414E5346455220204552524F520000000C
:101B50002046494C45205550444154452046414972
:101B60004C202D205452414E534645522020455280
:101B7000524F52002046494C45205550444154454F
:101B8000205355434345535300000000982B05084C
:101B90007F2B05081D2B0508212B0508552B050853
:101BA000362B0508B0B50F4C00216068002518F0F1
:101BB000C4FB60680C4C0DA32278012118F0E5FEEF
:101BC0000E4800214FF400720EF0B2F90C482221A9
:101BD00085654163207801302070BDE8B04014F085
:101BE000C3B900BFFC0D0020040D002044452D3278
:101BF00030303231365F3033000000007CC30020CB
:101C0000800D0020BCB514F015FB002015F00CF978
:101C1000002015F023F913F065FD444844490022E3
:101C20000BF0EEFE58B9444844490CF00DF830B9B9
:101C3000434844A101220BF009FF00286AD03D4827
:101C4000806820F010003B4C3949A0600020002241
:101C50000BF0D6FE012015F0E7F84FF07F4015F0AD
:101C6000FBF813F03FFD3B4819F012FC3A4812F024
:101C70004FF83A481AF034F914201AF02BF96FF0A3
:101C80007F4019F013FC012012F026FD344815F0B6
:101C9000E9F86FF07F4015F0E1F80220022515F019
:101CA0003FF978206E2140F263121923009519F054
:101CB0001CF800216422E06019F0EBF8E0680021D4
:101CC000002219F073F9E06801216FF07F4219F0EA
:101CD0006DF9E068234A002119F0B8F8E068224A5B
:101CE000012119F0B3F8E068022119F04FF9E0681A
:101CF0001E4919F0BFF8E0681DA119F0F5F8E06879
:101D00001C4919F0DFF8E0681BF05CFBBDE8BC4043
:101D1000FEF778BF0E480A490022002313F076FB35
:101D20000448806840F010008DE700BFECBB002045
:101D3000DE290508040D002088B90020DC290508EB
:101D400048C0002042434B5F474E442E424D500056
:101D5000CD070108B9B30208BD3A020819BE02084E
:101D6000D0D5030880FF8000D3D3D30040B203084E
:101D700030250000C9AD020810B501280DD0B0B95A
:101D80002948C0681BF01EFB78206E2140F2DB1250
:101D90008723BDE8104013F0B3BC234C0021E0685A
:101DA00019F018F9E068BDE810401BF028BE10BD1E
:101DB000B0B5012807D0B0BB1B481D4D8068FF247B
:101DC00020F0100006E01848184D80684FF47F445A
:101DD00040F010001449372288600F2005214B2362
:101DE00013F08EFC28460F21052213F039FF204600
:101DF00015F034F8002015F02FF8002015F090F8B9
:101E00000E2015F083F823203C2114F009FA09482C
:101E100015F028F808A013F0EBFD4FF07F40BDE867
:101E2000B04015F019B8B0BD040D002024C5040859
:101E300010C5040844C5030875534400AFF300807F
:101E4000014802210160704708B00240044A00299D
:101E500011680CBF21EA000008431060704700BF02
:101E600000B00240B0B5074C074D2046294600F0AF
:101E700067F828B120462946BDE8B04000F03EB8DA
:101E8000B0BD00BF2864024000880010B0B5074C08
:101E9000074D2046294600F053F828B12046294630
:101EA000BDE8B04000F02AB8B0BD00BF40640240B9
:101EB0000080201009F09ABAB0B5074C074D2046B3
:101EC000294600F03DF828B120462946BDE8B0403B
:101ED00000F014B8B0BD00BF706402402080002044
:101EE000284A02F1100398420B4838BFA2F58062DD
:101EF0000840890054BF9060D0607047214A02F1C9
:101F000010039842044838BFA2F580620840890057
:101F100054BF9060D06070477D0F7D0F026800292C
:101F200042F0010308BF22F001030360704702681A
:101F3000002942F0200308BF22F02003036070470D
:101F4000B0B5104A02F1100398420F4B38BFA2F50A
:101F50008062194204D01E24006804EAD12401E002
:101F6000446980208D0048BF0432126803F1411398
:101F70001940114018BF0121204018BF012008401E
:101F8000B0BD00BF006402403C0F3C0F70471CB561
:101F9000019002F0A5FE00240090019840B102F0EB
:101FA0009FFE0099401A0199884228BF0194F4E7E6
:101FB0001CBD41837047704710B50B0607D54369B8
:101FC000002A43F0800408BF23F080044461802984
:101FD00008D001F01E01002A02680CBF22EA0101AC
:101FE0001143016010BD80B54FF00070012107F072
:101FF000F7FE4FF000700021BDE8804007F0F0BE12
:10200000000000000000000026012011000001086F
:102010002DE9FE4F05460138072800F297830C464C
:10202000DFE800F0040404305070A1E6002014F052
:1020300015FF822000214FF4B472322313F0CEFF3B
:10204000DFF8580714F00EFF6FF07F4014F006FF22
:10205000022014F065FF4F2C00F01381422C40F059
:102060002A81DFF8441748790138032800F2B48246
:10207000DFE810F00400A0029302A302CB78DFF89F
:1020800070079CE2002014F0E9FE822000214FF44A
:10209000B472322313F0A2FFDFF8000714F0E2FE5F
:1020A0006FF07F4014F0DAFE022014F039FF4F2C5D
:1020B00040F0B680DFF8E8061C30FEF727F9DFF8BD
:1020C000141748E2002014F0C9FE822000214FF4CA
:1020D000B472322313F082FFDFF8C00614F0C2FEA0
:1020E0006FF07F4014F0BAFE022014F019FF4F2C5D
:1020F00040F09680DFF8A8061C30FEF707F9DFF8FD
:10210000D01628E20020002514F0A8FE822000212D
:102110004FF4B472322313F061FFDFF8800614F03D
:10212000A1FE6FF07F4014F099FE022014F0F8FE3B
:102130004F2C75D1DFF8747600217C1C20460622D6
:102140000DF0F6FEDFF8580680F8215000F11C056E
:102150002846FEF7A1F80646C2B220462946FEF7F9
:1021600041F83E70F8E14F2C02D0422C40F0B7818C
:102170000020002514F072FE822000214FF4B4727A
:10218000322313F02BFFDFF8140614F06BFE6FF010
:102190007F4014F063FE022014F0C2FE4F2C00F0CA
:1021A000E681422C40F0C482DFF8FC45DFF8F08580
:1021B000E078002608EB000100280E7700F0A282EC
:1021C000DFF8087601380021B425E070C2B29142F0
:1021D000796380F2988201EB810005EBC00001B2C7
:1021E0002A200F2213F0D6FB796BE0780131EDE75E
:1021F000002014F033FE822000214FF4B472322309
:1022000013F0ECFEDFF8940514F02CFE6FF07F4025
:1022100014F024FE022014F083FE4F2C00F096816F
:10222000422C11D1DFF88005DFF87445C278002117
:10223000A3181977002A0FBF0022013AC270D2B248
:1022400004F11C00815459E0A4F13000C0B2092807
:1022500050D8DFF85405DFF84855C1786A1814776C
:102260004A1CC270D2B2062A28BFC17005F11C00F8
:10227000FEF74CF8286096200F2113F0D1FF286854
:1022800027E2DFF8246570790138032800F2AB817A
:10229000DFE810F00400B2018601BC01DFF8500550
:1022A000FEF734F8DFF8F814012D086040F0C9811A
:1022B000DFF82815B3E1A4F13000C0B2092826D810
:1022C000DFF8E41448790138032800F28581DFE85B
:1022D00010F00400C001CA01D401CA78DFF810056B
:1022E000531CCB70DBB2042B8454C0F07181DFF837
:1022F0000005CBE1DFF8A84404F12200FEF706F860
:10230000206096200F2113F08BFF2068E1E1DFF8B9
:10231000E054DFF8F0642846002154220027B0473B
:10232000DFF8C8B4002158465422B047DFF8B8940B
:10233000002148465422B047DFF89C8400214046E3
:102340005422B047DFF860A4DFF854648AF80370C1
:1023500056FA87F090F82210781CA1F130020A2A70
:1023600003D2FAB2A9540746F2E700218AF8030023
:1023700056FA80F292F822200130A2F130030A2BA3
:1023800004D2CBB20BF803200131F1E700218AF827
:10239000030056FA80F292F822200130A2F13003B5
:1023A0000A2B04D2CBB209F803200131F1E7002156
:1023B0008AF8030056FA80F292F82220A2F1300344
:1023C000092B07D8CBB2013008F803208AF80300A4
:1023D0000131EFE7DFF8185400274FF000088AF8C2
:1023E000057056FA88F090F822008AF80380303899
:1023F0000A281BD25FFA88F0A04206D80127284697
:102400008AF80570FDF782FF306008F10108E8E7FF
:102410005FFA88F0A04209D8DFF8D00302278AF8D3
:1024200005708AF80380FDF771FF306008F101083C
:1024300056FA88F090F8220030380A28E8D3DFF8FE
:10244000A8938AF8038008F1010856FA88F090F8FA
:10245000220030380A280DD25FFA88F0A042F2D864
:10246000032748468AF805708AF80380FDF74EFF77
:102470003060E8E7DFF860B38AF8038008F101080C
:1024800056FA88F090F82200303809280DD85FFA03
:1024900088F0A042F2D8042758468AF805708AF8D6
:1024A0000380FDF733FF3060E8E700208AF803007F
:1024B0004FF0FF3050FA87F0DFF83023032800F2A6
:1024C0000381DFE800F002E7EFF80020C1B2695CA9
:1024D000002900F0F98001308AF80300F6E7A4F142
:1024E0003000C0B2092800F22381AF4DE87848B926
:1024F000002014F0B3FC822000214FF4B472322388
:1025000013F06CFD6FF07F4014F0A8FC022014F073
:1025100007FDA24814F0A6FCE878042809D800EBCF
:102520008000B42101EBC0012A200F2213F032FAFF
:10253000E8789B4901440C77411CE970C9B206292F
:1025400028BFE87047F230506861F1E094481C30D1
:10255000FDF7DCFE93490880FFF7D8F9FEF74AFE45
:102560009148816821F020018160BDE8FE8F8F498C
:102570008B4811F8012B80F821501C30FDF7B7FE75
:10258000002800F0C7808AA096210F2213F0B0FA2D
:102590008548806820F08000C5E0CB7892480EE046
:1025A0009148FDF7B3FE7E49012D086040D18B496B
:1025B000023134E0CB788D4801E0CB7886480022A8
:1025C000C25413B15A1ECA70D2B2811800220A70C6
:1025D000FDF79CFE7249086096200F2113F020FE43
:1025E0006F48006875E0012D1AD0022D00F0BB8005
:1025F000032D00F08080C6E07C48FDF787FE684927
:10260000012D086069D17549013108E07248FDF774
:102610007DFE6349012D086066D170490331087061
:10262000774C0021204614220DF082FC6B48A0E07C
:10263000022D00F08D80032D40F0A5806849023105
:1026400058E0022D00F08780032D40F09C80644903
:1026500050E0CA786548531CCB70DBB2042B84541D
:10266000B6D3624812E0CA785F48531CCB70DBB225
:10267000042B8454ACD35C4808E0CA785648531CF9
:10268000CB70DBB2042B8454A2D353480023835471
:10269000CA709DE70020C1B2515CA9B101308AF82F
:1026A0000300F8E70020C1B219F8011061B1013050
:1026B0008AF80300F7E70020C1B21BF8011019B136
:1026C00001308AF80300F7E796200F2113F0A8FDE8
:1026D0003068BDE8FE4F13F068B9022D3DD0032DE0
:1026E00051D13F49013105E0022D39D0032D4AD1A6
:1026F0003B49033108703F4C14212046FDF799FDFA
:10270000374836E0002047F2305158FA80F06161D6
:1027100006770DE02AA096210F2213F0E9F922484E
:10272000806840F0800020494FF47A724A618860E6
:102730001D4C207A000644BF47F23050A0610020B3
:1027400014F0EEFBA06840F04000A060BDE8FE8FF2
:102750002449023106E0234904E02249013101E025
:10276000204903310870254C14212046FDF761FDF6
:102770001C48027843788178C078CDE900101E4962
:10278000204627F035FFFFF7C1F8FEF733FDB068AC
:1027900020F02000B060BDE8FE8F00BF00FD030800
:1027A000FC0D002074560120040D0020300700208D
:1027B00057524F4E472050415353574F52440000F9
:1027C00050415353574F5244204F4B00800D00202F
:1027D000A00C0020A20C0020C4550120140C0020E5
:1027E000180C00201C0C0020705501201C550120E5
:1027F000C8540120340C0020D0290508480C0020C2
:10280000200C002031FF01082DE9F04385B002F0D3
:1028100067FADFF82C7C3969401A0A28C0F0408535
:1028200002F05EFA386114F067FF13F09DFBB87890
:10283000052800F23285DFE810F00600630033055A
:1028400079008C00A200786980B9B86841060DD57E
:1028500020F04001B960810604D520F06000B86026
:10286000FFF754F8FFF744F8FEF7CCF9B86948B918
:10287000B868010606D520F08000B860FFF738F888
:10288000FEF7C0F900F01CFEF86911F033FA10B140
:10289000387A00061CD4386A11F02CFA10B1387A54
:1028A000000621D4786A11F025FA002800F00C8186
:1028B000387A800600F10881786A11F01BFA002846
:1028C00000F05E8214F018FF322013F037F8F3E7BF
:1028D000F86911F00FFA002800F0508114F00CFF95
:1028E000322013F02BF8F3E7386A11F003FA0028CE
:1028F00000F0BF8114F000FF322013F01FF8F3E75F
:1029000000F0DEFD386E11F0F5F9002849D0387A74
:10291000800646D4386E11F0EDF9002800F03381BE
:1029200014F0EAFE322013F009F8F3E7DFF8144B55
:10293000A06911F0DFF9002800F0A480A06911F06F
:10294000D9F9002841D014F0D7FE322012F0F6FF5A
:10295000F4E7387A800640F19884386B11F0CAF9B0
:10296000002800F0B381386B11F0C4F9002800F0A2
:102970000D8114F0C1FE322012F0E0FFF3E7DFF822
:10298000C44AE06C11F0B6F9002800F08C80E06CCD
:1029900011F0B0F9F8B114F0AFFE322012F0CEFF12
:1029A000F5E7786E11F0A6F9002857D0387A80063E
:1029B00054D4786E11F09EF9002800F0808114F054
:1029C0009BFE322012F0BAFFF3E7FFF701F8FEF7A3
:1029D0007DFA00F05ABC206D19F06BFA6063606DEF
:1029E00019F067FAA065E06D18F042FD2066A38E2D
:1029F000B4F85810C2B2184603F076FA411C022906
:102A00006066C0F04284216E41F00101032940F06C
:102A1000B481DFF8348A0A250026002800F03584C6
:102A2000D8F80010F0B231F810000122411C6063A8
:102A3000A16589B203F058FA012802D1FFF7B2F874
:102A400003E0013D280604D10A25606E01360138F5
:102A50006066642012F072FF606EDEE7B86E11F0FF
:102A600049F9002877D0387A800674D4B86E11F00E
:102A700041F9002800F0A88114F03EFE322012F047
:102A80005DFFF3E7E06911F035F9002800F09F8160
:102A9000E06911F02FF900287CD014F02DFE3220CF
:102AA00012F04CFFF4E7A06E11F024F9002800F0BA
:102AB000A081A06E11F01EF900287CD014F01CFE3D
:102AC000322012F03BFFF4E7B86A11F013F910B1AD
:102AD000387A000633D4DFF8C0492078C02840F0A7
:102AE0001981DFF8B8090168C90740F0138101684E
:102AF000732241F0010101604B2005214B2312F0AC
:102B0000FFFDDFF8B4094B21052213F0A9F84FF4BB
:102B10007F4014F0A3F9002014F09EF9002014F077
:102B2000FFF90E2014F0F2F95F203C2113F078FB3E
:102B3000DFF8700914F096F90FF6801049E2B86AD0
:102B400011F0D8F8002800F0B08114F0D5FD322043
:102B500012F0F4FEF3E7F86E11F0CCF8D0B3387A47
:102B6000800637D4F86E11F0C5F8002800F0A38174
:102B700014F0C2FD322012F0E1FEF3E7FEF7B8FEDA
:102B8000FEF7B0FD79E007F0C5F89AE097F8740019
:102B9000302178E3FEF71CFF4FF4F0704FF488719A
:102BA000FDF756FE4FF47A7012F0C8FE12F09AFD4F
:102BB000FEF798FD69E3E06E19F07BF90121A1654C
:102BC0006063206F19F075F96066DFF88008D12125
:102BD00001705AE3DFF8A0587978A878814240F074
:102BE00020813C4654F8700F1AF0DCFB012833D0EA
:102BF0003C4654F8780F1AF0D5FB01282CD0DFF8AA
:102C0000444820681AF0CEFB012825D0DFF834585C
:102C10002C4654F8040F1AF0C5FB01281CD02C4692
:102C200054F8080F1AF0BEFB012815D02C4654F8B2
:102C3000140F1AF0B7FB01280ED02C4654F80C0FD5
:102C40001AF0B0FB012807D055F8100F1AF0AAFBB4
:102C500001282C4640F052832068F86211F019FCDC
:102C60003871F96AF86E002900F04C831AF065F8A3
:102C700016E3FEF73DFEFEF7BDFA47F23050C7E916
:102C80000500B86840F04000B860642012F056FEBD
:102C9000387A800640F104830020F862386B11F026
:102CA00029F828B3386B11F025F828B114F024FD69
:102CB000322012F043FEF5E707203021BDE307F094
:102CC000C3FBFEF75BFEFDF79DFFDEE2786B11F0C4
:102CD00011F8002800F00681786B11F00BF800283D
:102CE00000F0988014F008FD322012F027FEF3E780
:102CF000786B10F0FFFF002800F00381786B10F074
:102D0000F9FF002800F08A8014F0F6FC322012F05F
:102D100015FEF3E72078C028BAD0DFF880070168F5
:102D2000C907B5D00168732221F0010101604B2071
:102D300005214B2312F0E4FCDFF864074B21052248
:102D400012F08EFFFF2014F089F8002014F084F8B0
:102D5000002014F0E5F80E2014F0D8F85F203C2194
:102D600013F05EFADFF83C0714F07CF82078BF28F7
:102D700040F02A810FF230702BE1FEF713FF84E25E
:102D8000387A000600F1AB80FDF7D2FFDFF8C0060D
:102D900000211C30062200240DF0CAF86FF07F409D
:102DA000FC7014F05BF8DFF8DC0614F05BF802202E
:102DB00014F0B6F80FF2D06096210F2212F098FEB0
:102DC00047F2305078615CE707F03EFB65E2206A2D
:102DD00010F090FF002800F0A380206A10F08AFF16
:102DE000002800F0528214F087FC322012F0A6FD79
:102DF000F3E7606F10F07EFF002800F0A280606FA4
:102E000010F078FF00285FD014F076FC322012F02A
:102E100095FDF4E797F87400312134E20720312161
:102E20000BE3DFF82C66787006F12208404600219B
:102E300054220DF07DF8DFF8447640462946022200
:102E4000B8473A2406F12500691C022286F824407E
:102E5000B84706F12800A91C022286F82740B84787
:102E6000DFF81C4642F22000708506F12C00A11C00
:102E70000222B8472E2086F82E0006F12F00611C92
:102E80000222B847302086F8330043F22E20A6F8FD
:102E9000310006F13400E11C0222B847DFF8A40536
:102EA0004146406911F05AFCFAE1FEF721FD00208D
:102EB000C7E90500E9E6F86A002800F0E181396F0A
:102EC00088425ED10120BBE1FEF73EFDFEF70AFC21
:102ED000DFF87C050168A06F19F03AF8D5E1002011
:102EE000B861D5E6B86B10F005FF00284ED0B86B7E
:102EF00010F000FFF0B314F0FFFB322012F01EFDC3
:102F0000F5E7B86B10F0F6FE00284ED0B86B10F065
:102F1000F1FE98B314F0F0FB322012F00FFDF5E74C
:102F2000606A10F0E7FE00285AD0606A10F0E2FEF6
:102F3000002800F0AA8114F0DFFB322012F0FEFC22
:102F4000F3E701AC20460021102210250CF0F0FF21
:102F5000DFF8FC64706817F053FC3060024670685C
:102F600000212346009517F0F1FB2046FDF7CEF92E
:102F7000306095E197F87400322184E10720322116
:102F80005BE2B96F884242D1022059E1F86B10F040
:102F9000B1FE002842D0F86B10F0ACFE80B314F004
:102FA000ABFB322012F0CAFCF5E7F86B10F0A2FE82
:102FB000002843D0F86B10F09DFE28B314F09CFB62
:102FC000322012F0BBFCF5E72078C12803D10FF2C4
:102FD000E04012F00DFD4FF07F4013F03DFF57E64B
:102FE000A06A10F087FEF0B3A06A10F083FE0028FC
:102FF00000F04B8114F080FB322012F09FFCF3E7CD
:1030000097F8740033213EE10720332115E2DFF801
:1030100034140A68904221D1032011E1386C10F079
:1030200069FE002800F09080386C10F063FE50B309
:1030300014F062FB322012F081FCF5E7386C10F0DE
:1030400059FE002800F08E80386C10F053FEF0B16D
:1030500014F052FB322012F071FCF5E74A689042FE
:103060006DD10420ECE0E06A10F044FE002800F08E
:103070008780E06A10F03EFE60B114F03DFB322024
:1030800012F05CFCF5E797F874003421FBE00720B0
:103090003421D2E10020C4E90C00DFF8B803DFF8E6
:1030A000B81300220AF0ACFC002840F0F980DFF8E9
:1030B000AC03DFF8AC130AF0C7FDDFF8A8930028D3
:1030C00089F8000040F0E180A06B0FF29C31009184
:1030D00001210022002319F0D8F9DFF89853DFF816
:1030E0007C8305F10906E063206B294600284FF038
:1030F000010008BF0220606340460AF082FE0028FB
:1031000089F8000040F0D680687A002800F0D2806C
:10311000287A3146C0064FF0000254BF002001203B
:1031200019F08FF901460028206300F0C380D4E92C
:103130000D30E26B19F009F812F016FFD4E78A6837
:10314000904233D105207BE0786C10F0D3FD90B332
:10315000786C10F0CFFD10B314F0CEFA322012F0DC
:10316000EDFBF5E7786C10F0C5FDA8B3786C10F0B6
:10317000C1FDC0B114F0C0FA322012F0DFFBF5E758
:10318000206C10F0B7FDB8B3206C10F0B3FD002830
:103190007BD014F0B1FA322012F0D0FBF4E797F8AC
:1031A000740035216FE00720352146E1CA6890425E
:1031B00042D1062044E0B86C10F09CFD002800F0DD
:1031C0008180B86C10F096FD00286CD014F094FA51
:1031D000322012F0B3FBF4E7B86C10F08BFD00283E
:1031E0007ED0B86C10F086FD002860D014F084FA10
:1031F000322012F0A3FBF4E7606C10F07BFDA8B95D
:10320000A06C10F077FD00284AD0A06C10F072FD81
:10321000002800F0818014F06FFA322012F08EFB4B
:10322000F3E714F069FA322012F088FB606C10F0BA
:1032300061FD0028F5D128E00969884201D1082004
:103240007867834C0020F87004F11C0000210622EE
:103250000CF06EFE22342046002154220CF068FE51
:10326000F86A2146182211F033F9FEF787FB002097
:1032700013F0F2FD12F036FAFDF75AFD0420B87093
:10328000397997F87400FEF7C3FE47F23050C7E96A
:103290000500B86840F04000B860642012F04EFBB2
:1032A00005B0BDE8F08397F874003621EBE70720FE
:1032B0003621C2E0694C20460AF01AFA20460AF08C
:1032C00017FAE2E7F86C10F015FD40B3F86C10F057
:1032D00011FDD0B114F010FA322012F02FFBF5E7F7
:1032E000F86C10F007FD40B3F86C10F003FD80B1EE
:1032F00014F002FA322012F021FBF5E700203871B9
:10330000F862F86E19F016FDCAE797F874003721D5
:10331000B9E70720372190E0FEF75AFBD3E4386D78
:1033200010F0E8FCF0B1386D10F0E4FC98B114F046
:10333000E3F9322012F002FBF5E7386D10F0DAFC09
:10334000F0B1386D10F0D6FC48B114F0D5F9322048
:1033500012F0F4FAF5E797F87400382193E70720A4
:1033600038216AE0786D10F0C5FCF0B1786D10F08E
:10337000C1FC98B114F0C0F9322012F0DFFAF5E781
:10338000786D10F0B7FCF0B1786D10F0B3FC48B177
:1033900014F0B2F9322012F0D1FAF5E797F8740080
:1033A000392170E70720392147E0B86D10F0A2FC01
:1033B000F0B1B86D10F09EFC98B114F09DF9322078
:1033C00012F0BCFAF5E7B86D10F094FC18B3B86DC4
:1033D00010F090FC48B114F08FF9322012F0AEFAE0
:1033E000F5E797F874004F214DE707204F2124E0BF
:1033F000F86D10F07FFC28B947E714F07DF9322012
:1034000012F09CFAF86D10F075FC0028F5D197F8D1
:103410007400422137E7F86D10F06CFC00283FF48F
:103420003FAFF86D10F066FC28B114F065F932205A
:1034300012F084FAF5E707204221FEF7E9FD2FE7B5
:10344000040D0020800D0020CC0C0020920C0020E8
:10345000FC0D0020ECBB0020DE29050888B9002007
:10346000DC29050888C200207553445F43617264FB
:103470000000000070C20020C05301207D8C0108B4
:10348000BC53012000FD0308454E544552205041D5
:103490005353574F524400008D0C0020D40C002091
:1034A000FCC4040844C503084552524F52000000B2
:1034B0002053544F50000000E8C4040852554E00F9
:1034C0002DE9F04385B0854F0120394606F0AEFE68
:1034D000834C0120214606F073FE82488178002942
:1034E00040F0F880804B79781D7882688D4208BF63
:1034F00012F4807500F0EE80197022F480717B4E1A
:1035000081604FF0C440B047052041217322C82399
:1035100012F0F6F8052041217322C82312F05EFD57
:1035200001AD28463946022205F0A8FB3A2005F1F4
:1035300003088DF80600791C4046022205F09EFB28
:103540006B4813F08FFCFF20B0474FF0C44013F0DE
:1035500083FC0E2013F0DAFC3C20642112F060FEA4
:10356000284612F045FA634813F07CFC6FF07F4068
:10357000B047002013F0D4FC0E2013F0C7FC3C2011
:10358000822112F04DFE217805F10209072915D894
:1035900059A0DFE801F00411080A0C0E10060720FC
:1035A000207063A008E060A006E05DA004E059A0E0
:1035B00002E056A000E053A012F01AFAA11C01A8E4
:1035C000022205F05BFB2E208DF8060060780138A2
:1035D000112843D8DFE800F0090E13181D21262B0F
:1035E00030424242424242343B3D6548C8F8030003
:1035F000654829E06248C8F80400624824E00020D9
:1036000088F804005D481FE06C20A8F804005A48C0
:103610001AE05848CDF8070020E0002088F80400A0
:10362000534811E0002088F8040050480CE04D4851
:10363000C8F803004C4807E047A140460A220BE0C7
:103640004348C8F804004348C8F8000006E03DA11C
:1036500000E039A140460922FCF7C4FD01AE304626
:10366000FCF71AFE49494A4F0A2898BF39460846CE
:1036700013F0F8FBFF2013F0F1FB0020002513F0FE
:103680004FFC0E2013F042FC3C20A02112F0C8FD9C
:10369000304612F0ADF93F48E11C01904846022245
:1036A0008DF8085005F0EAFA384613F0DBFB6FF0AE
:1036B0007F4013F0D3FB002013F032FC0E2013F0F8
:1036C00025FC3C20BE2112F0ABFD304612F090F9F3
:1036D00012F04AFC05B0BDE8F08300BFC0530120E2
:1036E000BC530120040D0020370700205D6E020846
:1036F000B01C040868E90308506F6E65646A656C65
:103700006A616B005375626F74610000506574618B
:103710006B000000436574767274616B00000000FA
:103720005372696A6564610055746F72616B000061
:103730004E6564656C6A6100446563656D626172C3
:10374000000000004E6F76656D626172000000003F
:10375000626172004F6B746F53657074656D626166
:103760007200000075737400417567754A756C6965
:103770004A756E694D616A00417072694D6172747B
:1037800075617200466562724A616E7544C50308D0
:10379000D0D5030832302020F8B5DFF868038078F0
:1037A00000B1F8BDDFF86443DFF85C032146542222
:1037B000FCF718FDDFF85853204629465422FCF741
:1037C00011FDDFF85063284631465422FCF70AFD0C
:1037D000DFF84443304621465422FCF703FD2046DF
:1037E000002154220CF0A4FBDFF83063F07831792B
:1037F00041EA002169B1DFF8280390E82C0084E851
:103800002C00027B204600F80C2F002205F002FD60
:103810000AE00FF21031DFF80C034A68C4E9000235
:1038200008892081887AA0722046FCF735FD202186
:103830002154B1780130AE394A2900F24F80DFE8D7
:1038400011F04B004D004D004D004D004D004D005E
:10385000960099009D009F00A300A700A900AB005F
:103860004D00AF0052004D004D004D004D004D0089
:103870004D004D004D004D00B10054005600B30006
:10388000B700BA00BE005A00C000C2005C006A0067
:103890004D004D007B00C6004D007D00C800CA00F1
:1038A0007F00CC00CE00D000D2004D008100D400BB
:1038B000D6008500D800870089008B00DC00E0007E
:1038C0008D008F00E400E8004D00EC00F000910056
:1038D0004D004D0093005701BB4909E0DFF89813F4
:1038E00020440E22A0E0BA499CE0B5495DE0B3490E
:1038F0002044182298E0BA4984E0B84920440F22B5
:10390000FCF770FC2046FCF7C7FC717920440022CC
:1039100005F080FC8AE0804D2846FCF7BDFC7179FB
:10392000B32900F0E880B22900F0E880B1297DD108
:10393000AE4928441B2277E0BC4904E0B7492CE09B
:10394000CB4957E0C44920440D226DE0BF4969E0EE
:10395000B54953E0B34959E0BA495BE0B7494DE096
:10396000B5495FE0A94949E0204476A10EE0204432
:1039700078A150E020447CA11A2255E093494DE003
:10398000A14920440A224FE09E4920440F224BE0E7
:103990009B4947E0994900E0974920440B2243E0C6
:1039A00094493FE0874900E08349204419223BE0E5
:1039B00020447BA109E0204472A11C2234E08C4900
:1039C00028E0854922E08349204417222CE09449CD
:1039D00014E0914926E0A7491CE0A2490EE0A04965
:1039E0000CE09E490AE0A14908E09A4902E09849A2
:1039F00000E095492044142216E091492044122207
:103A000012E09949204415220EE08A4920441322ED
:103A10000AE087492044112206E07E49204416220C
:103A200002E07B4920441022FCF7DCFB2046FCF737
:103A300033FC2218C0F1540110462022FCF7F2FB9F
:103A4000002084F8530078206E214FF4F072DC23BC
:103A500011F056FE002013F059FA4FF07F4013F09A
:103A6000FBF9864D284613F0FDF9854E6FF07F4037
:103A7000B047844F20467D21C822B84725487D2184
:103A8000B422B84722487D21A022B8471F487D2193
:103A90008C22B8471C487D217822B84711F064FF7A
:103AA0007820412140F2DB12692311F029FE4FF00A
:103AB000C440B0477820412140F2DB12692312F064
:103AC0008DFA002013F022FA022013F029FA28467A
:103AD00013F0C8F96FF07F40B0477D20502112F0FD
:103AE0009FFB204611F084FFBDE8F84012F03CBA7D
:103AF00020440FA18FE73B4928447CE73A492844FA
:103B000054E700BF040D002018560120C4550120C1
:103B1000705501201C550120C8540120E8B900202F
:103B2000082C0508484F54454C204354524C000083
:103B300050415353574F524420494E56414C4944EB
:103B40000000000050415353574F52442056414CFF
:103B5000494400004E4F20414444524545535320B0
:103B60004C495354000000007553442043415244D3
:103B700020414444522E204C495354204552524F28
:103B800052000000544845524D4F53544154204E6A
:103B900054432053454E534F52204552524F5200EA
:103BA00046414E434F494C20465245455A494E479F
:103BB00020414C41524D0000A42D0508C82F050896
:103BC000CC2E0508E82E0508F02D05088C2D0508DB
:103BD000042F0508D82D0508F02C0508182C050819
:103BE000C02D05089C2E0508142F0508B02E0508C9
:103BF000DC2C0508982F05084C2F0508402F0508D8
:103C0000302F0508882F05087C2F0508882E050809
:103C1000B82F05088C2C0508042D0508082E05086A
:103C2000502C0508642D0508142E0508542D050890
:103C3000582F05083C2E05086C2F0508502E050846
:103C4000782D0508282E0508642E0508782E05080D
:103C5000642C0508282C0508CC2C05083C2C0508EC
:103C6000A42C0508B82C05083C2D0508782C05085F
:103C7000142D0508282D0508A82F050844C503089C
:103C80005D6E0208F15A0208016821F0010101602D
:103C90000021016041608160C160016121214161B9
:103CA000354988422FD03549884230D0344988423E
:103CB00031D03449884232D03349884233D03349F5
:103CC000884233D03249884233D03249884233D097
:103CD0003149884235D03149884235D0304988420F
:103CE00036D03049884237D02F4988423AD02F49C0
:103CF00088423AD02E4988423AD02E4988423AD159
:103D000031483D2136E02C484FF03D5132E02E48FD
:103D10004FF474612EE02C484FF474112AE02A48C5
:103D20004FF0746126E02848264908E026482449D7
:103D300005E02548214902E023484FF03D5141600C
:103D4000704721483D210AE01F484FF4746106E0A6
:103D50001D484FF4741102E01B484FF07461C0F825
:103D6000001470471448174904E01348144901E04F
:103D70001148124901607047B8640240286002404F
:103D8000406002405860024070600240886002401B
:103D9000A0600240B8600240106402402864024003
:103DA00040640240586402407064024088640240EB
:103DB000A0640240106002400C64024000003D20FC
:103DC000400F00203D0000200860024070B50268EE
:103DD000124B01F10C061A400B6870CE1A432243B5
:103DE0008B6932431A43CB691A430B6A1A434B6AF5
:103DF0001A438B6A1A434B6B1A438B6B1A4302604C
:103E0000CA6A436923F007031A430B6B1A434261E2
:103E100045604A6882608968C16070BD3F801CF05F
:103E20002DE9F041B0B0D720012105F0CDFF4FF4CE
:103E30008040012106F004F8012007F051FE8620A1
:103E4000554D019040F2023001ACDFF850810290F4
:103E500028462146C047524F284601210B22B84729
:103E6000284602210B22B847284607210B22B847D3
:103E70004FF4006005F58066019030462146C0474A
:103E800030460B210B22B8474FF4C04005F5C05611
:103E9000019030462146C04730460D210B22B847DD
:103EA00030460E210B22B847322005F500660190FE
:103EB00030462146C047304601210B22B8473046E4
:103EC00004210B22B847304605210B22B8470820B1
:103ED0000190344805F5E055029028462146C04738
:103EE00028460821FEF765F82F4C00200090009826
:103EF000A04203D2009801300090F8E7284608213C
:103F000000F093FE002000900098A04202D200989A
:103F10000130F8E74FF06060012105F055FFFEF732
:103F200062F800F09FFA00F0CDF80128FBD001AC58
:103F3000204600F0BBFA4FF480402F904FF4005021
:103F40002D904FF480002C904FF480302B904FF048
:103F5000007004212A90299100214FF40012CDE92C
:103F600026112492CDE921104FF400701691CDE96D
:103F7000141112910F910C910B9001200891019056
:103F80002046012100F0BEF818B9A420952100F0C8
:103F90006BFB30B0BDE8F08100000240814B0108AE
:103FA000034C010801020001400D030010B5544903
:103FB00008680268002A02D40268D2051FD4026889
:103FC000002A10D4026892050DD50268D2050AD4E1
:103FD0004A6801241060D1E90023002058609C60E9
:103FE000D2680A6010BD0268002A06D402689205F1
:103FF0005CBF02685FEAC25208D5002010BD496864
:104000004860886801308860012010BD4A68936864
:1040100001339360C0680860EFE700BFF0B5DFF8D8
:10402000E0C000F12004551E002644F2F45E4FF07B
:104030000043CCF80000B2420ED0074644F8203CC2
:10404000AE4238BF274644E907E144F8147C01F248
:10405000F45120340136EEE7034908600CF1080002
:10406000CCF80400F0BD00BF0C900240F0B5E84B66
:10407000541E186000F1200300254FF48016AA4258
:104080000CD0074643F8206CA54238BF1F4643E9D1
:10409000061701F2F45120330135F0E701490860B9
:1040A000F0BD00BF1090024082B00190002000904F
:1040B00001980090009810B100980138F9E702B01B
:1040C00070470000EA48006800F00100704700BF38
:1040D00010B50021C0E901110949D1E90023146894
:1040E000C4F30D44043C04609C68022C144628BFB1
:1040F0001C68A368C0E90132D068086010BD00BF29
:10410000700C00202DE9F04387B004460020E54FF5
:10411000069001903E6902A80D4605F0B7FE824860
:104120000399824B0A1826F01C009A4202D840F0EC
:10413000080015E07E4A7F4B0A449A4202D840F0BC
:104140000C000DE07C4A7D4B0A449A4208D37C4A1D
:1041500011447C4A91428CBF40F0100040F00400B2
:104160003861284600214FF40042002600F0E0F9B3
:10417000002800F0D180B846B94F07F53020FFF78E
:1041800093FF2068F0B30198012101300190284687
:1041900000F044F9400702D40198B842F3D30198E3
:1041A0000026B84200F0B880284600214FF4805223
:1041B000019600F0BDF9002800F0AE8001980121C1
:1041C00001300190284600F029F9800602D40198B8
:1041D000B842F3D301980026B84200F09D802846EB
:1041E0001F21019600F01AF900F01C00042800F0CD
:1041F00097800828464617D14FF480406061002020
:10420000206211E06069216A400840EAD10082B270
:1042100028460021002600F08BF900287CD06FF0A2
:104220007F40FFF741FF46463068474904F10408E4
:1042300000EA010C98E82E01D4E9067041EA0C016D
:1042400011431943294341EA0801D4F820E03943D6
:104250000843616A40EA0E000843A16A04F1600560
:104260000843E16A04F180070843216B0843616B4E
:1042700008433060D4E90E010843216C0843616CA7
:104280000843A16C0843E16C0843216D0843616D4C
:1042900008437060A06D4FF64171B060E06DF06052
:1042A000B06908402ECD104340EA01401843216F09
:1042B00028430843616F254A0843B061D4E91E01D1
:1042C0000843F0616A488169D4E9278901EA020C50
:1042D000ECCFD4E9251E42EA0C021A432A433243AA
:1042E0003A43114341EA0E0141EA080141EA09015A
:1042F000816104F1A4066ECED4F8B840114319438D
:10430000294341EA8601214341F40001016001682B
:10431000012641F080010160304607B0BDE8F0831E
:104320000020606120627EE700D3CEFEBFE1E400A2
:1043300040F1E9FD3F787D0100796CFC005A620292
:10434000001F0AFA7FF0FA020F8120FF233FDEF8F8
:104350000A794B7942EA0322024BC2500968184499
:104360004160704740800240F0B5DFF8A4C0DCF83F
:1043700000201368002B1DD440F2F55398420CD353
:1043800040F2F453B0FBF3F404FB1305ADB2002D7F
:1043900018BF01252C44012C0ED113686FF35F3038
:1043A00043F0405313605060106840F000401060CC
:1043B000D56821E00020F0BD164D661E14FB0500F7
:1043C000002700F2F4506FF35F301546A74213D276
:1043D0001FB9116841F080511160BE426B6004D179
:1043E000296841F00051296068602968013741F06F
:1043F00000412960ED68E9E70748CCF80050016901
:10440000490703D504210161002101600120F0BDAD
:10441000C41F00200CFAFFFF0490024081B000226C
:1044200000924FF4F86202EA811160F3CF21504804
:10443000026802F01C021144013101604D49009AEA
:10444000013200920268D20702D0009A8A42F6D363
:10445000009A8A4214BF4068002080B201B07047C1
:10446000FFFF04000248016841F00101016070474C
:10447000009002400B48016841F0080101600A49C0
:104480000A6842F480120A60026842F00402026084
:10449000086840F400500860086840F002000860B6
:1044A000704700BF008002401890024070B504467B
:1044B0004FF400610025012021624FF48041C4E9DE
:1044C0000005C4E90255C4E9045104F124001C218B
:1044D000C4E90655FBF7ADFE20204021C4E91010C9
:1044E00004F148001C21FBF7A4FE8020606604F163
:1044F00068001821FBF79DFE4FF400104FF0007686
:104500004FF08061C4E92016C4E9225004F1900004
:104510001421FBF78EFE4FF400504FF480014FF44E
:104520008032C4E92962C4E92B10C4E92D5570BD5D
:1045300018B5002300930E4B1C685A604FF4F862C4
:1045400002EA811160F3CF2104F01C00084403301B
:10455000186008480099013100911968C90702D014
:1045600000998142F6D30099081A18BF012018BD9E
:1045700010800240FFFF040080B5012000F03CF8ED
:1045800020B10120BDE8804000F032B880BD80B588
:104590004FF4006000F030F828B14FF40060BDE83F
:1045A000804000F025B880BD10B52020202400F008
:1045B00023F8B8B94020402400F01EF890B98020BC
:1045C000802400F019F868B94FF480704FF48074BB
:1045D00000F012F830B94FF400704FF4007400F09E
:1045E0000BF820B12046BDE8104000F001B810BD26
:1045F00004490860704700BF02490968084018BFB5
:1046000001207047143C014010B582791549E2B190
:1046100002680B6893430B604B6893434B600379CC
:104620000B431C6822431A6002688B6893438B60BB
:10463000CB689343CB60407910280ED18868104333
:104640008860C8681043C86010BD027900681143D3
:104650000A6822EA0000086010BD0843016811439F
:10466000016010BD003C0140912918BF02F088FC98
:1046700008F05AFA094A102809D0B0F5805F05D031
:10468000B0F5807F14BFF432203200E04032106871
:104690000840401AB0FA80F040097047640000A05A
:1046A00010B590E80E006FF01F04C06804EB4313D0
:1046B0001143194341EA40200149086010BD00BF81
:1046C000500100A02DE9F047D0E900643B49D0E952
:1046D00002A7D0E9049ED0E9068351F82620056A96
:1046E00047F6FF7C2B4322EA0C021C43224342EA9A
:1046F0000A023A4342EA090242EA0E02456A42EAE3
:10470000080242EA050456B143EA05020B6823EAAF
:104710000C031A430A60026841F8224000E00C6072
:10472000D0F800E0846A01F1080C5CF82E60A36800
:10473000D4E900576FF0FF0202EB03226FF00F0382
:1047400003EB0713013D2B4343EA020506F07046D5
:10475000BEF1000F1AD0D4E9032C6469184B51F84C
:10476000087F03EB0453174C04EB023207F070444C
:1047700022431A43144B0A6045EA060203EB0C433A
:1047800000681A4341F82020BDE8F0870C3445EA60
:1047900006001ECC0B4D05EB013108430A4901EB25
:1047A00002410843064901EB03510843611E40EAF8
:1047B00001604CF82E00BDE8F08700BF400100A06A
:1047C0000000F0FF00F0FFFF0000FFFF02490A6851
:1047D00042EA400008607047540100A010B586B05E
:1047E0004FF40010012105F013FB0220012105F018
:1047F000EBFA1B481B4C0590C020049004A92046EE
:1048000000F0BEF920460621042200F0FAF9204605
:104810000721042200F0F5F94FF48040ADF80C00B8
:104820001148A4F5D8340190104869460090002042
:104830000290204604F05CFC2046012104F0E9FBD4
:104840004FF47A70FDF7A3FB70200021002200F0E6
:104850002FF918B900F0B2F806B010BD08F048F909
:1048600002020100000402400000FFBFA086010018
:104870002DE9F84F002B50D0BF4E8B468146304675
:1048800001219A46904604F007FCBC4F6FF4405457
:104890003046394604F012FC10B90134F8D33CE03C
:1048A000BAF10101304618BF012104F0A9FB3046DE
:1048B0004946002204F07BFC6FF440547D1C3046D6
:1048C000294604F0FBFB10B90134F8D325E0308B06
:1048D00038466FF4405700F17F043046214604F01B
:1048E000EDFB10B90137F8D317E030465946CDF843
:1048F000008004F064FCA14F6FF4405807F1030BF3
:104900003046214604F0DAFB20B13046594604F027
:10491000D5FB28B918F10108F2D30120BDE8F88FC2
:104920003046012104F0B8FB6FF44054304639465C
:1049300004F0C4FB20B901344FF00100F6D33AE093
:1049400030464946012204F032FC6FF440543046B0
:10495000294604F0B3FB20B901344FF00100F6D32F
:1049600029E0308B002507F13F0455451ED005F1A5
:104970000108D04507D33046002104F041FB304602
:10498000012104F092FB6FF440573046214604F0B9
:1049900095FB20B901374FF00100F6D30BE030460C
:1049A00004F002FC009948554546DEE730460121F7
:1049B00004F026FB0020BDE8F88F00BFB0B588B03A
:1049C0006C4620462021FBF734FC71200021224652
:1049D0001F23FFF74DFF9DF80200B34900F00F00C1
:1049E000421E042A087560D8DFE802F04B3927150B
:1049F00003009DF813209DF814309DF8154002F037
:104A00000F029DF8165043EA02220A8204F00F02B8
:104A100045EA02224A829DF80F209DF810309DF849
:104A2000114002F00F029DF8125043EA02228A81DF
:104A300004F00F0245EA0222CA819DF80B209DF87E
:104A40000C309DF80D4002F00F029DF80E5043EA25
:104A500002220A8104F00F0245EA02224A819DF8EF
:104A600007209DF808309DF8094002F00F029DF8DC
:104A70000A5043EA02228A8004F00F0245EA022229
:104A8000CA809DF803209DF804309DF8054002F08F
:104A90000F029DF8065043EA02220A8004F00F023A
:104AA00045EA02224A8008B0B0BD0020FBE700BF03
:104AB0002DE9F843304C90468946054620464FF490
:104AC000003104F0FBFA0028F8D12046012104F05F
:104AD000E3FA2A4E6FF440572046314604F0EEFACE
:104AE00010B90137F8D33DE020462946002204F0F2
:104AF0005EFB6FF44057751C2046294604F0DEFA31
:104B000010B90137F8D32DE0208B6FF4405706F130
:104B10007F052046294604F0D1FA10B90137F8D3B1
:104B200020E02046494604F04AFB6FF440572046F7
:104B3000294604F0C3FA10B90137F8D312E0204631
:104B4000414604F03CFB6FF44057033620462946AB
:104B500004F0B4FA20B12046314604F0AFFA20B98F
:104B60000137F3D30120BDE8F8832046012104F08A
:104B70009CFA0020BDE8F8830054004001000010BA
:104B80002DE9F043D1F8008000234FF0010E4FF0E3
:104B9000030C0026102E08BFBDE8F0830EFA06F7BE
:104BA00018EA070F2AD004680CFA03F5AC43046036
:104BB0000C79026804FA03F942EA09020260621EF3
:104BC000ED43012A12D882682A4082604A7991F81E
:104BD000069084689A40224382604268BA434260E9
:104BE00009FA06F2446892B222434260C2682A403F
:104BF000C260CA79C4689A402243C2600233013657
:104C0000C8E7B0B51C236FF0030503EA810305EA8A
:104C1000510108440F24016A9C40A143016202FA39
:104C200003F1026A11430162B0BD01837047002A9B
:104C30000CBF4183018370477047000010B5FFF738
:104C4000BDFE68B1174C40F2011020811648418822
:104C50000088C4E90010204612F0A2FD206810BDB3
:104C600010484FF48071018112F09AFD002010BDB0
:104C700010B5FFF7A3FE68B10A4C40F20110208185
:104C8000094841880088C4E90010204612F088FDD8
:104C9000606810BD03484FF48071018112F080FDFF
:104CA000002010BD943E00207A56012002484FF4A7
:104CB000001110F0ADB800BF000060D006490A68CE
:104CC00010440A689042FCDC704700BF7047000047
:104CD00001480068704700BF68200020704700004E
:104CE00001480068704700BF70560120B0B51E48EB
:104CF0001E49002208F084FE08B1B120B0BD1C4856
:104D00001CA108F0A1FF30B118490020002208F0D2
:104D100077FEB220B0BD184C18A120460122012513
:104D200008F094FE30B111490020002208F068FE1E
:104D3000B320B0BD8C48FBF7E9FAC1491122488283
:104D40008A480021A0F80120E26822F07F03D409FC
:104D5000934238BF05EBD214C0E90114C1600120B1
:104D6000FDF70AF8B020B0BDECBB0020DE29050835
:104D700088B900202F00000048C000204E45572E63
:104D800042494E002DE9F04F85B075487549002223
:104D900008F036FE08B1B120C9E06C46204600217B
:104DA00010220BF0C5F8704D2846FBF7AFFADFF87C
:104DB000788FDFF8E4B8A8F812009BF81400632895
:104DC0001AD12F258DF80050B8F81000D8F84410EB
:104DD000002231F81010601C4FF0000904F01AFA9C
:104DE0006648214608F030FF50B35E49002000229B
:104DF00008F006FEB2209AE05D4E2846B0472844EF
:104E0000451C2846FBF782FA04902846B047024624
:104E100044F64950ADF8000047208DF80200E01C30
:104E20002946FBF7DFF92046B047524901222150BD
:104E30005148214608F00AFE002872D104983FE04C
:104E40002046002110220BF073F8B8F81000D8F8B3
:104E50004410DFF82CA131F8101020460022D04772
:104E6000434E2046B047204400F8015BB8F81010CC
:104E7000D8F8442032F811100022D0472046B0471D
:104E800020445F2120F8011BB8F80E10002259447D
:104E900091F82810D0472046B04725182846B0473B
:104EA000344901222950284480F804903248214690
:104EB00008F0CCFDA8BBB8F80E00584490F82800C4
:104EC000633000278BF815000497FBF7BBFC2A4CD6
:104ED000254D04AECBF82470C8F85470E0688742C2
:104EE00014D0204629464FF40072334608F0D7FE0E
:104EF000DBF8240004990844CBF824002846FBF78B
:104F000095FCC8F85400DBF82470E7E71A4C2046FB
:104F100008F0E0FB694620460122012508F096FDD5
:104F200040B110490020002208F06AFDB32005B00E
:104F3000BDE8F08F00208BF81600A8F82600E16885
:104F400021F07F02CB098A4238BF05EBD113CBE9B0
:104F50000603CBF820000120FCF70EFFB020E6E7A7
:104F6000ECBB0020DE2905087CC30020740E002065
:104F7000990201082E52415748C0002088B90020EC
:104F8000159201082DE9FC412D4E002001AC7083E3
:104F9000B083B0813082F083F064C6E910003084C1
:104FA0002046002104220AF0C3FF4FF6FC70214680
:104FB000042206F083FC019840F6FE7107BA781EC1
:104FC000884284BFB320BDE8FC817C00A5B228469E
:104FD0000AF058FFF06468B300212246B7830AF054
:104FE000A7FF28460AF04EFF306418B3002122467E
:104FF000F7834FF000080AF09BFF28460AF042FFB3
:105000007064B8B10021224637840AF091FF01ACE8
:10501000002597B1284621460222ADF8048006F00B
:105020004DFCBDF80410F06C09BA090C4153013F66
:105030000235EEE7B420BDE8FC81B020BDE8FC817C
:105040008C0C00202DE9F047DFF8D4A78146012021
:10505000DE4C8AF800008AF806908AF80500608A1B
:105060008846000A8AF80100608A8AF80200E08A0D
:10507000000A8AF80300E08A8AF80400A9F1C30054
:105080001C282CD8DFE810F05B00650165016D007D
:1050900065016501650165016501650165016501E0
:1050A00065014C007900A300650165016501AB0055
:1050B0001D001D0065014C00AD005900590065013F
:1050C0003B004046FBF7E8F840440130FBF71EF98F
:1050D0008AF808000321000A8AF805102AE0B9F1CD
:1050E000440F00F09B80B9F1480F00F0B280B9F195
:1050F000510F00F01781B9F1520F40F02A8140465C
:10510000FBF7CAF84044451C2846FBF7C5F806469D
:105110000AF1070029463246FBF764F8701C16E1D5
:105120004046FBF7B9F84044022101308AF80510E7
:10513000FBF7ECF88AF807000BE10D2007E1404689
:10514000FBF7AAF84044411C00200A5C002A00F04A
:10515000F5800AEB000301303B2ADA71F5D1073004
:10516000F1E009208AF80500D8F80000D8F804100A
:10517000CAF80700CAF80B10EBE00820944E8AF832
:1051800005004046B0474044451C924F2846B8476A
:1051900000BA000CAAF807002846B0472844451C6E
:1051A0002846B84700BA000CAAF809002846B047BC
:1051B0002844451C2846B84700BA000CAAF80B0042
:1051C0002846B047284440788AF80D00C1E00A20FC
:1051D0008AF805000AF1070041460922A9E00420E7
:1051E000B5E04046FBF758F8404400F1010840465E
:1051F000FBF752F80AF107050646C0F110010F2827
:1052000028444FF0580288BF0021FBF70BF82846CE
:1052100041463246FAF7E6FF112098E04046FBF798
:105220003BF8013007250746002800F0858008EB91
:1052300007063046FBF76AF80AF805003046FBF728
:105240002BF83844471C08EB0700FBF725F801351D
:10525000EAE75F4E4046B0474044451CDFF87481A2
:105260002846C0478AF807002846B0472844451C0E
:105270002846C04700BA000CAAF808002846B047E4
:105280002844451C2846C04700BA000CAAF80A006A
:105290002846B0472844451C2846C04700BA000CA1
:1052A000AAF80C002846B0472844451C2846C047A9
:1052B00000BA000CAAF80E002846B0472844451C46
:1052C0002846C0478AF810002846B0472844451CA5
:1052D0002846C0478AF811002846B0472844451C94
:1052E0002846C0478AF812002846B0472844451C83
:1052F0002846C0478AF813002846B0472844451C72
:105300002846B04706460AF1140029463246FAF705
:1053100069FF06F10F008AF805005AFA80F00021B3
:10532000417116E016208AF805000AF1070041468F
:105330001522FAF757FF0CE0A81F08E00AEB00015E
:105340000022CA71083000210AF8001005388AF8D6
:105350000500D6499AF805000978092919D10128CC
:1053600005D0411E5044427942720846F7E7E920D1
:105370008AF806008AF80A90E0788AF807009AF816
:1053800005008AF8090004308AF80500A1788AF837
:10539000081000212183062151FA80F1C0B20AF1E0
:1053A0000602034633B112F8015B268B013B3544FC
:1053B0002583F7E7228B5044120A0AF801200421C2
:1053C0000172218BC171BDE8F08700BF8C0C0020F9
:1053D000990201080D0301082DE9FC41DFF8B882AC
:1053E00098F816001E2803D3482088F8150004E01A
:1053F00098F815004738012810D8A84808F06AF92D
:10540000A84900200022002508F0FAFAA64888F8EA
:1054100015500570CC480570BDE8FC81D8F818001F
:1054200008B3C948DE4D007809284ED10120287004
:105430009A4805F10C0101AB802208F030FCE9200C
:10544000D949A871C8789DF80420E871901D0232EE
:1054500068716A7289782972D8F818100A0AAA72D3
:1054600005F10B0261E04FF4FA70FCF790FDEC4996
:1054700001200870B4480078092839D14EF60F1081
:10548000A1F805000B204872E748C278CA7198F865
:1054900015208A7282780A72804AD26812BAC1F8DC
:1054A0000D20B8F81C2012BA120CA1F80B20426D86
:1054B000120E4A74426D120C8A74426D120ACA743A
:1054C00001F11402416D0F202FE002202870734873
:1054D00005F1080101AB802208F0E1FB9DF8040012
:1054E000D8F8181002300A0A6871AA71EA1D1CE087
:1054F00098F815200B2048718A71684ACA4BD26807
:1055000012BAC1F809205A6D120E4A73B8F81C205D
:1055100012BA120CA1F807205A6D120C8A735A6D38
:10552000120ACA7301F11002596D1170BE490026AA
:105530004A8A130ABA4A53704B8A9370CB8ACD8A2F
:105540001B0A0E83D370062353FA80F3C0B2157181
:10555000951D064636B115F8017B0C8B013E3C4487
:105560000C83F7E70C8B6425240AD454D8E906345D
:1055700010446B43B3FBF4F30C8B0422CB84027214
:10558000C47147480068C98C15F024FDBDE8FC8152
:10559000F8B5414CA0781E2802D31520607008E0B1
:1055A00060781138042844D8DFE800F02B35120366
:1055B00003003A4808F08EF83A49002000220025FE
:1055C00008F01EFA3848657005705F480570F8BD30
:1055D00093488221417102210170A18804F11003D6
:1055E00009BA090CC18000F108012C48802208F09A
:1055F00056FB606801281CD14FF4FA70FCF7C7FC19
:1056000017E087484BF60141A0F805100121017011
:10561000122060700DE082484BF60371A0F805106F
:105620000121017013216170218909BA090CA0F8C8
:1056300007107D490025488A020A794842704A8A43
:105640008270CA8ACB8A120A0D83C27003714279B2
:10565000851D02F1060C164636B115F8017B0B8B41
:10566000013E3B440B83F7E70B8B64251B0A00F8D4
:105670000C30D4E9013410446B43B3FBF4F30C8BCE
:105680000422CB840272C47105480068C98CBDE84D
:10569000F84015F09FBC00BF740E002048C00020E9
:1056A000100D0020DE290508211F0020201F0020EA
:1056B000B0B5F54890F859101E2903D31E2180F883
:1056C0005810B0BD90F858101F2904D0202906D1D9
:1056D0005349D32301E05249A3238B7101E0504980
:1056E0008B794F49012404220C704A7200220B72FC
:1056F000CA714C71458A2D0A4D70458A8D70C58AD4
:105700002D0ACD70C58A0D710F4D2D78D5B14EF68D
:105710000515A1F805508B724C72C378CB71837854
:1057200002830B72052A06D08B189B79048B0132F9
:1057300023440383F6E704224A73028B120ACA72D7
:10574000008B0873B0BD00BF201F0020344801212A
:105750000170042141720749C0F80510E5494A8AE1
:10576000120A42704A8A8270CA8A120AC270C98AB0
:105770000171704701A000A0294801210170042196
:1057800041720849C0F80510DA494A8A120A427083
:105790004A8A8270CA8A120AC270C98A0171704725
:1057A0009056012001A100A18C0C002010B51C48CE
:1057B000012101704DF20851A0F8051019490A782D
:1057C0004B788C78C978047243728172C949002A77
:1057D0008B8A4FEA132343708B8A837008BF07229A
:1057E000C271CA8A114B120AC270CA8A02711A782F
:1057F000C2725A78027300220A839B784373082A84
:1058000006D083189B790C8B013223440B83F6E777
:10581000042202740A8B120A8273098BC17310BDB1
:1058200090560120BC5301208C0C0020C053012055
:10583000B0B5944800214FF400720AF079FBAD4CEA
:1058400094F868000238042800F2DE80DFE800F0F7
:10585000038C2C446700E16EA220B1F5803F0A461C
:1058600038BFA0203F2928BF3F228A1A3F3222F0AA
:105870003F02521A02F14005824AABB289B203F0EC
:105880003DFB0F20FCF783FBE06E6349626F284409
:105890000F31884240F2AB800121B2F5807F18BF02
:1058A00005214FF48070A6E0764AA0204FF4807165
:1058B00040234FF4807503F021FB0F20FCF767FBBA
:1058C000022184F868105448616EC4E91B106567B2
:1058D000B4F86A00043895E0D4E91B1208463F2961
:1058E00028BF3F20081A3F3020F03F0000F140035E
:1058F0001032934261D2401A00F14005614AA22061
:10590000B1F5803F89B2ABB238BFA02003F0F6FA00
:105910000F20FCF73CFB032084F8680043E0E16EB5
:10592000A220B1F5803F0A4638BFA0203F2928BFFA
:105930003F228A1A3F3222F03F02521A02F14005FA
:10594000504AABB289B203F0D9FA0F20FCF71FFB23
:10595000E06EFA4928440F31884282BF052084F85E
:1059600068004FF4807048E0D4E91B1208463F29D4
:1059700028BF3F20081A3F3020F03F0000F14003CD
:105980001032934219D2401A00F14005E94AA22090
:10599000B1F5803F89B2ABB238BFA02003F0AEFAB8
:1059A0000F20FCF7F4FAB4F86A00A0EB1510A4F885
:1059B0006A00E06E2844E06626E0521A93B2DD4A9F
:1059C000A220B1F5803F89B238BFA02003F096FA3B
:1059D0000F20FCF7DCFA4FF48070C4E91B0060670D
:1059E0000020A4F86A00012084F868000CE0B2F5F9
:1059F000807F02D0062184F86810E066B4F86A005F
:105A0000A0EB1510A4F86A0094F86000572804BFB2
:105A1000582084F86000B0BDF0FF0100F8B5C54C17
:105A2000002120464FF4007200260AF081FABE4D94
:105A30004FF48077B6EB574F11D103F0D3FBA22080
:105A4000B7F5803F38BFA020B5F86C102246402340
:105A500003F054FA0F20FCF79AFA4037EAE74FF4C4
:105A60008070C5E91B006867012085F86800002088
:105A7000A5F86A0095F86000592804BF5A2085F8F7
:105A80006000F8BDE8B900208C0C002010B5A648D5
:105A9000418BC26C32F81140418B01314183418B03
:105AA00032F8111009B1204610BD0021C0224183F7
:105AB0004270C27A0132C272D2B2282A0ED1C172A9
:105AC000816C8907EFD4816C4FF4007241F00201C0
:105AD0008164E04800210AF02BFAE4E7816C890731
