:020000040800F2
:2000000000220020DD010008F51F0008E51F0008ED1F000889020008653300080000000049
:20002000000000000000000000000000EF010008C904000800000000F3010008F71F0008D9
:20004000F7010008F7010008F7010008F7010008F7010008F7010008F7010008F7010008A0
:20006000F7010008F7010008F7010008F7010008F7010008F7010008F7010008F701000880
:20008000F7010008F7010008F7010008F7010008F7010008F7010008F7010008F701000860
:2000A000F7010008F7010008F7010008F7010008F7010008F7010008F7010008F701000840
:2000C000F7010008F7010008F7010008F7010008F7010008F7010008F7010008F701000820
:2000E000F7010008F7010008F7010008F7010008F7010008F7010008F7010008F701000800
:20010000F7010008F7010008F7010008F7010008F7010008F7010008F7010008F7010008DF
:20012000F7010008F7010008F7010008F7010008F7010008F7010008F7010008F7010008BF
:20014000F7010008F7010008F7010008F7010008F7010008F7010008F7010008F70100089F
:20016000F7010008F7010008F7010008F7010008F7010008F7010008F7010008000000007F
:20018000F7010008F7010008F7010008F7010008F7010008F7010008F7010008F70100085F
:2001A000F7010008F7010008F7010008F7010008E9310008F7010008F7010008F70100081D
:2001C000F7010008F7010008DFF80CD000F04AF800480047C1330008002200200648804758
:2001E00006480047FEE7FEE7FEE7FEE7FEE7FEE7FEE7FEE7FEE7FEE701330008C90100086A
:2002000040EA01039B0703D009E008C9121F08C0042AFAD203E011F8013B00F8013B521EC2
:20022000F9D27047D2B201E000F8012B491EFBD270470022F6E710B513460A4604461946B2
:20024000FFF7F0FF204610BD30B504460020034600E05B1C934203D2E05CCD5C401BF8D065
:2002600030BD0000064C074D06E0E06840F0010394E8070098471034AC42F6D3FFF7A8FF8F
:20028000083500082835000810B502F0BDFF10BD10B500BF4848006800F4003000B139E00A
:2002A00000BF00BF00BFBFF34F8F00BF00BF00BF00BF00BF00BFBFF36F8F00BF00BF00BF0A
:2002C00000203E49086000BF00BF00BFBFF34F8F00BF00BF00BF00BF00BF00BFBFF36F8F18
:2002E00000BF00BF00BF3448006840F400303249086000BF00BF00BFBFF34F8F00BF00BF4B
:2003000000BF00BF00BF00BFBFF36F8F00BF00BF00BF00BF00BF284B1B6803F4803303B122
:2003200048E00023244C7034236000BF00BF00BFBFF34F8F00BF00BF00BF231F1868C0F35C
:200340004E3100BFC0F3C90200BF43F6E07303EA41134FF0404404EA82742343174C1034A1
:20036000236000BF00BF131EA2F10102EDD10B1EA1F10101E6D100BF00BF00BFBFF34F8FB6
:2003800000BF00BF00BF0C4B1B6843F480330A4C236000BF00BF00BFBFF34F8F00BF00BF38
:2003A00000BF00BF00BF00BFBFF36F8F00BF00BF00BF00BF10BD000014ED00E050EF00E0C8
:2003C00030B503460C46002100BF0BE04800401C34F810004D0034F8155040EA05401D6820
:2003E0002860491CB1EB520FF0D302F0010020B1480034F810001D6828801868006830BD06
:2004000030B504460B46002100BF13E013F8210005068800401C185C45EA00458800801C62
:20042000185C45EA00208D00ED1C5D5D284325682860491CB1EB920FE8D302F0030030B3F4
:2004400002F00300012803D113F821002568287002F00300022808D18800401C185C13F8FE
:20046000215040EA05202568288002F0030003280DD18800401C185C13F8215040EA052066
:20048000256828808800801C185C256828702068006830BD0146087810381823B0FBF3F2B3
:2004A0000848805CC865032A05D908686FF30900001D886503E008686FF309008865886D53
:2004C000704700000035000870472DE9F04FC1B081460F46904600254446CA463E4607EB84
:2004E000080B02F0EBF95946304602F0FFFB18B1012041B0BDE8F08F15E0FF2C02D94FF4D5
:20050000807500E025462A46514601A8FFF778FE2A46314601A802F04BFD08B10120E8E70C
:200520002E44AA44641B002CE7D102F0C7F902F021FC424639464846FFF786FE04460CB121
:200540000120D6E70020D4E710B5002201B909E0012901D10A0205E0022901D10A0201E081
:200560004FF44072124B1B6823F44073104C236023461B681343236023461B6823F0F8033E
:20058000236023461B68022444EAC0042343084C236023461B6843F48033236000BF00BFC0
:2005A00000BFBFF34F8F00BF00BF00BF10BD0000103C024001462148814204D2B1F1006FFA
:2005C00001D3002070471E48814204D21B48814201D30120F6E71B48814204D2184881425A
:2005E00001D30220EEE71848814204D21548814201D30320E6E71548814204D21248814240
:2006000001D30420DEE71248814204D20F48814201D30520D6E70F48814204D20C48814253
:2006200001D30620CEE7B1F1016F04D20948814201D30720C6E7FF20C4E700000080000815
:20064000000001080080010800000208000004080000080800000C080E49096821F4407140
:200660000C4A11601146096841F004011160114609684FF4803242EA00221143054A116025
:2006800000BF00BF00BFBFF34F8F00BF00BF00BF70470000103C02400B4A126822F4407274
:2006A000094B1A601A4612681A601A46126842F001021A60017000BF00BF00BFBFF34F8F51
:2006C00000BF00BF00BF7047103C024010B50D49096821F440710B4C21602146096841F461
:2006E000407121602146096841F0010121600260436000BF00BF00BFBFF34F8F00BF00BFEC
:2007000000BF10BD103C02400C4A126822F440720A4B1A601A46126842F480721A601A467C
:20072000126842F001021A60018000BF00BF00BFBFF34F8F00BF00BF00BF7047103C0240C0
:200740000C4A126822F440720A4B1A601A46126842F400721A601A46126842F001021A60AD
:20076000016000BF00BF00BFBFF34F8F00BF00BF00BF7047103C02401D48006800F002000A
:2007800028B11C48806940F020001A4988611848006800F0100028B11648806940F010006F
:2007A000144988611248006800F0200028B11148806940F008000F4988610D48006800F0E0
:2007C000400028B10B48806940F00400094988610748006800F0800028B10648806940F0EE
:2007E000020004498861F22001490860704700000C3C0240C400002070B504460025002024
:200800001449886100F096FD054609E0601C38B124B100F08FFD401BA04201D9032070BDBE
:200820000D48006800F480300028EFD10A48006800F0F20018B1FFF79FFF0120EFE7064831
:20084000006800F0010010B10120034908600020E5E70000C40000200C3C02407CB50446D4
:2008600000252069B0F1006F03D32069B0F1114F01D901207CBD206900F500500068206070
:20088000206900F5005040686060206900F500508068A060206900F50050C068E0602068AE
:2008A000B0F5801F01D8206808B90220E2E76068401C08B1606808B90320DBE7A068401C38
:2008C00008B1A06808B90420D4E7E068B0F1006F05D3206800F10160E168814201D90520A2
:2008E000C8E7206800904FF0FF3001904FF400621648216900F09CF80546022269461348A8
:2009000000F057F805462068A0F5005008388208206900F5005000F108010C4800F049F8C9
:2009200005466068A84201D00620A3E7A06800F07F40B0F1805F05D3A06800F07F40B0F1D2
:200940005C5F01D9072095E7002093E7E000002030B503460C461F2100BF012088402040FD
:2009600018B9081EA1F10101F7D1A2B1082A0DD0102A06D0182A0FD1072901D3012030BD7E
:200980000BE0082901D30120F9E706E0102901D30120F4E701E000E000BF00BF1868446113
:2009A0001868806820F0180010431D68A8600020E5E72DE9F04104460E4617460025A84686
:2009C00000BF207F012802D10220BDE8F0810120207700BF02206077206A012810D0022858
:2009E00015D003281AD1002504E056F82500216808606D1CBD42F8D32068D0F800800EE07E
:200A00003A4631462046FFF7FBFC804607E03A4631462046FFF7D4FC804600E000BF00BF98
:200A20000120607700BF0020207700BF4046CCE72DE9F04104460E4617460025A84600BF3C
:200A4000207F012802D10220BDE8F0810120207700BF022060772068806840F00100216829
:200A60008860206A012810D0022815D003281AD1002504E056F82500216808606D1CBD42E1
:200A8000F8D32068D0F800800EE03A4631462046FFF7B6FC804607E03A4631462046FFF7C8
:200AA0008FFC804600E000BF00BF0120607700BF0020207700BF4046C6E710B504460CB953
:200AC000012010BD607F022800D1FAE7022060772068806840F00100216888602068007961
:200AE000002021680871204600F04AF80020607700BF207700BF00BFE3E7000010B5044698
:200B00000CB9012010BD607F20B900202077204600F037F802206077207948B917482168B3
:200B200048612068806820F018002168886007E02046D4E90212FFF70BFF08B10120E1E743
:200B4000607920B94FF0FF302168086102E02168206908612068806820F060006169084331
:200B6000216888602068806820F08000A169084321688860012060770020C3E7B71DC104E3
:200B80007047704770B50446A56D00F0D3FB064694F83500022808D08020606500BF002055
:200BA00084F8340000BF012070BD2068006820F01600216808602068406920F08000216827
:200BC0004861206C08B9A06C28B12068006820F00800216808602068006820F001002168B7
:200BE00008600FE000F0A6FB801B05280AD92020606500BF002084F8340000BF032084F870
:200C00003500D1E72068006800F001000028E9D194F85C103F208840A86000BF002084F8A2
:200C2000340000BF012084F835000020BCE7014691F83500022803D0802048650120704705
:200C4000052081F835000868006820F001000A6810600020F3E770B504460CB9012070BD7A
:200C600094F83500022800D1F9E72068006820F001002168086000202168086021684860A4
:200C8000216888602168C860216808612120216848612046FFF7FEFB054694F85C103F20D6
:200CA0008840A8600020606584F8350000BF84F8340000BF00BFD2E710B54FF0FF300E499E
:200CC000086000200860401E091D086000200860401E09491039086000200860401E091D43
:200CE000086000200860401E091D08600020086000F08EFB002010BD2038024010B5414842
:200D000000F09AFD01F082FD01F02CF9FFF7D4FF00BF00BF00BF00BF00BFBFF34F8F00BFF3
:200D200000BF00BF00BF00BF00BFBFF36F8F00BF00BF00BF3448006820F400303249086000
:200D400000203249086000BF00BF00BFBFF34F8F00BF00BF00BF00BF00BF00BFBFF36F8F99
:200D600000BF00BF00BF00BF00BF0023264C7034236000BF00BF00BF00BFBFF34F8F00BFB1
:200D800000BF00BF204B1B6823F480331E4C236000BF00BF00BFBFF34F8F00BF00BF00BF26
:200DA000194B6C331868C0F34E3100BFC0F3C90200BF43F6E07303EA41134FF0404404EA04
:200DC00082742343114C2434236000BF00BF131EA2F10102EDD10B1EA1F10101E6D100BF49
:200DE00000BF00BFBFF34F8F00BF00BF00BF00BF00BF00BFBFF36F8F00BF00BF00BF00BFBF
:200E000010BD00006401002014ED00E050EF00E02DE9F04104460E460127002500BF244823
:200E2000007D012802D10220BDE8F08101202049087500BF4CF25030FFF7DEFC07467FBB26
:200E40004FF0FF303060206801280ED1207BFFF703FC4CF25030FFF7CFFC074615480068E3
:200E600020F00400134908601AE0656812E0217B2846FFF769FB4CF25030FFF7BDFC0746C3
:200E80000C48006820F07A000A4908600FB1356005E06D1CD4E901100844A842E7D800BF0C
:200EA00000BF00200249087500BF3846BCE70000C4000020103C02400348006840F0004016
:200EC0000149086000207047103C02402DE9F04106460F4614461D464FF0010800BF2248E5
:200EE000007D012802D10220BDE8F08101201E49087500BF4CF25030FFF77EFC8046B8F1E0
:200F0000000F29D136B1012E09D0022E0CD0032E15D10EE0E1B23846FFF7BEFB10E0A1B2C5
:200F20003846FFF7F1FB0BE021463846FFF708FC06E022462B463846FFF7C8FB00E000BFF2
:200F400000BF4CF25030FFF757FC80460748006820F001000549086000BF002002490875E0
:200F600000BF4046C0E70000C4000020103C02400748006800F0004030B1064804490C396B
:200F800008600548086001E0012070470020FCE7103C024023016745AB89EFCDF0B50C4633
:200FA00000250022002300219CE0012606FA01F504EA0502AA427DD106684FEA410C0327C0
:200FC00007FA0CF7BE430660CF0800F1200656F827604F074FEAD76C0F2707FA0CF7BE43D6
:200FE0004FEAD10C00F1200747F82C6086684FEA410C032707FA0CF7BE4386604768012699
:201000008E40B7434760C6684FEA410C032707FA0CF7BE43C660354E8F0856F827308E0704
:20102000370F0F26BE403340314EB04201D100262DE0304EB04201D1012628E02E4EB0426F
:2010400001D1022623E02D4EB04201D103261EE02B4EB04201D1042619E02A4EB04201D191
:20106000052614E0284EB04201D106260FE0274EB04201D107260AE0254EB04201D1082647
:2010800005E0244EB04201D1092600E00A268F073F0FBE409E4224D18E07370F0F2606FA2F
:2010A00007F3124E8F0856F827609E430F4F4FEA910C00E015E047F82C60174E36689643D9
:2010C000154F3E603E1D366896433F1D3E603E1D366896433F1D3E603E1D366896433F1D48
:2010E0003E60491C1029FFF460AFF0BD08380140000002400004024000080240000C024064
:20110000001002400014024000180240001C02400020024000240240003C0140F8B5024635
:201120000B46002100250024002000BFE4E0012606FA01F51E6806EA0504AC4271D15E68BF
:20114000022E02D05E68122E13D1CF0802F1200656F827004E07F70E0F26BE40B0434F0768
:20116000FF0E1E69BE403043CF0802F1200646F8270010684F000326BE40B0431E7906F0A7
:2011800003064F00BE40304310605E68012E08D05E68022E05D05E68112E02D05E68122EA1
:2011A00013D190684F000326BE40B0434F00DE68BE4030439060506801268E40B0431E79BD
:2011C000C6F300168E4030435060D0684F000326BE40B0434F009E68BE403043D0605E68F2
:2011E00006F08056B6F1805FA8D100BF444E366846F48046424F3E603E46366806F4804624
:20120000009600BF00BF3F4E8F0856F827008E07370F0F26BE40B0433B4EB24202D10026AA
:201220002EE068E0394EB24201D1012628E0384EB24201D1022623E0364EB24201D10326F2
:201240001EE0354EB24201D1042619E0334EB24201D1052614E0324EB24201D106260FE05D
:20126000304EB24201D107260AE02F4EB24201D1082605E02D4EB24201D1092600E00A263D
:201280008F073F0FBE4030431E4E8F0846F82700274E3068A0435E6806F48036B6F5803FC1
:2012A00000D12043224E3060361D3068A0435E6806F40036B6F5003F00D120431C4E361D5B
:2012C0003060361D3068A0435E6806F48016B6F5801F00D12043164E08363060361D3068BF
:2012E000A0435E6806F40016B6F5001F00D120430F4E0C363060491C1029FFF418AFF8BDFB
:201300004438024008380140000002400004024000080240000C02400010024000140240C6
:2013200000180240001C02400020024000240240003C014001480068704700000800002020
:2013400070B504460CB9012070BD4CF6CC402168086045F2555021680860D4E9001048608A
:201360002168A0688860FFF7E5FF054606E0FFF7E1FF401B302801D90320E5E72068C068E7
:201380000028F4D120680169E068814203D02168E068086103E04AF6AA2021680860002058
:2013A000D2E701464AF6AA200A6810600020704702480068401C01490860704708000020CB
:2013C00010B50848006840F4007006490860032000F094F80F2000F007F800F01AF8002056
:2013E00010BD0000003C024070B50446074800684FF47A71B0FBF1F5284601F0CBF9002278
:201400002146501E00F03CF8002070BD000000207047704710B501460846002817DB00F094
:201420001F0301229A400B4B440943F8242000BF00BF00BFBFF34F8F00BF00BF00BF00BFA2
:2014400000BF00BFBFF36F8F00BF00BF00BF00BF10BD000080E100E00146084600280DDBAF
:2014600000BF00BF00F01F0301229A4043099B0003F1E023C3F8002100BF00BF00BF704731
:201480002DE9F05F80460D461646002701F06EFF074639462A46334601F00700C0F1070A7E
:2014A000BAF1040F02D94FF0040A01E0C0F1070AD14600F1040ABAF1070F02D24FF0000AAF
:2014C00001E0A0F1030AD4464FF0010A0AFA09FAAAF1010A0AEA020A0AFA0CFA4FF0010B27
:2014E0000BFA0CFBABF1010B0BEA030B4AEA0B042146404601F042FFBDE8F09F00BF00F0F0
:201500000702064B19684FF6FF031940044B0B4343EA0221014B196000BF70470CED00E04F
:201520000000FA0538B5002400BF2048006840F080501E4908600846006800F08050009037
:2015400000BF00BF1A48006840F4803018490860FFF7F0FE044607E0FFF7ECFE001BB0F5E1
:201560007A7F01D9032038BD1148406800F48030B0F5803FF0D10E48006840F400300C493F
:201580000860FFF7D7FE044607E0FFF7D3FE001BB0F57A7F01D90320E5E70548406800F4B5
:2015A0000030B0F5003FF0D10020DCE74038024000700040F8B504460025FFF7BBFE0646F2
:2015C00094F8410000F00200002838D000BF002084F8400000BF2068006800F0040070B1BD
:2015E0002068006820F0040021680860E06BFFF7C9FA05461DB1606C40F00400606420688D
:20160000006840F0020021680860A06C3346012202210090204601F0A5FC05465DB9022069
:201620002168C860A06C3346002220210090204601F098FC054615B9012084F84100284631
:20164000F8BD704770B50446002594F8410000F0020070B300BF002084F8400000BF082026
:2016600084F841002068006820F4F810216808602068006800F0040060B12068006820F0BB
:201680000400216808600C48E16B0865E06BFFF7CEFA0EE002202168C8602068006840F45A
:2016A0000030216808602068006840F0020021680860284670BD0000012C00082DE9F843D5
:2016C00004460E4615461F464FF00108FFF732FE8146B06900B100BFF06900B100BF306A8B
:2016E00000B100BF00BF94F84000012802D10220BDE8F883012084F8400000BF94F8410048
:2017000001283CD100206064422084F841004B46002220212046009701F024FC8046B8F11F
:20172000000F2ED1286821688862686821684862A8682168C8622068006820F440002969FC
:2017400041F48001084321680860E868B0624FF000623146204601F05FF94B460122082191
:201760002046009701F0FEFB8046B8F1000F08D108202168C860012084F8410001E04FF054
:20178000020800BF002084F8400000BF4046AFE770472DE9F84304460D4616460127FFF7AA
:2017A000C9FD8046A86900B100BFE86900B100BF286A00B100BF00BF94F84000012802D1D2
:2017C0000220BDE8F883012084F8400000BF94F84100012828D100206064022084F8410079
:2017E0004346002220212046009601F0BBFB0746DFB900222946204601F00EF9686A78B983
:201800004346012202212046009601F0ABFB07465FB902202168C860012084F8410004E06C
:20182000012084F8410000E0022700BF002084F8400000BF3846C4E710B50446206808B9E6
:20184000012010BD00BF94F84000012801D10220F7E7012084F8400000BF2068006820F078
:2018600001002168086000F003FA0020606484F8410000BF84F8400000BF00BFE1E7704770
:20188000704700002DE9F0410446206886682068076806F00400002846D007F48020002898
:2018A00042D0206800F1200594F84100122819D111E0E06A40B1616A481C60620878287052
:2018C000E06A401EE06206E02068006820F480202168086005E020688068C0F380000028F3
:2018E000E7D11DE094F84100222819D111E0A06B40B12978226B501C20631170A06B401E3E
:20190000A06306E02068006820F480202168086005E020688068C0F380000028E7D100BF22
:201920002046FFF7ADFFDAE006F00200002871D007F4003000287FD002202168C860206887
:20194000006820F4E0202168086094F8410012281CD12068006800F0040068B12068006839
:2019600020F0040021680860E06B0068006820F00100E16B096808602046FFF763FE012033
:2019800084F84100204600F0EBFAA8E094F84100222834D12068006800F0040070B120681E
:2019A000006820F0040021680860E06B0068006820F00100E16B0968086016E0206800F1FA
:2019C00020050BE0A06B40B12978226B501C20631170A06B401EA06300E005E020688068BC
:2019E00000F4F8500028EDD100BF2046FFF72AFE012084F84100204600F0ADFA6FE094F8CC
:201A00004100022807D1012084F841002046FFF7BFFE64E010E094F8410008285FD101200A
:201A200084F84100606C18B92046FFF70AFE56E02046FFF724FF52E006F00800B8B107F49F
:201A40000020A0B108202168C8602068006800F4800040B12068006820F4102021680860C2
:201A6000012084F84100204600F078FA37E006F0010040B307F4803028B301202168C86067
:201A80002068006820F4702021680860606C40F0020060642068006800F0040060B1206882
:201AA000006820F00400216808600E48E16B0865E06BFFF7BCF812E0012084F8410020467F
:201AC000FFF7DDFE0BE006F0100040B107F4801028B110202168C860204600F040FABDE8D9
:201AE000F0810000012C0008F8B504460125FFF721FC06460CB90120F8BD206A402800D067
:201B000000BF00BF94F84000012801D10220F3E7012084F8400000BF94F8410048B90020FA
:201B200084F8400000F0EAF841F28831204600F013FA2068006820F4F851A068401E41EAEA
:201B4000002021680860A06C3346002220210090204601F007FA054635BB2179E06840EA5D
:201B60000160E1690843216A084321680968124A1140084321680860208A616941EA0040D7
:201B8000A1690843216849680C4A11400843216848602068006840F0010021680860002061
:201BA0006064012084F8410000BF002084F8400000BF2846A0E700002FFFFF00FEF8E0FF32
:201BC0002DE9F84304460D4616460127FFF7B2FB8046A86900B100BFE86900B100BF286A56
:201BE00000B100BF00BF94F84000012802D10220BDE8F883012084F8400000BF94F8410043
:201C000001282CD100206064822084F84100A06C4346002220210090204601F0A3F9074693
:201C2000F7B92068006820F008007168084321680860706808280BD1306821680863102037
:201C40002168C8602068006840F48010216808604FF040622946204600F0DEFE00E00227A3
:201C600000BF002084F8400000BF3846C0E7000010B54620FFF7CEFB5C20FFF7CBFB1A4861
:201C80001A4908600846FEF7E6FF40211848FFF785F904211648FFF781F94FF48071154898
:201CA000FFF77CF94FF400711248FFF777F980211048FFF773F940210E48FFF76FF90E487F
:201CC000006840F002000C4908600846006820F00200086008482030006820F00200064914
:201CE0002031086010BD0000B86402406400002000040240001402401838024000B587B062
:201D000000BF5748006840F00200554908600846006800F00200019000BF00BF504820381E
:201D2000006840F002004E49203908600846006820F00200086000BF49480838006840F059
:201D400002004749083908600846006800F00200019000BF00BF00BF0846006840F00200EA
:201D600008600846006800F00200019000BF00BF00BF0846006840F0200008600846006861
:201D800000F02000019000BF00BF00BF0846006840F0200008600846006800F020000190A0
:201DA00000BF00BF00BF0846006840F0200008600846006800F02000019000BF00BF00BFE4
:201DC0000846006840F0200008600846006800F02000019000BF00BF402002900220039019
:201DE00001200490032005900A20069002A91D48FFF794F9042002900020049009200690FA
:201E000002A91848FFF78AF94FF4807002900A20069002A91448FFF781F94FF400700290FD
:201E20000A20069002A91048FFF778F9802002900920069002A90C48FFF770F94020029037
:201E40000920069002A90848FFF768F900220F215C20FFF715FB5C20FFF7FEFA07B000BDBF
:201E60003838024000040240001402402DE9F84F04460E4617460025FFF75CFA80462068FD
:201E8000D0F81890206800F1200A00BF94F84000012802D10220BDE8F88F012084F840007D
:201EA00000BF94F8410001284DD100206064002E43D0222084F8410020680069401CA063DB
:201EC00020680069401C606326632068406920F0406040F08060216848612068C0F818905E
:201EE00012E04346012206212046009701F03AF8054605B10BE09AF80010226B501C2063F3
:201F00001170A06B401EA063A06B0028E9D100BF7DB94346012202212046009701F022F81B
:201F2000054635B902202168C8602046FFF742FB0546012084F8410006E0606C40F00800E9
:201F40006064012500E0022500BF002084F8400000BF28469FE77047816470477047704781
:201F6000704700001948006840F081001749086000201649083108601448006814490840DF
:201F8000124908600020091D086008460068114908430E49091D086000200C4984310860FE
:201FA000084600680C4908430849843108600748006820F4802005490860002003490C3193
:201FC00008600648064908607047000000380240FFFFF6FA10300024003000200024F400A9
:201FE0000000002010B501F00FF910BD10B501F00BF910BD704710B5FFF7DAF910BD7047E6
:202000003C350000B856882E26012035000000082DE9F84304460E4617460025FFF78AF91D
:202020008046206800F1200900BF94F84000012802D10220BDE8F883012084F8400000BFD3
:2020400094F84100012848D100206064002E3ED0122084F8410020680069401CE06220684B
:202060000069401CA06266622068406920F040602168486112E043460122042120460097FE
:2020800000F070FF054605B10BE0616A481C6062087889F80000E06A401EE062E06A0028A7
:2020A000E9D100BF7DB94346012202212046009700F058FF054635B902202168C8602046EC
:2020C000FFF778FA0546012084F8410006E0606C40F008006064012500E0022500BF0020B5
:2020E00084F8400000BF2846A4E7000070B504460D4600260CB9012070BD5148006800F080
:202100000F00A8420ED24E48006820F00F0028434B4908600846006800F00F00A84201D0F2
:202120000120E9E7207800F00200022807D14548006820F0F000A16808434249086020784E
:2021400000F0010090B36068012807D13D4808380068C0F34040A0B90120CDE76068022802
:2021600007D1384808380068C0F3406048B90120C2E7344808380068C0F3400008B9012048
:20218000BAE73048006820F00300616808432D490860FFF7CFF8064609E0FFF7CBF8801B73
:2021A00041F28831884202D90320A5E707E02548006800F00C006168B0EB810FEDD120480D
:2021C000006800F00F00A8420ED91D48006820F00F0028431A4908600846006800F00F00F0
:2021E000A84201D0012087E7207800F00400042807D11448006820F4E050E168084311490F
:202200000860207800F00800082808D10D48006820F46040216940EAC1000A49086000F02C
:2022200017F808490968C1F30311074A515CC840064908600F20FFF7D7F800205CE70000F1
:20224000003C024008380240E83400080000002030B500210022002300201E4C246804F0E5
:202260000C0424B1042C04D0082C2ED103E01A482DE01A482BE0174C241F246804F03F011D
:20228000144C241F246804F4800454B1134CB4FBF1F4104D2D1F2D68C5F3881504FB05F212
:2022A00009E00D4CB4FBF1F40A4D2D1F2D68C5F3881504FB05F2074C241F2468C4F30144A7
:2022C000641C6300B2FBF3F001E0034800BF00BF30BD0000083802400024F40000127A00CE
:2022E000F8B5044600260CB90120F8BD207800F00100002871D0F848006800F00C00042864
:202300000DD0F548006800F00C00082813D1F248001F006800F48000B0F5800F0BD1EE48B0
:2023200008380068C0F34040002869D06068002866D10120D9E700BF6068B0F5803F08D195
:20234000E5480838006840F48030E349083908602EE0606868B9E0480838006820F4803064
:20236000DD49083908600846006820F4802008601EE06068B0F5A02F0DD1D74808380068DD
:2023800040F48020D449083908600846006840F4803008600CE0D0480838006820F4803031
:2023A000CD49083908600846006820F48020086000BF606890B1FEF7BDFF054606E0FEF7ED
:2023C000B9FF401B642801D903208EE7C24808380068C0F340400028F1D011E0FEF7AAFF8F
:2023E000054606E0FEF7A6FF401B642801D903207BE7B94808380068C0F340400028F1D106
:20240000207800F00200022869D1B348006800F00C0058B1B048006800F00C0008281CD1ED
:20242000AD48001F006800F48000B0B9AA4808380068C0F3400020B1E068012801D0012082
:2024400053E7A5480838006820F0F800216940EAC100A1490839086041E0E06828B39E4873
:202460000838006840F001009B4908390860FEF761FF054606E0FEF75DFF401B022801D9C0
:20248000032032E7944808380068C0F340000028F1D091480838006820F0F800216940EA63
:2024A000C1008D490839086019E08B480838006820F00100884908390860FEF73BFF054663
:2024C00006E0FEF737FF401B022801D903200CE7814808380068C0F340000028F1D1207890
:2024E00000F00800082836D16069D0B17A486C30006840F0010078496C310860FEF71AFF98
:20250000054606E0FEF716FF401B022801D90320EBE671486C300068C0F340000028F1D094
:2025200019E06D486C30006820F001006A496C310860FEF7FFFE054606E0FEF7FBFE401BB4
:20254000022801D90320D0E663486C300068C0F340000028F1D1207800F00400042874D115
:202560005D483830006800F0805080B900BF5A483830006840F080505749383108600846FD
:20258000006800F08050009000BF00BF01265348006800F48070B0B95048006840F480706A
:2025A0004E490860FEF7C6FE054606E0FEF7C2FE401B642801D9032097E64848006800F430
:2025C00080700028F2D000BFA068012808D142486830006840F001003F49683108602DE007
:2025E000A06868B93C486830006820F001003A49683108600846006820F0040008601DE06A
:20260000A06805280DD134486830006840F004003149683108600846006840F0010008602D
:202620000CE02D486830006820F001002A49683108600846006820F00400086000BFA068BB
:20264000A8B1FEF777FE054609E02EE0FEF772FE401B41F28831884201D9032045E61E4871
:2026600068300068C0F340000028EFD013E0FEF761FE054608E0FEF75DFE401B41F288316F
:20268000884201D9032030E6134868300068C0F340000028EFD1012E07D10F4838300068F9
:2026A00020F080500C4938310860A069E8B30A48006800F00C00082866D0A06902284BD105
:2026C00005480838006820F08070034908390860FEF730FE05460AE0083802400070004086
:2026E000FEF728FE401B022801D90320FDE528480068C0F340600028F2D1E06940F000507C
:20270000216A0843616A40EA81110122A06AC2EB500041EA00412C20005D41EA00601C492D
:20272000091D0860081F006800E02FE040F08070091F0860FEF7FEFD054606E0FEF7FAFDD0
:20274000401B022801D90320CFE511480068C0F340600028F2D019E00D48006820F080708F
:202760000B490860FEF7E6FD054606E0FEF7E2FD401B022801D90320B7E505480068C0F33A
:2027800040600028F2D101E00120AEE50020ACE50038024070B504462546681EB0F1807FEE
:2027A00001D301200FE0681E4FF0E02148610F214FF0FF3000F0E2FD00204FF0E021886110
:2027C00007200861002070BD0246906800F07F408B6803F07F43984201D00120704790680A
:2027E00020F07F408B6823F07F43984201D10220F4E7906820F07F408B6823F07F43984230
:2028000001D90320EAE70020E8E7000010B50B48006820F48050094908600948FEF74DF951
:2028200006482038006840F480500449203908600846006820F48050086010BD30380240FF
:20284000E000002008B500BF1048006840F480500E4908600846006800F48050009000BFB0
:2028600000BF0B480B49086000200871002109484171416181610320064908620846FEF72A
:202880003DF908B100F0C0FC08BD00003038024000300240E000002010B5064806490860F2
:2028A0000620486040F6FF7103488160FEF748FD10BD000000300040B001002010B500204B
:2028C000194908704C211948FDF7B3FC38211848FDF7AFFC18211748FDF7ABFC1648134968
:2028E00008600846FEF7A8FF02201049486004210E4881601021C160172101614FF48071E7
:202900004161002181610162C161FFF7EDF808B100F07AFC00F068FA41F2883000F04CF822
:2029200008B100F071FC10BD0400002064010020140000204C000020001000A0F0B585B0E1
:2029400007460C4616460025002004900090022003902046FDF72EFE0190A019FDF72AFE72
:202960000199401A401C0290FEF702FB04A96846FEF74EFA18B10498C0B205B0F0BD0BE0C7
:2029800057F805C06119624600230220FEF79EFA08B10120F1E72D1DB542F1D3FEF78CFAFD
:2029A000324621463846FDF74FFC0490049808B10120E2E70020E0E710B504464FF480707F
:2029C00012498861052008600020C86108624FF08070486200204861C862086348630C493C
:2029E000086001204860002008610120C860102088608004486123460A4604490548FEF747
:202A00005DFE08B1012010BD0020FCE7140000204C0000206401002010B54B6A33B1B2F18B
:202A2000406F03D08B6A5B1E046823618B69002B76D00B6AE3B38B680468E361CB69FBB1C3
:202A4000D1E90B3423434C6B23434C6A23438C8A43EA84430C6923430C6A2343CC68234383
:202A6000CC6923438C6923430C682343134304686361B2F1406F02D04B680468A361BEE01B
:202A8000D1E90B3423434C6B23434C6A23438C8A43EA84430C6923430C6A2343CC69234342
:202AA0008C6923430C682343134304686361A6E0FFE7CB69EBB1D1E90B3423434C6B2343A3
:202AC0004C6A23438C8A43EA84430C6A2343CC682343CC6923438C6923430C682343134334
:202AE00004686361B2F1406FC9D04B680468A36185E0D1E90B3423434C6B23434C6A23439B
:202B00008C8A43EA84430C6A2343CC6923438C6923430C6823431343046863616FE0FFE744
:202B20000B6AC3B38B680468E361CB69EBB1D1E90B3423434C6B23434C6A23438C8A43EA5C
:202B400084430C6923430C6A2343CC682343CC6923438C692343134304686361B2F1406F8F
:202B60004DD04B680468A36149E0D1E90B3423434C6B23434C6A23438C8A43EA84430C69D5
:202B800023430C6A2343CC6923438C69234313430468636133E0FFE7CB69DBB1D1E90B34C5
:202BA00023434C6B23434C6A23438C8A43EA84430C6A2343CC682343CC6923438C69234300
:202BC000134304686361B2F1406F18D04B680468A36114E04B6A93B1D1E90B3423434C6B0F
:202BE00023434C6A23438C8A43EA84430C6A2343CC6923438C69234313430468636110BD24
:202C000070B50546AC6B0020A063E06294F8410008280FD102202168C8602068006840F4F4
:202C20000030216808602068006840F002002168086005E0012084F841002046FEF71FFE25
:202C400070BD000038B54FF4807026498861852008600020C86108624FF080704862002016
:202C60004861C862086348630120886241F288321D48FEF78EFD08B1012038BD41F28832D2
:202C800069461948FFF7F2F808B10120F5E700F02DFA08B10120F0E79DF8004081201149F6
:202CA000086024F0F0000A21F02292FAA2F2B2FA82F2914040EA0104E0B2009041F288321C
:202CC00008490948FEF765FD08B10120D5E741F2883269460448FFF79BF908B10120CCE766
:202CE0000020CAE7140000206401002070B504460E46A0B2251A07E0284600F009F808B1F7
:202D0000012070BD05F58035B542F5D90020F8E710B58EB004464FF480700690D820009054
:202D20004FF480600790C000039024F07040019000200890099005900B900C900D9000F087
:202D4000D5F910B101200EB010BD41F2883269460748FEF71EFD08B10120F4E740F6B8306A
:202D6000FFF72AFE08B10120EDE70020EBE70000640100201CB51948007800282BD1FFF74C
:202D800061FF08B101201CBD4FF48070144988614001C860002008620861C862086348630B
:202DA0004FF44060C861002048604FF04070486200208862EB2008600A20486100200190A5
:202DC0006A460848FEF7FCFE08B10120DBE701200249087000BF0020D5E7000004000020C5
:202DE000140000206401002000BF5D480068806800F020000028F8D142F2661058490968A9
:202E00004861002056490968886155490968C86153490968086100BF00BF00BFBFF34F8F75
:202E200000BF00BF00BF00BF4D480068806800F020000028F8D142F2991049490968486127
:202E4000002047490968886145490968C86144490968086100BF00BF00BFBFF34F8F00BF4D
:202E600000BF00BF00BF3E480068806800F020000028F8D142F266203949096848610020C8
:202E800037490968886136490968C86134490968086100BF00BF00BFBFF34F8F00BF00BF9D
:202EA00000BF00BF2E480068806800F020000028F8D142F299202A490968486100202849C2
:202EC0000968886126490968C86125490968086100BF00BF00BFBFF34F8F00BF00BF00BF3D
:202EE00000BF1F480068806800F020000028F8D142F266301A490968486100201849096822
:202F0000886117490968C86115490968086100BF00BF00BFBFF34F8F00BF00BF00BF00BFCD
:202F20000F480068806800F020000028F8D142F299300B49096848610020094909688861B2
:202F400007490968C86106490968086100BF00BF00BFBFF34F8F00BF00BF00BF704700009D
:202F6000640100202DE9F04104460E4617469846069D12E0681C80B12DB1FEF7DBF9A0EB30
:202F80000800A84209D9042084F84100606C40F0010060640120BDE8F081206880683040A4
:202FA00008B1012000E00020B842E3D10020F2E72DE9F84F07460E4615464FF00009C846E1
:202FC000C346002400200090824606F0FF0BCBF580744FEA152905F0FF08BBF1000F2ED16B
:202FE000B9F1000F0AD1AA463A465146304600F0B9F8002878D00120BDE8F88F0DE04FF432
:20300000807A3A465146304600F0ACF808B10120F2E706F5807607F58077B9F10000A9F1BA
:203020000109ECD1C246BAF1000F5DD03A465146304600F097F8002856D00120DCE7B9F1F2
:20304000000F20D1A04515D9A8EB04000090A2463A465146304600F085F826442744DDF8EA
:2030600000A03A465146304600F07CF800283BD00120C1E7AA463A465146304600F072F8EC
:2030800088B30120B8E72D1B4FEA152905F0FF08A2463A465146304600F064F808B10120DF
:2030A000AAE7264427440DE04FF4807A3A465146304600F057F808B101209DE706F5807665
:2030C00007F58077B9F10000A9F10109ECD1B8F1000F09D0C2463A465146304600F042F8A2
:2030E00008B1012088E7FFE7002085E710B54FF4807019498861062008600020C861086291
:2031000048624861C8620863486341F288321348FEF73FFB08B1012010BD0220104908601B
:203120004860002008610120C86010208860800448610520084908604FF0807048620120F8
:20314000886241F28833064A0448FEF7B7FA08B10120E1E70020DFE7140000206401002014
:203160004C00002070B58EB004460D4616464FF480700690122000904FF4406007904FF43F
:203180000050039024F070400190002008904FF040700990002005900A950B900C900D908F
:2031A000FFF7A4FF10B101200EB070BD41F2883269460C48FEF7EDFA08B10120F4E741F2F5
:2031C000883231460748FEF723FF08B10120EBE741F28830FFF7F0FB08B10120E4E700201B
:2031E000E2E700006401002010B50248FEF74AFB10BD0000640100200021016041608160E2
:20320000C160016170470000FDF778FD1048FEF7C8F800BF00BF00BF00BF00BFBFF34F8FB3
:2032200000BF00BF00BF0B48006800F4E0600A490843001D0749086000BF00BF00BFBFF300
:203240004F8F00BF00BF00BF00BF00BFFDE70000B00100200CED00E00000FA0538B5044611
:2032600020680A490840B0F1005F0ED1FDF746FD60680090064900980860206880F30888E3
:2032800000BF08460068804700BF38BD0000FC2F1000002010B592B0002401200190000402
:2032A0000290022007904105089104210991C8210A9102210B910C9101A8FFF711F8044653
:2032C0000CB1FFF7A1FFFEF72DF904460CB1FFF79BFF0F200D9002200E9000200F904FF45B
:2032E000A05010904FF48050119006210DA8FEF7FDFE04460CB1FFF787FF12B010BD0000AC
:203300001448006840F47000124908601248006840F001001049086000200F4908310860B5
:203320000D4800680D4908400B4908600C48091D0860081F006820F48020091F08600020A1
:2033400005490C3108604FF000600249803908607047000088ED00E000380240FFFFF6FEF7
:203360001030002410B5FFF74FFF10BD02480068C0F30220704700000CED00E010B500280F
:2033800004DB0A07130E054A135406E00A07140E034A00F00F031B1FD45410BD00E400E00B
:2033A00018ED00E002E008C8121F08C1002AFAD17047002001E001C1121F002AFBD170472F
:2033C000FCF766FFFDF7FCFFFFF764FFFFF764FAFFF738FAFFF772FAFFF7CCFC3748FFF73C
:2033E0000BFF3748FFF708FF3648344908613648334908613148FDF731FA3449087030487B
:20340000FDF72CFA324908702D492C48FFF7DCF9304908700846007800BB28490A68086924
:203420002D49FDF752F808B1FFF7EEFEFFF746FAFFF7A0FC2948FDF7B4FF214B1A68D9682E
:203440001869FFF77BFA08B1FFF7DEFEFFF736FAFFF790FC2148FDF7A4FF20E01B48007872
:20346000E8B11F48FFF7C8FE1B481D4908610846FDF7F4F91B4908700846007830B9184B41
:203480001A68D9681869FFF759FA08E01048007828B90B4B1A68D9681869FFF74FFA0B48DA
:2034A000007818B90549C868FFF7D8FE0548FFF7D5FE0A48FDF775FF00BFFEE7C001002024
:2034C000D4010020000001080000F0900C0000200D0000200F0000200000E290B0010020A3
:2034E000E80100200E00002000000000000000000102030406070809000000000102030463
:203500000006101600061016283500080000002014000000A43300083C350008140000202E
:1C352000EC210000B23300080024F400000000000000000000000000000000007D
:04000005080001C925
:00000001FF
