:020000040800F2
:1000000000100020510B00082D0B00082F0B0008DA
:1000100000000000000000000000000000000000E0
:10002000000000000000000000000000310B00088C
:100030000000000000000000330B0008350B000832
:10004000A10B000800000000A10B0008A10B000894
:10005000A10B0008A10B0008A10B0008A10B0008D0
:1000600000000000A10B0008A10B0008A10B000874
:10007000A10B0008A10B0008A10B00080000000064
:10008000A10B00080000000000000000A10B000808
:1000900000000000A10B0008A10B0008A10B000844
:1000A00000000000A10B0008000000003D0B00084C
:1000B0000000000000000000000000000000000040
:1000C00010B5064C2378002B07D1054B002B02D02E
:1000D000044800E000BF0123237010BD140000207D
:1000E000000000002C240008044B10B5002B03D0A6
:1000F0000349044800E000BF10BDC04600000000F6
:10010000180000202C24000802B471464908490058
:10011000095C49008E4402BC7047C0460022430877
:100120008B4274D303098B425FD3030A8B4244D3BF
:10013000030B8B4228D3030C8B420DD3FF22090201
:1001400012BA030C8B4202D31212090265D0030BC0
:100150008B4219D300E0090AC30B8B4201D3CB03B6
:10016000C01A5241830B8B4201D38B03C01A5241F8
:10017000430B8B4201D34B03C01A5241030B8B42FA
:1001800001D30B03C01A5241C30A8B4201D3CB02E5
:10019000C01A5241830A8B4201D38B02C01A5241CA
:1001A000430A8B4201D34B02C01A5241030A8B42CD
:1001B00001D30B02C01A5241CDD2C3098B4201D3E5
:1001C000CB01C01A524183098B4201D38B01C01A63
:1001D000524143098B4201D34B01C01A52410309DA
:1001E0008B4201D30B01C01A5241C3088B4201D389
:1001F000CB00C01A524183088B4201D38B00C01A36
:10020000524143088B4201D34B00C01A5241411A5C
:1002100000D20146524110467047FFE701B5002069
:1002200000F006F802BDC0460029F7D076E7704717
:100230007047C04610B5002A05D00023CC5CC454DA
:1002400001339A42FAD110BD8218017001309042F8
:10025000FBD1704730B5102495B02C22002109A89D
:1002600002F0DBF822000021684602F0D6F82200F6
:10027000002104A802F0D1F80A230893C023012525
:100280000C945B030E3C08A8109412930B950F95E9
:1002900000F030FE072301940024290068460093F3
:1002A0000294039401F05AF8054B04A804938023A8
:1002B0009B000694059301F0E5F815B030BDC046EB
:1002C0000100010070B588B000F090FCFFF7C2FF9C
:1002D0001422002103A802F0A0F880204F4BC00395
:1002E00059690024014359615A690126024080205E
:1002F0000092009A596980020143596180215A692C
:10030000C902024090200192019A5A69C0050A432D
:100310005A615B6900220B4002931F21029B00F08F
:10032000E3FD002202213E4800F0DEFD032303A985
:100330003C4803930493059400F026FD90201F236E
:1003400003A9C005039304960594069400F01CFDD0
:10035000022303A93248039304960594069400F0FF
:1003600013FD3148314B04710360C4600461866140
:1003700000F0C0FC2E4D2F4B28002B607F23AB607C
:100380008033EB606C602C616C61AC6101F034F91E
:10039000294932000C808C702800CC600C6101F07F
:1003A0008BF92649320028000E704E708E70CC708A
:1003B00001F0F8F92248234B8460036082235B003C
:1003C0004360E023DB00C36080239B008361FA3B32
:1003D000FF3BC36204614461C4610462446284629D
:1003E0000463446301F0C4FA1748184B8460036047
:1003F000E1235B0243600C234361043B436280239F
:100400001B024363C46004618461C461046201F03F
:10041000A5FF00F0AFF900F0F1F9FCE70010024091
:1004200000040048001400484C0000200030024046
:10043000E8000020002800403800002031000020A3
:100440000801002000300140680000200038014011
:100450007047000001220221036810B51A620332BE
:1004600019621A620C321A62083A1A629C692243B3
:100470009A610023C367014B197010BD3000002042
:1004800073B5902504000E00ED0528000022102110
:1004900000F02AFD640001A90A23022205484E70DB
:1004A0000C7001F0C3FA28000122102100F01CFD9D
:1004B00073BDC04608010020F0B59026002285B02B
:1004C000F60502AD03AC0700102130002A8022801F
:1004D00000F00AFD80200A237F0040423843287044
:1004E000220000932900083B054801F06BFB300017
:1004F0000122102100F0F8FC607805B0F0BDC04684
:100500000801002070B50D000400FFF7D5FF284357
:10051000C1B22000FFF7B4FF70BD70B50D0004003C
:10052000FFF7CAFFA843C1B22000FFF7A9FF70BDC3
:10053000F0B585B005000E00039202930C2865D03B
:100540000E2867D1102312270193802102203943FE
:10055000FFF796FF80210420FFF7DFFF80210A20AC
:10056000FFF7D0FF00210120FFF78AFF3400039A34
:10057000A31B9A4252D829000120FFF781FF0C2DBE
:1005800003D180210D20FFF7BDFFC8240420FFF711
:1005900093FF013C0600002C04D00123019A134371
:1005A0000342F3D080210D20FFF7B7FF002C3FD08E
:1005B0000620FFF781FF1B23184239D11A3B3B402D
:1005C0001E4076000C2D1ED10A20FFF775FF040097
:1005D0002800FFF771FF0723034025D0184AA01811
:1005E000C000C0180A9B1880002C23D0102C00D902
:1005F0001024029D0920FFF75FFF029B2870013540
:10060000EB1A9C42F6D8300005B0F0BD30237727B6
:1006100001939AE7002301931F0096E721780920B0
:10062000FFF72EFF0134A2E70A9AE3001380DBE70D
:100630000126E8E70920FFF73FFF029B1870E2E779
:10064000FFFFFF1FF8B506000F000520042115006D
:10065000FFF763FF80210A20FFF754FF3400A31B3C
:100660009F4216D803210120FFF70AFFFF2404262A
:100670000520013CFFF720FF002C01D03042F7D0CD
:100680002220FFF719FF28702120FFF715FF68705F
:10069000F8BD21780920FFF7F3FE0134DFE770B5DC
:1006A00012220E2530230E0086B004AC60706A441E
:1006B000022120006D442370FFF7C4FF3300009532
:1006C000042221000C20FFF733FF0123002804D16E
:1006D0002B88903B581E8341DBB2180006B070BDDA
:1006E0001FB50E22502303AC6A4420000221238050
:1006F000FFF7A8FF0A236B44009304222300210084
:100700000C20FFF715FF08210800FFF706FF1FBDAB
:10071000602310B586B003AC2370154B60701A7857
:100720000E20A2705A78E2709A782271DA7862719B
:100730001A795B79A271E3710B780C2223724B78E2
:1007400063728B78A372CB782100E3720A236B4427
:1007500000932300FFF7ECFE0124002804D10830A9
:10076000FFF7AAFEC0088443200006B010BDC046B3
:1007700000000020902010B501221021C00500F0DB
:10078000B3FB002202211C4800F0AEFB0A2000F05F
:100790004FFA01220221184800F0A6FB642000F065
:1007A00047FA0F210120FFF76BFE8D212A20FFF76A
:1007B00067FE3E212B20FFF763FE1E212D20FFF751
:1007C0005FFE00212C20FFF75BFE70212620FFF743
:1007D00057FE40211520FFF753FE3D211120FFF762
:1007E0004FFE1420FFF768FE0321084202D11420B7
:1007F000FFF788FE10BDC04600040048F0B5072191
:1008000097B00D20FFF73CFE262303AD05AC2B70FF
:10081000290000942B0001220C20FFF789FE011E05
:100820006AD12388102B67D10D20FFF729FE674B73
:1008300002222B80290000942B000C20FFF778FE69
:10084000002859D12E7868783300A9784340EF7892
:100850002A794B407B409A424ED1A670A2710A265B
:100860001B225B4BE070238021716A44072120002A
:100870006E446771FFF7E6FE00962300092221000F
:100880000C20FFF755FE071E36D13388182B33D1C5
:100890002378002B30D0010044222000FFF7D4FC45
:1008A0004C4E200031000422FFF7C4FC2900380020
:1008B000FFF72EFF002823D106A9FFF7F0FE00283E
:1008C0001ED10AA90130FFF7EAFE002818D10EA9AF
:1008D0000230FFF7E4FE002812D112A90330FFF71F
:1008E000DEFE00280CD13C4C05A9642344222000E4
:1008F00001F09AFC011E06D0FFF7F2FE17B0F0BD22
:10090000FFF7EEFEF8E7442205A8FFF79DFC711DF6
:1009100005A80422FFF78EFC29000420FFF7F8FE4B
:1009200000284FD106A90430FFF7B9FE002849D1AD
:100930000AA90530FFF7B3FE002843D10EA90630FF
:10094000FFF7ADFE00283DD112A90730FFF7A7FE43
:10095000002837D16423442205A9200001F064FC5B
:100960000028C9D14422002105A8FFF76DFC310001
:1009700005A80A310422FFF75DFC29000820FFF7D3
:10098000C7FE0028BCD106A90830FFF788FE002862
:10099000B6D10AA90930FFF782FE0028B0D10EA90E
:1009A0000A30FFF77CFE0028AAD112A90B30FFF70E
:1009B00076FE0028A4D16423442205A9064801F04C
:1009C00033FC99E7FFF78CFECCE7C046932000008C
:1009D00093700000442400086800002001200A4BA6
:1009E00082B099690143996180219A694905024061
:1009F0000092009ADA690A43DA61DB690B400193DD
:100A0000019B02B07047C04600100240074B0268CD
:100A100082B09A4208D14020054A51690143516190
:100A2000536903400193019B02B0704700300240BC
:100A300000100240054B02689A4205D18023044A07
:100A40001B02116A0B4313627047C0460028004026
:100A50000010024010B5040088B01422002103A841
:100A600001F0DBFC114B22689A421DD18020104B13
:100A7000400199690143996180219A698902024084
:100A80000192019A5A6990200A435A615B69C00534
:100A90000B400293029BE0230393DE3B049303A9E4
:100AA0000133069300F070F908B010BD003001402A
:100AB0000010024010B5040088B01422002103A8E1
:100AC00001F0ABFC174B22689A4228D18020164BCC
:100AD000C00199690143996180219A6989020240A4
:100AE0000192019A5A6990200A435A615B69C005D4
:100AF0000B400293029BC023DB0003930223049369
:100B00000133069303A9023B079300F03DF900224D
:100B10001B20110000F09EF81B2000F0C5F808B063
:100B200010BDC04600380140001002407047FEE78B
:100B30007047704710B500F069F810BD10B5024855
:100B400001F080F910BDC046680000207047000029
:100B50000D4885460D480E490E4A002302E0D45840
:100B6000C4500433C4188C42F9D30B4A0B4C0023F5
:100B700001E013600432A242FBD3FFF7E7FF01F06C
:100B80001FFCFFF79FFBFEE7001000200000002085
:100B90001400002098240008140000207001002098
:100BA000FEE7000070B50500FA200D4B80001978B3
:100BB000FFF7B4FA0B4B01001868FFF7AFFA00F02B
:100BC0007FF804000120002C09D1032D07D802383A
:100BD0002200290000F03EF82000034B1D6070BD8C
:100BE0000C00002008000020100000201023064AFE
:100BF00010B5116800200B431360FFF7D3FFFFF718
:100C0000EDFE002010BDC04600200240034A044B08
:100C100011681B785B1813607047C0466C01002098
:100C20000C000020014B18687047C0466C01002082
:100C300070B50400FFF7F6FF0500631C02D0044BFB
:100C40001B78E418FFF7EEFF401BA042FAD370BDFB
:100C50000C00002030B5FF2503242A00C3B21C403D
:100C6000E400A24089012940D243A14000280ADBC8
:100C7000C0240B4B80088000C018A40003591A4000
:100C80001143015130BD0F200340083B05489B082C
:100C90009B001B18D86902401143D961F2E7C04696
:100CA00000E100E000ED00E0002805DB1F23184014
:100CB0001E3B8340014A13607047C04600E100E0DC
:100CC000094A431E012093420DD8C021074A084813
:100CD0005360036A09061B021B0A0B4303620020D0
:100CE0000723906013607047FFFFFF0010E000E0F3
:100CF00000ED00E010B504000120002C1ED0637D43
:100D0000DBB2002B03D123752000FFF77FFE022307
:100D1000227963752368002A11D1013A60211A6192
:100D20009A6800208A43E1680A4380219A609A68A1
:100D30008A4321690A439A600123637510BDA26842
:100D4000ECE770B5841CE37F022B04D0042383639B
:100D5000033B180070BD0E210368056C1A688A43B6
:100D60001A6001221968914319601100A940C36BF0
:100D70005960E27700248318426BDC771300A242AB
:100D8000E7D090472300E4E7F0B50B6887B0039302
:100D900000230191039ADA4001D107B0F0BD01228E
:100DA0009A4002920299039A0A40009200D18CE084
:100DB000019A1021526816008E43022E0ED107258B
:100DC0001D40AD000139A940DC08A4000419276AC0
:100DD0008F4301990969A9400F43276203245F00EB
:100DE000BC40E4430568013E2540AC460325154060
:100DF000BD4061460D430560012E0FD801998668FC
:100E0000CD682640BD403543856046680299150986
:100E10008E4301210D409D4035434560C5680199D1
:100E20002C408D688021BD4049052C43C4600A4296
:100E30004BD00121264C0326A5691E400D43A56118
:100E4000A4699D080C400594059C0F242149AD0020
:100E5000B6006D18B4409021AF68C905A7430024BF
:100E600088420CD01C490134884208D01B49013407
:100E7000884204D01A490334884200D1023CB4406D
:100E800000993C430E00AC60164CCD4327683E43AE
:100E9000D10301D43E002E4026606768009E3E4389
:100EA000910301D43E002E406660A768009E3E4339
:100EB000D10201D43E002E40A660E668009F374371
:100EC000920201D42E403700E760013362E7C0464A
:100ED00000100240000001400004004800080048E3
:100EE000000C004800040140002A01D081617047D5
:100EF0008162FCE7F0B5040085B0002802D1012032
:100F000005B0F0BD0368DB072ED423689B077ED4B1
:100F100023681B0700D5BAE023685B0700D5DDE036
:100F20002368DB061AD56269B44D0423012A00D078
:100F300049E1696B02260B436B636B6B1A436A636F
:100F4000FFF770FE07006B6B334200D134E1F821EC
:100F50006A6BA3698A43DB0013436B63236A002B2C
:100F600000D057E10020CBE70C21A44D6A680A406D
:100F7000042A06D06B680B40082B09D16B68DB0391
:100F800006D52B689B03C0D56368002BBDD1B6E79F
:100F90006368012B13D180232A685B0213432B6003
:100FA000FFF740FE80260700B6022B683342ACD123
:100FB000FFF738FEC01B6428F7D90320A0E7002BF9
:100FC00015D12B688E4A802613402B602B688D4AE2
:100FD000B60213402B60FFF725FE07002B68334253
:100FE00093D0FFF71FFEC01B6428F7D9E5E7052B58
:100FF00005D180232A68DB0213432B60CBE72B68E3
:101000007F4A13402B602B687E4A1340C7E70C22AF
:101010007A4D6B68134206D06B681340082B11D1D0
:101020006B68DB030ED42B689B0703D5E368012BA9
:1010300000D064E7F8212A6823698A43DB00134360
:101040002B6065E7E2680123002A0FD02A68022698
:1010500013432B60FFF7E6FD07002B683342E9D10D
:10106000FFF7E0FDC01B0228F7D9A6E72A68022691
:101070009A432A60FFF7D6FD07002B68334200D160
:1010800046E7FFF7CFFDC01B0228F6D995E7E269D6
:1010900001235A4D002A10D06A6A022613436B625C
:1010A000FFF7C0FD07006B6A334200D034E7FFF75B
:1010B000B9FDC01B0228F6D97FE76A6A02269A4367
:1010C0006A62FFF7AFFD07006B6A334200D123E786
:1010D000FFF7A8FDC01B0228F6D96EE78022002189
:1010E000464D5205EB690091134208D1EB69134359
:1010F000EB61EB6913400393039B0123009380276B
:10110000414E7F0033683B4206D0A368012B13D1C8
:101110002A6A13432B6230E033683B433360FFF7A6
:1011200081FD019033683B42EFD1FFF77BFD019BCE
:10113000C01A6428F6D940E70122002B14D12B6A8B
:10114000022793432B622B6A033293432B62FFF7F0
:1011500069FD06002B6A3B4225D0FFF763FD2B4B50
:10116000801B9842F6D928E7052B0BD1296A013B51
:101170000B432B622B6A1A432A62FFF753FD0227A7
:1011800006000DE02B6A934304222B622B6A9343E3
:10119000C0E7FFF747FD1D4B801B984200D90CE7C5
:1011A0002B6A3B42F5D0009B012B00D0B8E6EB69DF
:1011B000174A1340EB61B3E6FFF734FDC01B02286A
:1011C00000D8C0E6F9E6053203D16A6B9A436A6338
:1011D000BDE66A6B0226134301226B636B6B93437C
:1011E0006B63FFF71FFD07006B6B334200D1B5E661
:1011F000FFF718FDC01B0228F6D9DEE600100240FA
:10120000FFFFFEFFFFFFFBFF0070004088130000A0
:10121000FFFFFFEF0C20354A5168150001400829F7
:1012200047D0334A022B32D12B68802613402B60E3
:10123000FFF7F8FC0700B6042B68334221D10F22D8
:10124000EB6A9343E26A1343EB62616AA36A6A68DA
:101250000B43284980240A4013436B6080232A688B
:101260005B0413432B60FFF7DDFC0600A4042B682E
:10127000234200D076E6FFF7D5FC801B0228F6D982
:101280009BE6FFF7CFFCC01B0228D5D995E62B685B
:10129000802413402B60FFF7C5FC0600A4042B68D4
:1012A000234200D15EE6FFF7BDFC801B0228F6D981
:1012B00083E61800012B00D122E680215368656A7D
:1012C0004902D26A19400120A94200D018E60F2134
:1012D0000A40E16A8A4200D012E6F020800303400F
:1012E000A06A1B1A581E8341D8B209E600100240BA
:1012F000FFFFFFFEFFFFC2FF70B5144C88B0102245
:101300002100684601F080F8210004AD1022103160
:10131000280001F079F80C220D4E73681A40082A53
:1013200011D10F206A46990C0140545CF26A0240C8
:10133000A95CDB0305D50748FEF7F0FE604308B063
:1013400070BD0548FAE70348F9E7C0465324000892
:101350000010024000127A0000093D00F7B50500B8
:101360000F00002801D10120FEBD0122374C236867
:1013700013408B421CD329688B0722D4CB072FD470
:10138000012322681A40BA4251D82B68304C5B07BF
:1013900054D4FFF7B1FF63682E4A1B061B0FD35CC2
:1013A000D8402D4B18600020FFF7FCFB0020DBE746
:1013B000236893430B432360236813408B42D2D1AD
:1013C000D9E7234A4B0704D5E0235068DB000343E9
:1013D0005360F02053688343A86803435360CDE70C
:1013E0001B4E6A683368012A19D19B03BBD50321C0
:1013F00073688B4313437360FFF714FC01900C2355
:1014000072681A406B689B009A42B9D0FFF70AFCD9
:10141000019BC01A114B9842F1D90320A4E7022A7C
:1014200002D19B01E3D49EE79B07E0D49BE72268AF
:101430009A43226022681A42A7D094E76368084A58
:101440001340EA6813436360A3E7C04600200240EC
:1014500000100240732400080800002088130000D8
:10146000FFF8FFFF044B054A5B685B055B0FD35C2D
:10147000034A1068D84070470010024083240008D7
:1014800008000020F0B5036885B00500DB0328D50F
:1014900080220021374C5205E3690091134208D1A4
:1014A000E3691343E361E36913400393039B01235F
:1014B00000938027304E7F0033683B4226D0C02205
:1014C000236A920013402D4E32D1236A1E406B686E
:1014D0001E43009B2662012B03D1E369284A134077
:1014E000E3612A68D30706D5032022490B6B8343A7
:1014F000A86803430B630020930617D510211D4AEB
:10150000136B8B43E9680B4313630FE033683B4372
:101510003360FFF787FB019033683B42CFD1FFF781
:1015200081FB019BC01A6428F6D9032005B0F0BDE9
:1015300069680A409A42C8D08023226A206A110052
:101540005B0203432362236A0E4831400340236257
:101550002162D307B9D5FFF765FB07000222236A92
:101560001342B2D1FFF75EFB074BC01B9842F5D97F
:10157000DBE7C0460010024000700040FFFCFFFFA8
:10158000FFFFFFEFFFFFFEFF88130000A0210268AE
:10159000F8B5D36804008B43D360FFF743FBFA2709
:1015A00006002025BF002368DB682B4201D0002005
:1015B000F8BDFFF737FB801BB842F4D90320F7E7EB
:1015C000F8B5402403680500DA68224201D0002003
:1015D000F8BD01225242DA60FFF724FBFA27060029
:1015E000BF002B68DB682342F1D1FFF71BFB801B98
:1015F000B842F6D90320EBE770B5040001250028B6
:1016000018D0437FDBB2002B02D10377FFF712FA29
:101610000223CA226377236820005A62773A5A620B
:10162000FFF7CEFF2368051E06D0FF225A6204236F
:1016300001256377280070BD9A68174920690A4020
:101640009A60626899680243606902430A439A603B
:10165000E2681A61A268196912040A4380211A61BA
:10166000DA688A43DA609B689B0606D42000FFF79D
:101670008DFF002801D02368D7E7236807491A6C3B
:101680000A401A641A6CA1690A431A64FF225A625A
:1016900001236377CEE7C046BFFF8FFFFFFFFBFF4D
:1016A0000023092803D81B011843C0B270470A3829
:1016B0000133C0B2F5E700000223F7B50D00017F4A
:1016C00004001E00012933D0012143770177066809
:1016D000AB783F310093B36828786F780B40002ACD
:1016E00028D1002B00D1EB70FFF7DAFF0190380012
:1016F000FFF7D6FF07000098FFF7D2FF0300E87856
:101700003F0200041843019B1B041843CA23736261
:10171000773B736207432000FFF752FF2368061EE2
:1017200013D0FF225A620423637700232377012614
:101730003000FEBD002B00D1EB7000043F020743D8
:10174000009BE8781F430004E0E714481449074071
:101750001F609A6828690A409A60EA68996802439B
:101760000A4380219A60DA688A43DA609B689B06A4
:101770000BD42000FFF70AFF002806D0FF222368C1
:101780005A62042326776377D1E7FF2223685A62DF
:101790000123637700232377CAE7C0467F7F7F005A
:1017A000FFFFFBFF0223F7B50E00017F05001C00C1
:1017B000012932D001213478017743776103F07831
:1017C0007378B7780191002A47D11032134202D0C2
:1017D00093430A337370FFF763FF04007078FFF7D9
:1017E0005FFF06003800FFF75BFF019B24041843EE
:1017F000044336022643CA222B6828005A62773AED
:101800005A62FFF7DDFE2B68041E08D0FF225A62E1
:1018100004236B7700232B7701242000FEBD802159
:10182000114F3E405E60DA688A43DA609B689B062F
:101830000BD42800FFF7AAFE002806D0FF222B6851
:101840005A6204232C776B77E6E7FF222B685A62F3
:1018500001236B7700232B77DFE7019A0004104305
:1018600007431E023E43C6E73FFFFF00E021036837
:1018700010B55A688A435A608222416852009142E8
:101880000CD18021826809028A4203D08021C900DC
:101890008A4203D140211A688A431A608021826AF1
:1018A00089018A4206D11968074C214019601968DC
:1018B0000A431A60030001225D331A7000235C3072
:1018C0000370032010BDC046FFDFFFFFF8B5040022
:1018D0000D001700802623689868304009D06A1CE4
:1018E000FAD0FFF79FF9C01B8542F4D82000FFF71C
:1018F000BDFFF8BDF7B5C02705000C001600019329
:10190000FF002B68986820400DD0BC4200D11A7BA4
:10191000721CF7D0FFF786F9019BC01A8642F0D8F7
:101920002800FFF7A3FFFEBD70B513000D001600E1
:101930000A00C02149010400FFF7DCFF002805D0A0
:101940002023226E0320134323660FE03200290078
:101950002000FFF7BBFF0028F2D1C02133002A008E
:10196000C9002000FFF7C6FF0028E9D170BD0000C4
:10197000F8B504000120002C4ED000232500A362FE
:101980005D352B78DBB2002B05D122005C32137061
:101990002000FFF75FF80223402122682B701368B4
:1019A000E0688B43E0211360C9000023884234D8EB
:1019B00080267601884201D101E01E00A362236BDC
:1019C000002B04D10233884200D801232363A76887
:1019D0006368A1693B4327693B4367693B43E76908
:1019E0003B43276A3B43A76A3B438027BF000F4026
:1019F0003B431360636A090C1843636B1843042369
:101A0000194001430E435660D369074900200B403B
:101A1000D361012320662B70F8BDF0263601B04259
:101A2000CBD11E00CBE7C046FFF7FFFFF0B51E008D
:101A3000030085B05C3301931B7804000D00170090
:101A40000220012B7AD00123019A1370FFF7EAF8E4
:101A5000220000905D3213780220DBB2012B67D1A7
:101A60001800002D64D0002F62D0023313700023C1
:101A7000A21D23662364A563A787E78702329387A5
:101A8000D3872365E3648023A16822681B029942FF
:101A900004D180231168DB010B43136040231168DC
:101AA000194202D111680B431360E021E0686368BA
:101AB000C900884244D9002B01D0012F07D12B88BF
:101AC0000235D360E38FA563013B9BB2E387022518
:101AD0000CE0226893682B4221D0A36B1988023353
:101AE000D160A363E38F013B9BB2E387E38F002BBD
:101AF000EFD1009A31002000FFF716FF00285DD1DA
:101B0000A368002B06D103932368DA6803929B68CD
:101B10000393039B206E431E9841C0B208E0FFF779
:101B200081F8009BC01AB042E0D3731CDED00320C2
:101B300001235D3423700023019A137005B0F0BDBA
:101B4000002B01D0012F0AD1E38F012B09D92B885B
:101B50000235D360E38FA563023B9BB2E387022586
:101B600017E02B781373A36B0133A363E38F013B5F
:101B7000F3E7226893682B4217D0E18FA36B01290A
:101B80000BD919880233D160A363E38F023B9BB268
:101B9000E387E38F002BECD1ABE71B781373A36BC8
:101BA0000133A363E38F013BF1E7FFF73BF8009BB1
:101BB000C01AB042EDD3731CEBD0B8E720232366E4
:101BC0009EE70000F7B51E0003005C3317001A788B
:101BD00004000D000220012A00D1AAE001221A709F
:101BE000FFF720F8230001905D331B786168DBB2BA
:101BF000012B0CD0822202205200914200D091E0B1
:101C0000A268002A00D08DE0042B00D08AE00120D9
:101C1000002D00D186E0002F00D183E0002E00D1FE
:101C200080E023005D331A78042A01D005221A705F
:101C300022000023083223662764D687A21DD68798
:101C4000E022E068E3642365A563E687A68723684E
:101C5000D200904201D8012E30D95A686F4F3A40D5
:101C60005A6040221F68174202D11F683A431A6027
:101C7000E022D20090425DD9002901D0012E07D187
:101C80002A880235DA60E38FA563013B9BB2E387C4
:101C9000012502272E00E38F002B14D123000833E7
:101CA000DB8F002B0FD1019A08992000FFF73CFE33
:101CB000002837D020230120236633E080225F688C
:101CC00052013A43CCE721688B683B420ED0E38F48
:101CD000002B0BD0012D09D10025A36B1A880233EC
:101CE000CA60A363E38F013B9BB2E3878B683342F7
:101CF0000ED022000832D38F002B09D03500C968DE
:101D0000236C198002332364D38F013B9BB2D387AA
:101D1000FEF788FF019BC01A089B8342BBD80133A2
:101D2000B9D00320230001225D331A7000235C34F4
:101D30002370FEBD002901D0012E0AD1E28F012AB5
:101D400051D92A880235DA60E38FA563023B9BB242
:101D5000E387012502272E00E38F002B05D1230006
:101D60000833DB8F002B00D19DE7226893683B424C
:101D700011D0E38F002B0ED0012D0CD1E18FA36B7E
:101D8000012938D919880233D160A363E38F023B5C
:101D900000259BB2E38721688B68334219D023006A
:101DA0000833DA8F002A14D0D88F226C01282AD960
:101DB000C8683500108002322264DA8F023A92B28B
:101DC000DA87DB8F012B04D880234A685B01134339
:101DD0004B60FEF727FF019BC01A089B8342BBD8CC
:101DE0000133B9D09DE72A781A73A36B0133A3633B
:101DF000E38F013BABE71B781373A36B0133A36342
:101E0000E38F013BC4E7097B35001170226C01327E
:101E10002264DA8F013A92B2DA87DAE7FFEFFFFF46
:101E2000036807491A680A401A609A682331FF312B
:101E30008A439A6020238367002303667047C04665
:101E4000DFFEFFFF036870B5DA6904004A481968CD
:101E50009D6802420BD12020024200D175E0014270
:101E600000D172E0236E2000002B64D164E00120D9
:101E7000054003D190267600314266D0024205D05B
:101E8000CE0503D51862E66F3043E06702200242B8
:101E900006D0002D04D01862E66F00183043E067CA
:101EA0000420024206D0002D04D01862E66F0238EA
:101EB0003043E067100708D5880601D4002D04D010
:101EC00008201862E56F2843E06780200001024285
:101ED00006D04D0104D518622023E06F0343E36769
:101EE000E36F002B28D020231A4206D0194204D0D9
:101EF000236E002B01D0200098472368E56F9B6874
:101F000020005B0602D428231D401AD0FFF788FF6B
:101F1000402123689A680A420FD09A68E06E8A438B
:101F20009A60002809D0154B4363FEF70AFF00288A
:101F300002D0E06E436B984770BD2000FEF78AFA2E
:101F4000FAE7FEF787FAE567F6E78020024203D05A
:101F5000014201D0636E86E740200242ECD001428C
:101F6000EAD01A6882431A602023636700232000A6
:101F70006366FEF76DFADFE70F080000811F0008B7
:101F8000406A0023020010B55A321380083A1380C9
:101F9000FEF760FA10BD000070B504002569A36863
:101FA00002682B436569C1692B4310683E4D0B43A2
:101FB00028400343136053683C48256A0340E068A7
:101FC00003435360A36990682B43394D2840034372
:101FD00093600322374B384D1B6B1340374AD05C5C
:101FE00080231B02994235D1082826D8FEF78CF8A9
:101FF00005250B251D2525252000FFF733FA6368ED
:1020000040005B0802E0636858082D4BC018616807
:10201000FEF784F883B200201A00103AAA420FD9C2
:10202000012000232366636670BDFFF765F9E6E7CC
:102030006368580880235B02E8E701200023EBE790
:102040000F22190091430A001B0721685B0F1343FD
:10205000CB60E6E7082823D8FEF756F805220A22C7
:102060001A2222221D00FFF7FDF963685B0802E0D7
:1020700063685808134BC0186168FEF74FF883B2C5
:1020800000201A00103AAA42CAD82268D360C8E7D2
:10209000FFF732F9E9E76368580880231B02EAE793
:1020A00001200023EDE7C046F369FFFFFFCFFFFFEC
:1020B000FFF4FFFF00100240EFFF00008B24000838
:1020C0000024F40000127A00436A30B5DA0706D51E
:1020D0000168284C4A682240846A22434A609A0771
:1020E00006D50168244C4A682240C46A22434A60EB
:1020F0005A0706D50168214C4A682240046B2243E6
:102100004A601A0706D501681D4C4A682240446B94
:1021100022434A60DA0606D501681A4C8A682240D2
:10212000846B22438A609A0606D50168164C8A6839
:102130002240C46B22438A605A0610D50168134DB1
:102140004A68046C2A4022434A6080225203944227
:1021500005D14A680E4C2240446C22434A601B065B
:1021600006D502680B4953680B40816C0B435360E2
:1021700030BDC046FFFFFDFFFFFFFEFFFFFFFBFF7F
:10218000FF7FFFFFFFEFFFFFFFDFFFFFFFFFEFFF1F
:10219000FFFF9FFFFFFFF7FFF7B5802704000E004A
:1021A000150001933F012268D36933409B1B5942BC
:1021B0004B41AB4201D000201CE0089B0133F3D01F
:1021C000FEF730FD019B089AC01A2368904201D89F
:1021D000002A10D11A6813490A401A609A68A3317C
:1021E000FF318A439A6020236367A367002303209B
:1021F00070342370FEBD04211A680A42D3D0DA6914
:102200003A42D0D01F621A6806490A401A609A689A
:10221000A331FF318A439A6020236367A367E36792
:10222000E4E7C0465FFEFFFFF0B587B00593436F5C
:1022300004000D0017000220202B49D1013800298D
:1022400046D0002A44D08023A2685B019A4204D180
:102250002369002B01D101423AD1230070331A784F
:102260000220012A34D0012200261A702123E667B9
:102270006367FEF7D7FC230050331F8002330393BC
:102280001F808023A26804905B019A4204D12369D5
:10229000B34201D12E001D00230052331A88059B42
:1022A00092B20093049B002A0AD140212000FFF73C
:1022B00073FF00280BD1202370346360207007E087
:1022C000002280212000FFF767FF002802D00320B2
:1022D00007B0F0BD2268002D0BD133880236DB0534
:1022E000DB0D1385039B039A1B88013B9BB2138074
:1022F000D2E72B7801351385F4E7000073B500268B
:102300000400C667FEF78EFC236805001B681B07E8
:1023100015D423681B685B070AD580210E4B002269
:102320000093C9032B002000FFF736FF002811D1CE
:10233000202300206367A367703420700BE08021A6
:10234000054B32000093890303002000FFF724FFB0
:102350000028DED0032076BDFFFFFF0110B5041E6C
:1023600001D1012010BD436F002B04D10200703257
:102370001370FEF79FFB2423012122686367136813
:1023800020008B431360FFF707FE0128E9D0636A42
:10239000002B02D02000FFF797FE236807495A68F8
:1023A00020000A4008215A609A688A439A600122F4
:1023B00019680A431A60FFF7A1FFD3E7FFF7FFFF91
:1023C00070B500260C4D0D4C641BA410A64209D11B
:1023D000002600F02BF80A4D0A4C641BA410A642FC
:1023E00005D170BDB300EB5898470136EEE7B30056
:1023F000EB5898470136F2E7902400089024000833
:102400009024000894240008002310B59A4200D1BB
:1024100010BDCC5CC4540133F8E70300121893429A
:1024200000D1704719700133F9E70000F8B5C046D4
:10243000F8BC08BC9E467047F8B5C046F8BC08BC5E
:042440009E467047FD
:10244400533030000053303100005330320000026A
:10245400030405060708090A0B0C0D0E0F101001E2
:1024640002030405060708090A0B0C0D0E0F1000E1
:102474000000000000000001020304060708090030
:0C24840000000001020304000408020034
:04249000E900000857
:04249400C10000087B
:10249800FFFFFFFFFFFF000000127A0001000000AD
:0424A800040000002C
:0400000508000B5193
:00000001FF
